{
	"contracts/lottery.sol": {
		"lottery": {
			"abi": [
				{
					"inputs": [
						{
							"internalType": "uint256",
							"name": "_ticketAmount",
							"type": "uint256"
						},
						{
							"internalType": "uint256",
							"name": "_winDenominator",
							"type": "uint256"
						},
						{
							"internalType": "uint256",
							"name": "_payoutPercentOnWin",
							"type": "uint256"
						},
						{
							"internalType": "uint256",
							"name": "_feePercent",
							"type": "uint256"
						}
					],
					"stateMutability": "nonpayable",
					"type": "constructor"
				},
				{
					"anonymous": false,
					"inputs": [
						{
							"indexed": true,
							"internalType": "address",
							"name": "from",
							"type": "address"
						},
						{
							"indexed": false,
							"internalType": "uint256",
							"name": "amount",
							"type": "uint256"
						}
					],
					"name": "Deposited",
					"type": "event"
				},
				{
					"anonymous": false,
					"inputs": [
						{
							"indexed": true,
							"internalType": "address",
							"name": "recipient",
							"type": "address"
						},
						{
							"indexed": false,
							"internalType": "uint256",
							"name": "amount",
							"type": "uint256"
						}
					],
					"name": "FeeSent",
					"type": "event"
				},
				{
					"anonymous": false,
					"inputs": [
						{
							"indexed": true,
							"internalType": "address",
							"name": "player",
							"type": "address"
						},
						{
							"indexed": false,
							"internalType": "bool",
							"name": "won",
							"type": "bool"
						},
						{
							"indexed": false,
							"internalType": "uint256",
							"name": "reward",
							"type": "uint256"
						},
						{
							"indexed": false,
							"internalType": "uint256",
							"name": "contractBalanceAfter",
							"type": "uint256"
						}
					],
					"name": "Played",
					"type": "event"
				},
				{
					"inputs": [],
					"name": "FEE_RECIPIENT",
					"outputs": [
						{
							"internalType": "address payable",
							"name": "",
							"type": "address"
						}
					],
					"stateMutability": "view",
					"type": "function"
				},
				{
					"inputs": [],
					"name": "contractBalance",
					"outputs": [
						{
							"internalType": "uint256",
							"name": "",
							"type": "uint256"
						}
					],
					"stateMutability": "view",
					"type": "function"
				},
				{
					"inputs": [],
					"name": "deposit",
					"outputs": [],
					"stateMutability": "payable",
					"type": "function"
				},
				{
					"inputs": [],
					"name": "feePercent",
					"outputs": [
						{
							"internalType": "uint256",
							"name": "",
							"type": "uint256"
						}
					],
					"stateMutability": "view",
					"type": "function"
				},
				{
					"inputs": [],
					"name": "payoutPercentOnWin",
					"outputs": [
						{
							"internalType": "uint256",
							"name": "",
							"type": "uint256"
						}
					],
					"stateMutability": "view",
					"type": "function"
				},
				{
					"inputs": [],
					"name": "play",
					"outputs": [],
					"stateMutability": "payable",
					"type": "function"
				},
				{
					"inputs": [],
					"name": "ticketAmount",
					"outputs": [
						{
							"internalType": "uint256",
							"name": "",
							"type": "uint256"
						}
					],
					"stateMutability": "view",
					"type": "function"
				},
				{
					"inputs": [],
					"name": "winDenominator",
					"outputs": [
						{
							"internalType": "uint256",
							"name": "",
							"type": "uint256"
						}
					],
					"stateMutability": "view",
					"type": "function"
				},
				{
					"stateMutability": "payable",
					"type": "receive"
				}
			],
			"devdoc": {
				"author": "Franco Emanuel Morales ",
				"custom:security": "Este es un contrato educativo y no debe ser usado en producción ",
				"kind": "dev",
				"methods": {},
				"title": "Contrato Mensaje ",
				"version": 1
			},
			"evm": {
				"assembly": "    /* \"contracts/lottery.sol\":386:3477  contract lottery is ReentrancyGuard {... */\n  mstore(0x40, 0x0100)\n    /* \"contracts/lottery.sol\":1252:1925  constructor(... */\n  callvalue\n  dup1\n  iszero\n  tag_1\n  jumpi\n  revert(0x00, 0x00)\ntag_1:\n  pop\n  mload(0x40)\n  sub(codesize, bytecodeSize)\n  dup1\n  bytecodeSize\n  dup4\n  codecopy\n  dup2\n  dup2\n  add\n  0x40\n  mstore\n  dup2\n  add\n  swap1\n  tag_2\n  swap2\n  swap1\n  tag_3\n  jump\t// in\ntag_2:\n    /* \"@openzeppelin/contracts/security/ReentrancyGuard.sol\":1716:1717  1 */\n  0x01\n    /* \"@openzeppelin/contracts/security/ReentrancyGuard.sol\":1821:1828  _status */\n  0x00\n    /* \"@openzeppelin/contracts/security/ReentrancyGuard.sol\":1821:1843  _status = _NOT_ENTERED */\n  dup2\n  swap1\n  sstore\n  pop\n    /* \"contracts/lottery.sol\":1440:1441  0 */\n  0x00\n    /* \"contracts/lottery.sol\":1424:1437  _ticketAmount */\n  dup5\n    /* \"contracts/lottery.sol\":1424:1441  _ticketAmount > 0 */\n  gt\n    /* \"contracts/lottery.sol\":1416:1454  require(_ticketAmount > 0, \"ticket>0\") */\n  tag_8\n  jumpi\n  mload(0x40)\n  0x08c379a000000000000000000000000000000000000000000000000000000000\n  dup2\n  mstore\n  0x04\n  add\n  tag_9\n  swap1\n  tag_10\n  jump\t// in\ntag_9:\n  mload(0x40)\n  dup1\n  swap2\n  sub\n  swap1\n  revert\ntag_8:\n    /* \"contracts/lottery.sol\":1491:1492  0 */\n  0x00\n    /* \"contracts/lottery.sol\":1473:1488  _winDenominator */\n  dup4\n    /* \"contracts/lottery.sol\":1473:1492  _winDenominator > 0 */\n  gt\n    /* \"contracts/lottery.sol\":1465:1510  require(_winDenominator > 0, \"denominator>0\") */\n  tag_11\n  jumpi\n  mload(0x40)\n  0x08c379a000000000000000000000000000000000000000000000000000000000\n  dup2\n  mstore\n  0x04\n  add\n  tag_12\n  swap1\n  tag_13\n  jump\t// in\ntag_12:\n  mload(0x40)\n  dup1\n  swap2\n  sub\n  swap1\n  revert\ntag_11:\n    /* \"contracts/lottery.sol\":1552:1555  100 */\n  0x64\n    /* \"contracts/lottery.sol\":1529:1548  _payoutPercentOnWin */\n  dup3\n    /* \"contracts/lottery.sol\":1529:1555  _payoutPercentOnWin <= 100 */\n  gt\n  iszero\n    /* \"contracts/lottery.sol\":1529:1582  _payoutPercentOnWin <= 100 && _payoutPercentOnWin > 0 */\n  dup1\n  iszero\n  tag_14\n  jumpi\n  pop\n    /* \"contracts/lottery.sol\":1581:1582  0 */\n  0x00\n    /* \"contracts/lottery.sol\":1559:1578  _payoutPercentOnWin */\n  dup3\n    /* \"contracts/lottery.sol\":1559:1582  _payoutPercentOnWin > 0 */\n  gt\n    /* \"contracts/lottery.sol\":1529:1582  _payoutPercentOnWin <= 100 && _payoutPercentOnWin > 0 */\ntag_14:\n    /* \"contracts/lottery.sol\":1521:1601  require(_payoutPercentOnWin <= 100 && _payoutPercentOnWin > 0, \"payout% <= 100\") */\n  tag_15\n  jumpi\n  mload(0x40)\n  0x08c379a000000000000000000000000000000000000000000000000000000000\n  dup2\n  mstore\n  0x04\n  add\n  tag_16\n  swap1\n  tag_17\n  jump\t// in\ntag_16:\n  mload(0x40)\n  dup1\n  swap2\n  sub\n  swap1\n  revert\ntag_15:\n    /* \"contracts/lottery.sol\":1635:1638  100 */\n  0x64\n    /* \"contracts/lottery.sol\":1620:1631  _feePercent */\n  dup2\n    /* \"contracts/lottery.sol\":1620:1638  _feePercent <= 100 */\n  gt\n  iszero\n    /* \"contracts/lottery.sol\":1620:1657  _feePercent <= 100 && _feePercent > 0 */\n  dup1\n  iszero\n  tag_18\n  jumpi\n  pop\n    /* \"contracts/lottery.sol\":1656:1657  0 */\n  0x00\n    /* \"contracts/lottery.sol\":1642:1653  _feePercent */\n  dup2\n    /* \"contracts/lottery.sol\":1642:1657  _feePercent > 0 */\n  gt\n    /* \"contracts/lottery.sol\":1620:1657  _feePercent <= 100 && _feePercent > 0 */\ntag_18:\n    /* \"contracts/lottery.sol\":1612:1673  require(_feePercent <= 100 && _feePercent > 0, \"fee% <= 100\") */\n  tag_19\n  jumpi\n  mload(0x40)\n  0x08c379a000000000000000000000000000000000000000000000000000000000\n  dup2\n  mstore\n  0x04\n  add\n  tag_20\n  swap1\n  tag_21\n  jump\t// in\ntag_20:\n  mload(0x40)\n  dup1\n  swap2\n  sub\n  swap1\n  revert\ntag_19:\n    /* \"contracts/lottery.sol\":1717:1718  0 */\n  0x00\n    /* \"contracts/lottery.sol\":1692:1719  FEE_RECIPIENT != address(0) */\n  0xffffffffffffffffffffffffffffffffffffffff\n  and\n    /* \"contracts/lottery.sol\":911:953  0x5B38Da6a701c568545dCfcB03FcB875f56beddC4 */\n  0x5b38da6a701c568545dcfcb03fcb875f56beddc4\n    /* \"contracts/lottery.sol\":1692:1719  FEE_RECIPIENT != address(0) */\n  0xffffffffffffffffffffffffffffffffffffffff\n  and\n  sub\n    /* \"contracts/lottery.sol\":1684:1747  require(FEE_RECIPIENT != address(0), \"set valid fee recipient\") */\n  tag_22\n  jumpi\n  mload(0x40)\n  0x08c379a000000000000000000000000000000000000000000000000000000000\n  dup2\n  mstore\n  0x04\n  add\n  tag_23\n  swap1\n  tag_24\n  jump\t// in\ntag_23:\n  mload(0x40)\n  dup1\n  swap2\n  sub\n  swap1\n  revert\ntag_22:\n    /* \"contracts/lottery.sol\":1775:1788  _ticketAmount */\n  dup4\n    /* \"contracts/lottery.sol\":1760:1788  ticketAmount = _ticketAmount */\n  0x80\n  dup2\n  dup2\n  mstore\n  pop\n  pop\n    /* \"contracts/lottery.sol\":1816:1831  _winDenominator */\n  dup3\n    /* \"contracts/lottery.sol\":1799:1831  winDenominator = _winDenominator */\n  0xa0\n  dup2\n  dup2\n  mstore\n  pop\n  pop\n    /* \"contracts/lottery.sol\":1863:1882  _payoutPercentOnWin */\n  dup2\n    /* \"contracts/lottery.sol\":1842:1882  payoutPercentOnWin = _payoutPercentOnWin */\n  0xc0\n  dup2\n  dup2\n  mstore\n  pop\n  pop\n    /* \"contracts/lottery.sol\":1906:1917  _feePercent */\n  dup1\n    /* \"contracts/lottery.sol\":1893:1917  feePercent = _feePercent */\n  0xe0\n  dup2\n  dup2\n  mstore\n  pop\n  pop\n    /* \"contracts/lottery.sol\":1252:1925  constructor(... */\n  pop\n  pop\n  pop\n  pop\n    /* \"contracts/lottery.sol\":386:3477  contract lottery is ReentrancyGuard {... */\n  jump(tag_25)\n    /* \"#utility.yul\":88:205   */\ntag_27:\n    /* \"#utility.yul\":197:198   */\n  0x00\n    /* \"#utility.yul\":194:195   */\n  0x00\n    /* \"#utility.yul\":187:199   */\n  revert\n    /* \"#utility.yul\":334:411   */\ntag_29:\n    /* \"#utility.yul\":371:378   */\n  0x00\n    /* \"#utility.yul\":400:405   */\n  dup2\n    /* \"#utility.yul\":389:405   */\n  swap1\n  pop\n    /* \"#utility.yul\":334:411   */\n  swap2\n  swap1\n  pop\n  jump\t// out\n    /* \"#utility.yul\":417:539   */\ntag_30:\n    /* \"#utility.yul\":490:514   */\n  tag_49\n    /* \"#utility.yul\":508:513   */\n  dup2\n    /* \"#utility.yul\":490:514   */\n  tag_29\n  jump\t// in\ntag_49:\n    /* \"#utility.yul\":483:488   */\n  dup2\n    /* \"#utility.yul\":480:515   */\n  eq\n    /* \"#utility.yul\":470:533   */\n  tag_50\n  jumpi\n    /* \"#utility.yul\":529:530   */\n  0x00\n    /* \"#utility.yul\":526:527   */\n  0x00\n    /* \"#utility.yul\":519:531   */\n  revert\n    /* \"#utility.yul\":470:533   */\ntag_50:\n    /* \"#utility.yul\":417:539   */\n  pop\n  jump\t// out\n    /* \"#utility.yul\":545:688   */\ntag_31:\n    /* \"#utility.yul\":602:607   */\n  0x00\n    /* \"#utility.yul\":633:639   */\n  dup2\n    /* \"#utility.yul\":627:640   */\n  mload\n    /* \"#utility.yul\":618:640   */\n  swap1\n  pop\n    /* \"#utility.yul\":649:682   */\n  tag_52\n    /* \"#utility.yul\":676:681   */\n  dup2\n    /* \"#utility.yul\":649:682   */\n  tag_30\n  jump\t// in\ntag_52:\n    /* \"#utility.yul\":545:688   */\n  swap3\n  swap2\n  pop\n  pop\n  jump\t// out\n    /* \"#utility.yul\":694:1514   */\ntag_3:\n    /* \"#utility.yul\":791:797   */\n  0x00\n    /* \"#utility.yul\":799:805   */\n  0x00\n    /* \"#utility.yul\":807:813   */\n  0x00\n    /* \"#utility.yul\":815:821   */\n  0x00\n    /* \"#utility.yul\":864:867   */\n  0x80\n    /* \"#utility.yul\":852:861   */\n  dup6\n    /* \"#utility.yul\":843:850   */\n  dup8\n    /* \"#utility.yul\":839:862   */\n  sub\n    /* \"#utility.yul\":835:868   */\n  slt\n    /* \"#utility.yul\":832:952   */\n  iszero\n  tag_54\n  jumpi\n    /* \"#utility.yul\":871:950   */\n  tag_55\n  tag_27\n  jump\t// in\ntag_55:\n    /* \"#utility.yul\":832:952   */\ntag_54:\n    /* \"#utility.yul\":991:992   */\n  0x00\n    /* \"#utility.yul\":1016:1080   */\n  tag_56\n    /* \"#utility.yul\":1072:1079   */\n  dup8\n    /* \"#utility.yul\":1063:1069   */\n  dup3\n    /* \"#utility.yul\":1052:1061   */\n  dup9\n    /* \"#utility.yul\":1048:1070   */\n  add\n    /* \"#utility.yul\":1016:1080   */\n  tag_31\n  jump\t// in\ntag_56:\n    /* \"#utility.yul\":1006:1080   */\n  swap5\n  pop\n    /* \"#utility.yul\":962:1090   */\n  pop\n    /* \"#utility.yul\":1129:1131   */\n  0x20\n    /* \"#utility.yul\":1155:1219   */\n  tag_57\n    /* \"#utility.yul\":1211:1218   */\n  dup8\n    /* \"#utility.yul\":1202:1208   */\n  dup3\n    /* \"#utility.yul\":1191:1200   */\n  dup9\n    /* \"#utility.yul\":1187:1209   */\n  add\n    /* \"#utility.yul\":1155:1219   */\n  tag_31\n  jump\t// in\ntag_57:\n    /* \"#utility.yul\":1145:1219   */\n  swap4\n  pop\n    /* \"#utility.yul\":1100:1229   */\n  pop\n    /* \"#utility.yul\":1268:1270   */\n  0x40\n    /* \"#utility.yul\":1294:1358   */\n  tag_58\n    /* \"#utility.yul\":1350:1357   */\n  dup8\n    /* \"#utility.yul\":1341:1347   */\n  dup3\n    /* \"#utility.yul\":1330:1339   */\n  dup9\n    /* \"#utility.yul\":1326:1348   */\n  add\n    /* \"#utility.yul\":1294:1358   */\n  tag_31\n  jump\t// in\ntag_58:\n    /* \"#utility.yul\":1284:1358   */\n  swap3\n  pop\n    /* \"#utility.yul\":1239:1368   */\n  pop\n    /* \"#utility.yul\":1407:1409   */\n  0x60\n    /* \"#utility.yul\":1433:1497   */\n  tag_59\n    /* \"#utility.yul\":1489:1496   */\n  dup8\n    /* \"#utility.yul\":1480:1486   */\n  dup3\n    /* \"#utility.yul\":1469:1478   */\n  dup9\n    /* \"#utility.yul\":1465:1487   */\n  add\n    /* \"#utility.yul\":1433:1497   */\n  tag_31\n  jump\t// in\ntag_59:\n    /* \"#utility.yul\":1423:1497   */\n  swap2\n  pop\n    /* \"#utility.yul\":1378:1507   */\n  pop\n    /* \"#utility.yul\":694:1514   */\n  swap3\n  swap6\n  swap2\n  swap5\n  pop\n  swap3\n  pop\n  jump\t// out\n    /* \"#utility.yul\":1520:1689   */\ntag_32:\n    /* \"#utility.yul\":1604:1615   */\n  0x00\n    /* \"#utility.yul\":1638:1644   */\n  dup3\n    /* \"#utility.yul\":1633:1636   */\n  dup3\n    /* \"#utility.yul\":1626:1645   */\n  mstore\n    /* \"#utility.yul\":1678:1682   */\n  0x20\n    /* \"#utility.yul\":1673:1676   */\n  dup3\n    /* \"#utility.yul\":1669:1683   */\n  add\n    /* \"#utility.yul\":1654:1683   */\n  swap1\n  pop\n    /* \"#utility.yul\":1520:1689   */\n  swap3\n  swap2\n  pop\n  pop\n  jump\t// out\n    /* \"#utility.yul\":1695:1853   */\ntag_33:\n    /* \"#utility.yul\":1835:1845   */\n  0x7469636b65743e30000000000000000000000000000000000000000000000000\n    /* \"#utility.yul\":1831:1832   */\n  0x00\n    /* \"#utility.yul\":1823:1829   */\n  dup3\n    /* \"#utility.yul\":1819:1833   */\n  add\n    /* \"#utility.yul\":1812:1846   */\n  mstore\n    /* \"#utility.yul\":1695:1853   */\n  pop\n  jump\t// out\n    /* \"#utility.yul\":1859:2224   */\ntag_34:\n    /* \"#utility.yul\":2001:2004   */\n  0x00\n    /* \"#utility.yul\":2022:2088   */\n  tag_63\n    /* \"#utility.yul\":2086:2087   */\n  0x08\n    /* \"#utility.yul\":2081:2084   */\n  dup4\n    /* \"#utility.yul\":2022:2088   */\n  tag_32\n  jump\t// in\ntag_63:\n    /* \"#utility.yul\":2015:2088   */\n  swap2\n  pop\n    /* \"#utility.yul\":2097:2190   */\n  tag_64\n    /* \"#utility.yul\":2186:2189   */\n  dup3\n    /* \"#utility.yul\":2097:2190   */\n  tag_33\n  jump\t// in\ntag_64:\n    /* \"#utility.yul\":2215:2217   */\n  0x20\n    /* \"#utility.yul\":2210:2213   */\n  dup3\n    /* \"#utility.yul\":2206:2218   */\n  add\n    /* \"#utility.yul\":2199:2218   */\n  swap1\n  pop\n    /* \"#utility.yul\":1859:2224   */\n  swap2\n  swap1\n  pop\n  jump\t// out\n    /* \"#utility.yul\":2230:2649   */\ntag_10:\n    /* \"#utility.yul\":2396:2400   */\n  0x00\n    /* \"#utility.yul\":2434:2436   */\n  0x20\n    /* \"#utility.yul\":2423:2432   */\n  dup3\n    /* \"#utility.yul\":2419:2437   */\n  add\n    /* \"#utility.yul\":2411:2437   */\n  swap1\n  pop\n    /* \"#utility.yul\":2483:2492   */\n  dup2\n    /* \"#utility.yul\":2477:2481   */\n  dup2\n    /* \"#utility.yul\":2473:2493   */\n  sub\n    /* \"#utility.yul\":2469:2470   */\n  0x00\n    /* \"#utility.yul\":2458:2467   */\n  dup4\n    /* \"#utility.yul\":2454:2471   */\n  add\n    /* \"#utility.yul\":2447:2494   */\n  mstore\n    /* \"#utility.yul\":2511:2642   */\n  tag_66\n    /* \"#utility.yul\":2637:2641   */\n  dup2\n    /* \"#utility.yul\":2511:2642   */\n  tag_34\n  jump\t// in\ntag_66:\n    /* \"#utility.yul\":2503:2642   */\n  swap1\n  pop\n    /* \"#utility.yul\":2230:2649   */\n  swap2\n  swap1\n  pop\n  jump\t// out\n    /* \"#utility.yul\":2655:2818   */\ntag_35:\n    /* \"#utility.yul\":2795:2810   */\n  0x64656e6f6d696e61746f723e3000000000000000000000000000000000000000\n    /* \"#utility.yul\":2791:2792   */\n  0x00\n    /* \"#utility.yul\":2783:2789   */\n  dup3\n    /* \"#utility.yul\":2779:2793   */\n  add\n    /* \"#utility.yul\":2772:2811   */\n  mstore\n    /* \"#utility.yul\":2655:2818   */\n  pop\n  jump\t// out\n    /* \"#utility.yul\":2824:3190   */\ntag_36:\n    /* \"#utility.yul\":2966:2969   */\n  0x00\n    /* \"#utility.yul\":2987:3054   */\n  tag_69\n    /* \"#utility.yul\":3051:3053   */\n  0x0d\n    /* \"#utility.yul\":3046:3049   */\n  dup4\n    /* \"#utility.yul\":2987:3054   */\n  tag_32\n  jump\t// in\ntag_69:\n    /* \"#utility.yul\":2980:3054   */\n  swap2\n  pop\n    /* \"#utility.yul\":3063:3156   */\n  tag_70\n    /* \"#utility.yul\":3152:3155   */\n  dup3\n    /* \"#utility.yul\":3063:3156   */\n  tag_35\n  jump\t// in\ntag_70:\n    /* \"#utility.yul\":3181:3183   */\n  0x20\n    /* \"#utility.yul\":3176:3179   */\n  dup3\n    /* \"#utility.yul\":3172:3184   */\n  add\n    /* \"#utility.yul\":3165:3184   */\n  swap1\n  pop\n    /* \"#utility.yul\":2824:3190   */\n  swap2\n  swap1\n  pop\n  jump\t// out\n    /* \"#utility.yul\":3196:3615   */\ntag_13:\n    /* \"#utility.yul\":3362:3366   */\n  0x00\n    /* \"#utility.yul\":3400:3402   */\n  0x20\n    /* \"#utility.yul\":3389:3398   */\n  dup3\n    /* \"#utility.yul\":3385:3403   */\n  add\n    /* \"#utility.yul\":3377:3403   */\n  swap1\n  pop\n    /* \"#utility.yul\":3449:3458   */\n  dup2\n    /* \"#utility.yul\":3443:3447   */\n  dup2\n    /* \"#utility.yul\":3439:3459   */\n  sub\n    /* \"#utility.yul\":3435:3436   */\n  0x00\n    /* \"#utility.yul\":3424:3433   */\n  dup4\n    /* \"#utility.yul\":3420:3437   */\n  add\n    /* \"#utility.yul\":3413:3460   */\n  mstore\n    /* \"#utility.yul\":3477:3608   */\n  tag_72\n    /* \"#utility.yul\":3603:3607   */\n  dup2\n    /* \"#utility.yul\":3477:3608   */\n  tag_36\n  jump\t// in\ntag_72:\n    /* \"#utility.yul\":3469:3608   */\n  swap1\n  pop\n    /* \"#utility.yul\":3196:3615   */\n  swap2\n  swap1\n  pop\n  jump\t// out\n    /* \"#utility.yul\":3621:3785   */\ntag_37:\n    /* \"#utility.yul\":3761:3777   */\n  0x7061796f757425203c3d20313030000000000000000000000000000000000000\n    /* \"#utility.yul\":3757:3758   */\n  0x00\n    /* \"#utility.yul\":3749:3755   */\n  dup3\n    /* \"#utility.yul\":3745:3759   */\n  add\n    /* \"#utility.yul\":3738:3778   */\n  mstore\n    /* \"#utility.yul\":3621:3785   */\n  pop\n  jump\t// out\n    /* \"#utility.yul\":3791:4157   */\ntag_38:\n    /* \"#utility.yul\":3933:3936   */\n  0x00\n    /* \"#utility.yul\":3954:4021   */\n  tag_75\n    /* \"#utility.yul\":4018:4020   */\n  0x0e\n    /* \"#utility.yul\":4013:4016   */\n  dup4\n    /* \"#utility.yul\":3954:4021   */\n  tag_32\n  jump\t// in\ntag_75:\n    /* \"#utility.yul\":3947:4021   */\n  swap2\n  pop\n    /* \"#utility.yul\":4030:4123   */\n  tag_76\n    /* \"#utility.yul\":4119:4122   */\n  dup3\n    /* \"#utility.yul\":4030:4123   */\n  tag_37\n  jump\t// in\ntag_76:\n    /* \"#utility.yul\":4148:4150   */\n  0x20\n    /* \"#utility.yul\":4143:4146   */\n  dup3\n    /* \"#utility.yul\":4139:4151   */\n  add\n    /* \"#utility.yul\":4132:4151   */\n  swap1\n  pop\n    /* \"#utility.yul\":3791:4157   */\n  swap2\n  swap1\n  pop\n  jump\t// out\n    /* \"#utility.yul\":4163:4582   */\ntag_17:\n    /* \"#utility.yul\":4329:4333   */\n  0x00\n    /* \"#utility.yul\":4367:4369   */\n  0x20\n    /* \"#utility.yul\":4356:4365   */\n  dup3\n    /* \"#utility.yul\":4352:4370   */\n  add\n    /* \"#utility.yul\":4344:4370   */\n  swap1\n  pop\n    /* \"#utility.yul\":4416:4425   */\n  dup2\n    /* \"#utility.yul\":4410:4414   */\n  dup2\n    /* \"#utility.yul\":4406:4426   */\n  sub\n    /* \"#utility.yul\":4402:4403   */\n  0x00\n    /* \"#utility.yul\":4391:4400   */\n  dup4\n    /* \"#utility.yul\":4387:4404   */\n  add\n    /* \"#utility.yul\":4380:4427   */\n  mstore\n    /* \"#utility.yul\":4444:4575   */\n  tag_78\n    /* \"#utility.yul\":4570:4574   */\n  dup2\n    /* \"#utility.yul\":4444:4575   */\n  tag_38\n  jump\t// in\ntag_78:\n    /* \"#utility.yul\":4436:4575   */\n  swap1\n  pop\n    /* \"#utility.yul\":4163:4582   */\n  swap2\n  swap1\n  pop\n  jump\t// out\n    /* \"#utility.yul\":4588:4749   */\ntag_39:\n    /* \"#utility.yul\":4728:4741   */\n  0x66656525203c3d20313030000000000000000000000000000000000000000000\n    /* \"#utility.yul\":4724:4725   */\n  0x00\n    /* \"#utility.yul\":4716:4722   */\n  dup3\n    /* \"#utility.yul\":4712:4726   */\n  add\n    /* \"#utility.yul\":4705:4742   */\n  mstore\n    /* \"#utility.yul\":4588:4749   */\n  pop\n  jump\t// out\n    /* \"#utility.yul\":4755:5121   */\ntag_40:\n    /* \"#utility.yul\":4897:4900   */\n  0x00\n    /* \"#utility.yul\":4918:4985   */\n  tag_81\n    /* \"#utility.yul\":4982:4984   */\n  0x0b\n    /* \"#utility.yul\":4977:4980   */\n  dup4\n    /* \"#utility.yul\":4918:4985   */\n  tag_32\n  jump\t// in\ntag_81:\n    /* \"#utility.yul\":4911:4985   */\n  swap2\n  pop\n    /* \"#utility.yul\":4994:5087   */\n  tag_82\n    /* \"#utility.yul\":5083:5086   */\n  dup3\n    /* \"#utility.yul\":4994:5087   */\n  tag_39\n  jump\t// in\ntag_82:\n    /* \"#utility.yul\":5112:5114   */\n  0x20\n    /* \"#utility.yul\":5107:5110   */\n  dup3\n    /* \"#utility.yul\":5103:5115   */\n  add\n    /* \"#utility.yul\":5096:5115   */\n  swap1\n  pop\n    /* \"#utility.yul\":4755:5121   */\n  swap2\n  swap1\n  pop\n  jump\t// out\n    /* \"#utility.yul\":5127:5546   */\ntag_21:\n    /* \"#utility.yul\":5293:5297   */\n  0x00\n    /* \"#utility.yul\":5331:5333   */\n  0x20\n    /* \"#utility.yul\":5320:5329   */\n  dup3\n    /* \"#utility.yul\":5316:5334   */\n  add\n    /* \"#utility.yul\":5308:5334   */\n  swap1\n  pop\n    /* \"#utility.yul\":5380:5389   */\n  dup2\n    /* \"#utility.yul\":5374:5378   */\n  dup2\n    /* \"#utility.yul\":5370:5390   */\n  sub\n    /* \"#utility.yul\":5366:5367   */\n  0x00\n    /* \"#utility.yul\":5355:5364   */\n  dup4\n    /* \"#utility.yul\":5351:5368   */\n  add\n    /* \"#utility.yul\":5344:5391   */\n  mstore\n    /* \"#utility.yul\":5408:5539   */\n  tag_84\n    /* \"#utility.yul\":5534:5538   */\n  dup2\n    /* \"#utility.yul\":5408:5539   */\n  tag_40\n  jump\t// in\ntag_84:\n    /* \"#utility.yul\":5400:5539   */\n  swap1\n  pop\n    /* \"#utility.yul\":5127:5546   */\n  swap2\n  swap1\n  pop\n  jump\t// out\n    /* \"#utility.yul\":5552:5725   */\ntag_41:\n    /* \"#utility.yul\":5692:5717   */\n  0x7365742076616c69642066656520726563697069656e74000000000000000000\n    /* \"#utility.yul\":5688:5689   */\n  0x00\n    /* \"#utility.yul\":5680:5686   */\n  dup3\n    /* \"#utility.yul\":5676:5690   */\n  add\n    /* \"#utility.yul\":5669:5718   */\n  mstore\n    /* \"#utility.yul\":5552:5725   */\n  pop\n  jump\t// out\n    /* \"#utility.yul\":5731:6097   */\ntag_42:\n    /* \"#utility.yul\":5873:5876   */\n  0x00\n    /* \"#utility.yul\":5894:5961   */\n  tag_87\n    /* \"#utility.yul\":5958:5960   */\n  0x17\n    /* \"#utility.yul\":5953:5956   */\n  dup4\n    /* \"#utility.yul\":5894:5961   */\n  tag_32\n  jump\t// in\ntag_87:\n    /* \"#utility.yul\":5887:5961   */\n  swap2\n  pop\n    /* \"#utility.yul\":5970:6063   */\n  tag_88\n    /* \"#utility.yul\":6059:6062   */\n  dup3\n    /* \"#utility.yul\":5970:6063   */\n  tag_41\n  jump\t// in\ntag_88:\n    /* \"#utility.yul\":6088:6090   */\n  0x20\n    /* \"#utility.yul\":6083:6086   */\n  dup3\n    /* \"#utility.yul\":6079:6091   */\n  add\n    /* \"#utility.yul\":6072:6091   */\n  swap1\n  pop\n    /* \"#utility.yul\":5731:6097   */\n  swap2\n  swap1\n  pop\n  jump\t// out\n    /* \"#utility.yul\":6103:6522   */\ntag_24:\n    /* \"#utility.yul\":6269:6273   */\n  0x00\n    /* \"#utility.yul\":6307:6309   */\n  0x20\n    /* \"#utility.yul\":6296:6305   */\n  dup3\n    /* \"#utility.yul\":6292:6310   */\n  add\n    /* \"#utility.yul\":6284:6310   */\n  swap1\n  pop\n    /* \"#utility.yul\":6356:6365   */\n  dup2\n    /* \"#utility.yul\":6350:6354   */\n  dup2\n    /* \"#utility.yul\":6346:6366   */\n  sub\n    /* \"#utility.yul\":6342:6343   */\n  0x00\n    /* \"#utility.yul\":6331:6340   */\n  dup4\n    /* \"#utility.yul\":6327:6344   */\n  add\n    /* \"#utility.yul\":6320:6367   */\n  mstore\n    /* \"#utility.yul\":6384:6515   */\n  tag_90\n    /* \"#utility.yul\":6510:6514   */\n  dup2\n    /* \"#utility.yul\":6384:6515   */\n  tag_42\n  jump\t// in\ntag_90:\n    /* \"#utility.yul\":6376:6515   */\n  swap1\n  pop\n    /* \"#utility.yul\":6103:6522   */\n  swap2\n  swap1\n  pop\n  jump\t// out\n    /* \"contracts/lottery.sol\":386:3477  contract lottery is ReentrancyGuard {... */\ntag_25:\n  mload(0x80)\n  mload(0xa0)\n  mload(0xc0)\n  mload(0xe0)\n  codecopy(0x00, dataOffset(sub_0), dataSize(sub_0))\n  0x00\n  assignImmutable(\"0x63867b8d5e748cf93e24f7b381d92337d037805bfc271d6d67e0e86772662677\")\n  0x00\n  assignImmutable(\"0xf1ae7da53f98170be52cc9330214a82f7ba06ee306297b4e1fb86fb21c611aa6\")\n  0x00\n  assignImmutable(\"0x57014f1e5f1d53e43fa40624186159531d6372d1ab8f40ec7882845ca66de31d\")\n  0x00\n  assignImmutable(\"0x8fd0324b6a5df169e0aa0c7938ef0034d0e971a998f91b36eba211882d3617b1\")\n  return(0x00, dataSize(sub_0))\nstop\n\nsub_0: assembly {\n        /* \"contracts/lottery.sol\":386:3477  contract lottery is ReentrancyGuard {... */\n      mstore(0x40, 0x80)\n      jumpi(tag_1, lt(calldatasize, 0x04))\n      shr(0xe0, calldataload(0x00))\n      dup1\n      0x93e84cd9\n      gt\n      tag_11\n      jumpi\n      dup1\n      0x93e84cd9\n      eq\n      tag_7\n      jumpi\n      dup1\n      0xd0e30db0\n      eq\n      tag_8\n      jumpi\n      dup1\n      0xe004e293\n      eq\n      tag_9\n      jumpi\n      dup1\n      0xebd09054\n      eq\n      tag_10\n      jumpi\n      jump(tag_2)\n    tag_11:\n      dup1\n      0x0ba679c1\n      eq\n      tag_3\n      jumpi\n      dup1\n      0x65a841a7\n      eq\n      tag_4\n      jumpi\n      dup1\n      0x7fd6f15c\n      eq\n      tag_5\n      jumpi\n      dup1\n      0x8b7afe2e\n      eq\n      tag_6\n      jumpi\n      jump(tag_2)\n    tag_1:\n      jumpi(tag_2, calldatasize)\n        /* \"contracts/lottery.sol\":2158:2168  msg.sender */\n      caller\n        /* \"contracts/lottery.sol\":2148:2180  Deposited(msg.sender, msg.value) */\n      0xffffffffffffffffffffffffffffffffffffffff\n      and\n      0x2da466a7b24304f47e87fa2e1e5a81b9831ce54fec19055ce277ca2f39ba42c4\n        /* \"contracts/lottery.sol\":2170:2179  msg.value */\n      callvalue\n        /* \"contracts/lottery.sol\":2148:2180  Deposited(msg.sender, msg.value) */\n      mload(0x40)\n      tag_14\n      swap2\n      swap1\n      tag_15\n      jump\t// in\n    tag_14:\n      mload(0x40)\n      dup1\n      swap2\n      sub\n      swap1\n      log2\n        /* \"contracts/lottery.sol\":386:3477  contract lottery is ReentrancyGuard {... */\n      stop\n    tag_2:\n      revert(0x00, 0x00)\n        /* \"contracts/lottery.sol\":452:489  uint256 public immutable ticketAmount */\n    tag_3:\n      callvalue\n      dup1\n      iszero\n      tag_16\n      jumpi\n      revert(0x00, 0x00)\n    tag_16:\n      pop\n      tag_17\n      tag_18\n      jump\t// in\n    tag_17:\n      mload(0x40)\n      tag_19\n      swap2\n      swap1\n      tag_15\n      jump\t// in\n    tag_19:\n      mload(0x40)\n      dup1\n      swap2\n      sub\n      swap1\n      return\n        /* \"contracts/lottery.sol\":629:672  uint256 public immutable payoutPercentOnWin */\n    tag_4:\n      callvalue\n      dup1\n      iszero\n      tag_20\n      jumpi\n      revert(0x00, 0x00)\n    tag_20:\n      pop\n      tag_21\n      tag_22\n      jump\t// in\n    tag_21:\n      mload(0x40)\n      tag_23\n      swap2\n      swap1\n      tag_15\n      jump\t// in\n    tag_23:\n      mload(0x40)\n      dup1\n      swap2\n      sub\n      swap1\n      return\n        /* \"contracts/lottery.sol\":737:772  uint256 public immutable feePercent */\n    tag_5:\n      callvalue\n      dup1\n      iszero\n      tag_24\n      jumpi\n      revert(0x00, 0x00)\n    tag_24:\n      pop\n      tag_25\n      tag_26\n      jump\t// in\n    tag_25:\n      mload(0x40)\n      tag_27\n      swap2\n      swap1\n      tag_15\n      jump\t// in\n    tag_27:\n      mload(0x40)\n      dup1\n      swap2\n      sub\n      swap1\n      return\n        /* \"contracts/lottery.sol\":3368:3474  function contractBalance() external view returns (uint256) {... */\n    tag_6:\n      callvalue\n      dup1\n      iszero\n      tag_28\n      jumpi\n      revert(0x00, 0x00)\n    tag_28:\n      pop\n      tag_29\n      tag_30\n      jump\t// in\n    tag_29:\n      mload(0x40)\n      tag_31\n      swap2\n      swap1\n      tag_15\n      jump\t// in\n    tag_31:\n      mload(0x40)\n      dup1\n      swap2\n      sub\n      swap1\n      return\n        /* \"contracts/lottery.sol\":2196:3118  function play() external payable nonReentrant {... */\n    tag_7:\n      tag_32\n      tag_33\n      jump\t// in\n    tag_32:\n      stop\n        /* \"contracts/lottery.sol\":1956:2097  function deposit() external payable {... */\n    tag_8:\n      tag_34\n      tag_35\n      jump\t// in\n    tag_34:\n      stop\n        /* \"contracts/lottery.sol\":540:579  uint256 public immutable winDenominator */\n    tag_9:\n      callvalue\n      dup1\n      iszero\n      tag_36\n      jumpi\n      revert(0x00, 0x00)\n    tag_36:\n      pop\n      tag_37\n      tag_38\n      jump\t// in\n    tag_37:\n      mload(0x40)\n      tag_39\n      swap2\n      swap1\n      tag_15\n      jump\t// in\n    tag_39:\n      mload(0x40)\n      dup1\n      swap2\n      sub\n      swap1\n      return\n        /* \"contracts/lottery.sol\":855:954  address payable public constant FEE_RECIPIENT = payable(0x5B38Da6a701c568545dCfcB03FcB875f56beddC4) */\n    tag_10:\n      callvalue\n      dup1\n      iszero\n      tag_40\n      jumpi\n      revert(0x00, 0x00)\n    tag_40:\n      pop\n      tag_41\n      tag_42\n      jump\t// in\n    tag_41:\n      mload(0x40)\n      tag_43\n      swap2\n      swap1\n      tag_44\n      jump\t// in\n    tag_43:\n      mload(0x40)\n      dup1\n      swap2\n      sub\n      swap1\n      return\n        /* \"contracts/lottery.sol\":452:489  uint256 public immutable ticketAmount */\n    tag_18:\n      immutable(\"0x8fd0324b6a5df169e0aa0c7938ef0034d0e971a998f91b36eba211882d3617b1\")\n      dup2\n      jump\t// out\n        /* \"contracts/lottery.sol\":629:672  uint256 public immutable payoutPercentOnWin */\n    tag_22:\n      immutable(\"0xf1ae7da53f98170be52cc9330214a82f7ba06ee306297b4e1fb86fb21c611aa6\")\n      dup2\n      jump\t// out\n        /* \"contracts/lottery.sol\":737:772  uint256 public immutable feePercent */\n    tag_26:\n      immutable(\"0x63867b8d5e748cf93e24f7b381d92337d037805bfc271d6d67e0e86772662677\")\n      dup2\n      jump\t// out\n        /* \"contracts/lottery.sol\":3368:3474  function contractBalance() external view returns (uint256) {... */\n    tag_30:\n        /* \"contracts/lottery.sol\":3418:3425  uint256 */\n      0x00\n        /* \"contracts/lottery.sol\":3445:3466  address(this).balance */\n      selfbalance\n        /* \"contracts/lottery.sol\":3438:3466  return address(this).balance */\n      swap1\n      pop\n        /* \"contracts/lottery.sol\":3368:3474  function contractBalance() external view returns (uint256) {... */\n      swap1\n      jump\t// out\n        /* \"contracts/lottery.sol\":2196:3118  function play() external payable nonReentrant {... */\n    tag_33:\n        /* \"@openzeppelin/contracts/security/ReentrancyGuard.sol\":2261:2282  _nonReentrantBefore() */\n      tag_47\n        /* \"@openzeppelin/contracts/security/ReentrancyGuard.sol\":2261:2280  _nonReentrantBefore */\n      tag_48\n        /* \"@openzeppelin/contracts/security/ReentrancyGuard.sol\":2261:2282  _nonReentrantBefore() */\n      jump\t// in\n    tag_47:\n        /* \"contracts/lottery.sol\":2274:2286  ticketAmount */\n      immutable(\"0x8fd0324b6a5df169e0aa0c7938ef0034d0e971a998f91b36eba211882d3617b1\")\n        /* \"contracts/lottery.sol\":2261:2270  msg.value */\n      callvalue\n        /* \"contracts/lottery.sol\":2261:2286  msg.value == ticketAmount */\n      eq\n        /* \"contracts/lottery.sol\":2253:2315  require(msg.value == ticketAmount, \"send exact ticket amount\") */\n      tag_50\n      jumpi\n      mload(0x40)\n      0x08c379a000000000000000000000000000000000000000000000000000000000\n      dup2\n      mstore\n      0x04\n      add\n      tag_51\n      swap1\n      tag_52\n      jump\t// in\n    tag_51:\n      mload(0x40)\n      dup1\n      swap2\n      sub\n      swap1\n      revert\n    tag_50:\n        /* \"contracts/lottery.sol\":2336:2365  uint256 contractBalanceBefore */\n      0x00\n        /* \"contracts/lottery.sol\":2368:2389  address(this).balance */\n      selfbalance\n        /* \"contracts/lottery.sol\":2336:2389  uint256 contractBalanceBefore = address(this).balance */\n      swap1\n      pop\n        /* \"contracts/lottery.sol\":2402:2413  uint256 fee */\n      0x00\n        /* \"contracts/lottery.sol\":2446:2449  100 */\n      0x64\n        /* \"contracts/lottery.sol\":2432:2442  feePercent */\n      immutable(\"0x63867b8d5e748cf93e24f7b381d92337d037805bfc271d6d67e0e86772662677\")\n        /* \"contracts/lottery.sol\":2417:2429  ticketAmount */\n      immutable(\"0x8fd0324b6a5df169e0aa0c7938ef0034d0e971a998f91b36eba211882d3617b1\")\n        /* \"contracts/lottery.sol\":2417:2442  ticketAmount * feePercent */\n      tag_53\n      swap2\n      swap1\n      tag_54\n      jump\t// in\n    tag_53:\n        /* \"contracts/lottery.sol\":2416:2449  (ticketAmount * feePercent) / 100 */\n      tag_55\n      swap2\n      swap1\n      tag_56\n      jump\t// in\n    tag_55:\n        /* \"contracts/lottery.sol\":2402:2449  uint256 fee = (ticketAmount * feePercent) / 100 */\n      swap1\n      pop\n        /* \"contracts/lottery.sol\":2461:2473  bool feeSent */\n      0x00\n        /* \"contracts/lottery.sol\":911:953  0x5B38Da6a701c568545dCfcB03FcB875f56beddC4 */\n      0x5b38da6a701c568545dcfcb03fcb875f56beddc4\n        /* \"contracts/lottery.sol\":2479:2497  FEE_RECIPIENT.call */\n      0xffffffffffffffffffffffffffffffffffffffff\n      and\n        /* \"contracts/lottery.sol\":2505:2508  fee */\n      dup3\n        /* \"contracts/lottery.sol\":2479:2513  FEE_RECIPIENT.call{value: fee}(\"\") */\n      mload(0x40)\n      tag_57\n      swap1\n      tag_58\n      jump\t// in\n    tag_57:\n      0x00\n      mload(0x40)\n      dup1\n      dup4\n      sub\n      dup2\n      dup6\n      dup8\n      gas\n      call\n      swap3\n      pop\n      pop\n      pop\n      returndatasize\n      dup1\n      0x00\n      dup2\n      eq\n      tag_61\n      jumpi\n      mload(0x40)\n      swap2\n      pop\n      and(add(returndatasize, 0x3f), not(0x1f))\n      dup3\n      add\n      0x40\n      mstore\n      returndatasize\n      dup3\n      mstore\n      returndatasize\n      0x00\n      0x20\n      dup5\n      add\n      returndatacopy\n      jump(tag_60)\n    tag_61:\n      0x60\n      swap2\n      pop\n    tag_60:\n      pop\n        /* \"contracts/lottery.sol\":2460:2513  (bool feeSent, ) = FEE_RECIPIENT.call{value: fee}(\"\") */\n      pop\n      swap1\n      pop\n        /* \"contracts/lottery.sol\":2532:2539  feeSent */\n      dup1\n        /* \"contracts/lottery.sol\":2524:2563  require(feeSent, \"fee transfer failed\") */\n      tag_62\n      jumpi\n      mload(0x40)\n      0x08c379a000000000000000000000000000000000000000000000000000000000\n      dup2\n      mstore\n      0x04\n      add\n      tag_63\n      swap1\n      tag_64\n      jump\t// in\n    tag_63:\n      mload(0x40)\n      dup1\n      swap2\n      sub\n      swap1\n      revert\n    tag_62:\n        /* \"contracts/lottery.sol\":911:953  0x5B38Da6a701c568545dCfcB03FcB875f56beddC4 */\n      0x5b38da6a701c568545dcfcb03fcb875f56beddc4\n        /* \"contracts/lottery.sol\":2579:2606  FeeSent(FEE_RECIPIENT, fee) */\n      0xffffffffffffffffffffffffffffffffffffffff\n      and\n      0x58793df5f4d270351f09efd433db93c69432142b69dc7ee38195fc630478c79f\n        /* \"contracts/lottery.sol\":2602:2605  fee */\n      dup4\n        /* \"contracts/lottery.sol\":2579:2606  FeeSent(FEE_RECIPIENT, fee) */\n      mload(0x40)\n      tag_65\n      swap2\n      swap1\n      tag_15\n      jump\t// in\n    tag_65:\n      mload(0x40)\n      dup1\n      swap2\n      sub\n      swap1\n      log2\n        /* \"contracts/lottery.sol\":2621:2629  bool won */\n      0x00\n        /* \"contracts/lottery.sol\":2671:2672  0 */\n      0x00\n        /* \"contracts/lottery.sol\":2652:2666  winDenominator */\n      immutable(\"0x57014f1e5f1d53e43fa40624186159531d6372d1ab8f40ec7882845ca66de31d\")\n        /* \"contracts/lottery.sol\":2634:2649  _pseudoRandom() */\n      tag_66\n        /* \"contracts/lottery.sol\":2634:2647  _pseudoRandom */\n      tag_67\n        /* \"contracts/lottery.sol\":2634:2649  _pseudoRandom() */\n      jump\t// in\n    tag_66:\n        /* \"contracts/lottery.sol\":2634:2666  _pseudoRandom() % winDenominator */\n      tag_68\n      swap2\n      swap1\n      tag_69\n      jump\t// in\n    tag_68:\n        /* \"contracts/lottery.sol\":2633:2672  (_pseudoRandom() % winDenominator) == 0 */\n      eq\n        /* \"contracts/lottery.sol\":2621:2673  bool won = ((_pseudoRandom() % winDenominator) == 0) */\n      swap1\n      pop\n        /* \"contracts/lottery.sol\":2684:2698  uint256 reward */\n      0x00\n        /* \"contracts/lottery.sol\":2701:2702  0 */\n      0x00\n        /* \"contracts/lottery.sol\":2684:2702  uint256 reward = 0 */\n      swap1\n      pop\n        /* \"contracts/lottery.sol\":2719:2722  won */\n      dup2\n        /* \"contracts/lottery.sol\":2715:3039  if (won) {... */\n      iszero\n      tag_70\n      jumpi\n        /* \"contracts/lottery.sol\":2739:2761  uint256 currentBalance */\n      0x00\n        /* \"contracts/lottery.sol\":2764:2785  contractBalanceBefore */\n      dup6\n        /* \"contracts/lottery.sol\":2739:2785  uint256 currentBalance = contractBalanceBefore */\n      swap1\n      pop\n        /* \"contracts/lottery.sol\":2849:2852  100 */\n      0x64\n        /* \"contracts/lottery.sol\":2827:2845  payoutPercentOnWin */\n      immutable(\"0xf1ae7da53f98170be52cc9330214a82f7ba06ee306297b4e1fb86fb21c611aa6\")\n        /* \"contracts/lottery.sol\":2810:2824  currentBalance */\n      dup3\n        /* \"contracts/lottery.sol\":2810:2845  currentBalance * payoutPercentOnWin */\n      tag_71\n      swap2\n      swap1\n      tag_54\n      jump\t// in\n    tag_71:\n        /* \"contracts/lottery.sol\":2809:2852  (currentBalance * payoutPercentOnWin) / 100 */\n      tag_72\n      swap2\n      swap1\n      tag_56\n      jump\t// in\n    tag_72:\n        /* \"contracts/lottery.sol\":2800:2852  reward = (currentBalance * payoutPercentOnWin) / 100 */\n      swap2\n      pop\n        /* \"contracts/lottery.sol\":2882:2883  0 */\n      0x00\n        /* \"contracts/lottery.sol\":2873:2879  reward */\n      dup3\n        /* \"contracts/lottery.sol\":2873:2883  reward > 0 */\n      gt\n        /* \"contracts/lottery.sol\":2869:3028  if (reward > 0) {... */\n      iszero\n      tag_73\n      jumpi\n        /* \"contracts/lottery.sol\":2905:2914  bool sent */\n      0x00\n        /* \"contracts/lottery.sol\":2928:2938  msg.sender */\n      caller\n        /* \"contracts/lottery.sol\":2920:2944  payable(msg.sender).call */\n      0xffffffffffffffffffffffffffffffffffffffff\n      and\n        /* \"contracts/lottery.sol\":2952:2958  reward */\n      dup4\n        /* \"contracts/lottery.sol\":2920:2963  payable(msg.sender).call{value: reward}(\"\") */\n      mload(0x40)\n      tag_74\n      swap1\n      tag_58\n      jump\t// in\n    tag_74:\n      0x00\n      mload(0x40)\n      dup1\n      dup4\n      sub\n      dup2\n      dup6\n      dup8\n      gas\n      call\n      swap3\n      pop\n      pop\n      pop\n      returndatasize\n      dup1\n      0x00\n      dup2\n      eq\n      tag_77\n      jumpi\n      mload(0x40)\n      swap2\n      pop\n      and(add(returndatasize, 0x3f), not(0x1f))\n      dup3\n      add\n      0x40\n      mstore\n      returndatasize\n      dup3\n      mstore\n      returndatasize\n      0x00\n      0x20\n      dup5\n      add\n      returndatacopy\n      jump(tag_76)\n    tag_77:\n      0x60\n      swap2\n      pop\n    tag_76:\n      pop\n        /* \"contracts/lottery.sol\":2904:2963  (bool sent, ) = payable(msg.sender).call{value: reward}(\"\") */\n      pop\n      swap1\n      pop\n        /* \"contracts/lottery.sol\":2990:2994  sent */\n      dup1\n        /* \"contracts/lottery.sol\":2982:3012  require(sent, \"payout failed\") */\n      tag_78\n      jumpi\n      mload(0x40)\n      0x08c379a000000000000000000000000000000000000000000000000000000000\n      dup2\n      mstore\n      0x04\n      add\n      tag_79\n      swap1\n      tag_80\n      jump\t// in\n    tag_79:\n      mload(0x40)\n      dup1\n      swap2\n      sub\n      swap1\n      revert\n    tag_78:\n        /* \"contracts/lottery.sol\":2885:3028  {... */\n      pop\n        /* \"contracts/lottery.sol\":2869:3028  if (reward > 0) {... */\n    tag_73:\n        /* \"contracts/lottery.sol\":2724:3039  {... */\n      pop\n        /* \"contracts/lottery.sol\":2715:3039  if (won) {... */\n    tag_70:\n        /* \"contracts/lottery.sol\":3063:3073  msg.sender */\n      caller\n        /* \"contracts/lottery.sol\":3056:3110  Played(msg.sender, won, reward, contractBalanceBefore) */\n      0xffffffffffffffffffffffffffffffffffffffff\n      and\n      0x4778375dc18e35ec254dc16d82f813b7d3d37983039aad279f5970808a881744\n        /* \"contracts/lottery.sol\":3075:3078  won */\n      dup4\n        /* \"contracts/lottery.sol\":3080:3086  reward */\n      dup4\n        /* \"contracts/lottery.sol\":3088:3109  contractBalanceBefore */\n      dup9\n        /* \"contracts/lottery.sol\":3056:3110  Played(msg.sender, won, reward, contractBalanceBefore) */\n      mload(0x40)\n      tag_81\n      swap4\n      swap3\n      swap2\n      swap1\n      tag_82\n      jump\t// in\n    tag_81:\n      mload(0x40)\n      dup1\n      swap2\n      sub\n      swap1\n      log2\n        /* \"contracts/lottery.sol\":2242:3118  {... */\n      pop\n      pop\n      pop\n      pop\n      pop\n        /* \"@openzeppelin/contracts/security/ReentrancyGuard.sol\":2303:2323  _nonReentrantAfter() */\n      tag_83\n        /* \"@openzeppelin/contracts/security/ReentrancyGuard.sol\":2303:2321  _nonReentrantAfter */\n      tag_84\n        /* \"@openzeppelin/contracts/security/ReentrancyGuard.sol\":2303:2323  _nonReentrantAfter() */\n      jump\t// in\n    tag_83:\n        /* \"contracts/lottery.sol\":2196:3118  function play() external payable nonReentrant {... */\n      jump\t// out\n        /* \"contracts/lottery.sol\":1956:2097  function deposit() external payable {... */\n    tag_35:\n        /* \"contracts/lottery.sol\":2023:2024  0 */\n      0x00\n        /* \"contracts/lottery.sol\":2011:2020  msg.value */\n      callvalue\n        /* \"contracts/lottery.sol\":2011:2024  msg.value > 0 */\n      gt\n        /* \"contracts/lottery.sol\":2003:2041  require(msg.value > 0, \"zero deposit\") */\n      tag_86\n      jumpi\n      mload(0x40)\n      0x08c379a000000000000000000000000000000000000000000000000000000000\n      dup2\n      mstore\n      0x04\n      add\n      tag_87\n      swap1\n      tag_88\n      jump\t// in\n    tag_87:\n      mload(0x40)\n      dup1\n      swap2\n      sub\n      swap1\n      revert\n    tag_86:\n        /* \"contracts/lottery.sol\":2067:2077  msg.sender */\n      caller\n        /* \"contracts/lottery.sol\":2057:2089  Deposited(msg.sender, msg.value) */\n      0xffffffffffffffffffffffffffffffffffffffff\n      and\n      0x2da466a7b24304f47e87fa2e1e5a81b9831ce54fec19055ce277ca2f39ba42c4\n        /* \"contracts/lottery.sol\":2079:2088  msg.value */\n      callvalue\n        /* \"contracts/lottery.sol\":2057:2089  Deposited(msg.sender, msg.value) */\n      mload(0x40)\n      tag_89\n      swap2\n      swap1\n      tag_15\n      jump\t// in\n    tag_89:\n      mload(0x40)\n      dup1\n      swap2\n      sub\n      swap1\n      log2\n        /* \"contracts/lottery.sol\":1956:2097  function deposit() external payable {... */\n      jump\t// out\n        /* \"contracts/lottery.sol\":540:579  uint256 public immutable winDenominator */\n    tag_38:\n      immutable(\"0x57014f1e5f1d53e43fa40624186159531d6372d1ab8f40ec7882845ca66de31d\")\n      dup2\n      jump\t// out\n        /* \"contracts/lottery.sol\":855:954  address payable public constant FEE_RECIPIENT = payable(0x5B38Da6a701c568545dCfcB03FcB875f56beddC4) */\n    tag_42:\n        /* \"contracts/lottery.sol\":911:953  0x5B38Da6a701c568545dCfcB03FcB875f56beddC4 */\n      0x5b38da6a701c568545dcfcb03fcb875f56beddc4\n        /* \"contracts/lottery.sol\":855:954  address payable public constant FEE_RECIPIENT = payable(0x5B38Da6a701c568545dCfcB03FcB875f56beddC4) */\n      dup2\n      jump\t// out\n        /* \"@openzeppelin/contracts/security/ReentrancyGuard.sol\":2336:2623  function _nonReentrantBefore() private {... */\n    tag_48:\n        /* \"@openzeppelin/contracts/security/ReentrancyGuard.sol\":1759:1760  2 */\n      0x02\n        /* \"@openzeppelin/contracts/security/ReentrancyGuard.sol\":2468:2475  _status */\n      sload(0x00)\n        /* \"@openzeppelin/contracts/security/ReentrancyGuard.sol\":2468:2487  _status != _ENTERED */\n      sub\n        /* \"@openzeppelin/contracts/security/ReentrancyGuard.sol\":2460:2523  require(_status != _ENTERED, \"ReentrancyGuard: reentrant call\") */\n      tag_91\n      jumpi\n      mload(0x40)\n      0x08c379a000000000000000000000000000000000000000000000000000000000\n      dup2\n      mstore\n      0x04\n      add\n      tag_92\n      swap1\n      tag_93\n      jump\t// in\n    tag_92:\n      mload(0x40)\n      dup1\n      swap2\n      sub\n      swap1\n      revert\n    tag_91:\n        /* \"@openzeppelin/contracts/security/ReentrancyGuard.sol\":1759:1760  2 */\n      0x02\n        /* \"@openzeppelin/contracts/security/ReentrancyGuard.sol\":2598:2605  _status */\n      0x00\n        /* \"@openzeppelin/contracts/security/ReentrancyGuard.sol\":2598:2616  _status = _ENTERED */\n      dup2\n      swap1\n      sstore\n      pop\n        /* \"@openzeppelin/contracts/security/ReentrancyGuard.sol\":2336:2623  function _nonReentrantBefore() private {... */\n      jump\t// out\n        /* \"contracts/lottery.sol\":3145:3345  function _pseudoRandom() internal returns (uint256) {... */\n    tag_67:\n        /* \"contracts/lottery.sol\":3188:3195  uint256 */\n      0x00\n        /* \"contracts/lottery.sol\":3220:3225  nonce */\n      0x01\n      0x00\n        /* \"contracts/lottery.sol\":3220:3227  nonce++ */\n      dup2\n      sload\n      dup1\n      swap3\n      swap2\n      swap1\n      0x01\n      add\n      swap2\n      swap1\n      pop\n      sstore\n      pop\n        /* \"contracts/lottery.sol\":3282:3297  block.timestamp */\n      timestamp\n        /* \"contracts/lottery.sol\":3299:3315  block.difficulty */\n      prevrandao\n        /* \"contracts/lottery.sol\":3317:3327  msg.sender */\n      caller\n        /* \"contracts/lottery.sol\":3329:3334  nonce */\n      sload(0x01)\n        /* \"contracts/lottery.sol\":3265:3335  abi.encodePacked(block.timestamp, block.difficulty, msg.sender, nonce) */\n      add(0x20, mload(0x40))\n      tag_95\n      swap5\n      swap4\n      swap3\n      swap2\n      swap1\n      tag_96\n      jump\t// in\n    tag_95:\n      mload(0x40)\n      0x20\n      dup2\n      dup4\n      sub\n      sub\n      dup2\n      mstore\n      swap1\n      0x40\n      mstore\n        /* \"contracts/lottery.sol\":3255:3336  keccak256(abi.encodePacked(block.timestamp, block.difficulty, msg.sender, nonce)) */\n      dup1\n      mload\n      swap1\n      0x20\n      add\n      keccak256\n        /* \"contracts/lottery.sol\":3247:3337  uint256(keccak256(abi.encodePacked(block.timestamp, block.difficulty, msg.sender, nonce))) */\n      0x00\n      shr\n        /* \"contracts/lottery.sol\":3240:3337  return uint256(keccak256(abi.encodePacked(block.timestamp, block.difficulty, msg.sender, nonce))) */\n      swap1\n      pop\n        /* \"contracts/lottery.sol\":3145:3345  function _pseudoRandom() internal returns (uint256) {... */\n      swap1\n      jump\t// out\n        /* \"@openzeppelin/contracts/security/ReentrancyGuard.sol\":2629:2838  function _nonReentrantAfter() private {... */\n    tag_84:\n        /* \"@openzeppelin/contracts/security/ReentrancyGuard.sol\":1716:1717  1 */\n      0x01\n        /* \"@openzeppelin/contracts/security/ReentrancyGuard.sol\":2809:2816  _status */\n      0x00\n        /* \"@openzeppelin/contracts/security/ReentrancyGuard.sol\":2809:2831  _status = _NOT_ENTERED */\n      dup2\n      swap1\n      sstore\n      pop\n        /* \"@openzeppelin/contracts/security/ReentrancyGuard.sol\":2629:2838  function _nonReentrantAfter() private {... */\n      jump\t// out\n        /* \"#utility.yul\":7:84   */\n    tag_98:\n        /* \"#utility.yul\":44:51   */\n      0x00\n        /* \"#utility.yul\":73:78   */\n      dup2\n        /* \"#utility.yul\":62:78   */\n      swap1\n      pop\n        /* \"#utility.yul\":7:84   */\n      swap2\n      swap1\n      pop\n      jump\t// out\n        /* \"#utility.yul\":90:208   */\n    tag_99:\n        /* \"#utility.yul\":177:201   */\n      tag_131\n        /* \"#utility.yul\":195:200   */\n      dup2\n        /* \"#utility.yul\":177:201   */\n      tag_98\n      jump\t// in\n    tag_131:\n        /* \"#utility.yul\":172:175   */\n      dup3\n        /* \"#utility.yul\":165:202   */\n      mstore\n        /* \"#utility.yul\":90:208   */\n      pop\n      pop\n      jump\t// out\n        /* \"#utility.yul\":214:436   */\n    tag_15:\n        /* \"#utility.yul\":307:311   */\n      0x00\n        /* \"#utility.yul\":345:347   */\n      0x20\n        /* \"#utility.yul\":334:343   */\n      dup3\n        /* \"#utility.yul\":330:348   */\n      add\n        /* \"#utility.yul\":322:348   */\n      swap1\n      pop\n        /* \"#utility.yul\":358:429   */\n      tag_133\n        /* \"#utility.yul\":426:427   */\n      0x00\n        /* \"#utility.yul\":415:424   */\n      dup4\n        /* \"#utility.yul\":411:428   */\n      add\n        /* \"#utility.yul\":402:408   */\n      dup5\n        /* \"#utility.yul\":358:429   */\n      tag_99\n      jump\t// in\n    tag_133:\n        /* \"#utility.yul\":214:436   */\n      swap3\n      swap2\n      pop\n      pop\n      jump\t// out\n        /* \"#utility.yul\":442:568   */\n    tag_100:\n        /* \"#utility.yul\":479:486   */\n      0x00\n        /* \"#utility.yul\":519:561   */\n      0xffffffffffffffffffffffffffffffffffffffff\n        /* \"#utility.yul\":512:517   */\n      dup3\n        /* \"#utility.yul\":508:562   */\n      and\n        /* \"#utility.yul\":497:562   */\n      swap1\n      pop\n        /* \"#utility.yul\":442:568   */\n      swap2\n      swap1\n      pop\n      jump\t// out\n        /* \"#utility.yul\":574:678   */\n    tag_101:\n        /* \"#utility.yul\":619:626   */\n      0x00\n        /* \"#utility.yul\":648:672   */\n      tag_136\n        /* \"#utility.yul\":666:671   */\n      dup3\n        /* \"#utility.yul\":648:672   */\n      tag_100\n      jump\t// in\n    tag_136:\n        /* \"#utility.yul\":637:672   */\n      swap1\n      pop\n        /* \"#utility.yul\":574:678   */\n      swap2\n      swap1\n      pop\n      jump\t// out\n        /* \"#utility.yul\":684:826   */\n    tag_102:\n        /* \"#utility.yul\":787:819   */\n      tag_138\n        /* \"#utility.yul\":813:818   */\n      dup2\n        /* \"#utility.yul\":787:819   */\n      tag_101\n      jump\t// in\n    tag_138:\n        /* \"#utility.yul\":782:785   */\n      dup3\n        /* \"#utility.yul\":775:820   */\n      mstore\n        /* \"#utility.yul\":684:826   */\n      pop\n      pop\n      jump\t// out\n        /* \"#utility.yul\":832:1086   */\n    tag_44:\n        /* \"#utility.yul\":941:945   */\n      0x00\n        /* \"#utility.yul\":979:981   */\n      0x20\n        /* \"#utility.yul\":968:977   */\n      dup3\n        /* \"#utility.yul\":964:982   */\n      add\n        /* \"#utility.yul\":956:982   */\n      swap1\n      pop\n        /* \"#utility.yul\":992:1079   */\n      tag_140\n        /* \"#utility.yul\":1076:1077   */\n      0x00\n        /* \"#utility.yul\":1065:1074   */\n      dup4\n        /* \"#utility.yul\":1061:1078   */\n      add\n        /* \"#utility.yul\":1052:1058   */\n      dup5\n        /* \"#utility.yul\":992:1079   */\n      tag_102\n      jump\t// in\n    tag_140:\n        /* \"#utility.yul\":832:1086   */\n      swap3\n      swap2\n      pop\n      pop\n      jump\t// out\n        /* \"#utility.yul\":1092:1261   */\n    tag_103:\n        /* \"#utility.yul\":1176:1187   */\n      0x00\n        /* \"#utility.yul\":1210:1216   */\n      dup3\n        /* \"#utility.yul\":1205:1208   */\n      dup3\n        /* \"#utility.yul\":1198:1217   */\n      mstore\n        /* \"#utility.yul\":1250:1254   */\n      0x20\n        /* \"#utility.yul\":1245:1248   */\n      dup3\n        /* \"#utility.yul\":1241:1255   */\n      add\n        /* \"#utility.yul\":1226:1255   */\n      swap1\n      pop\n        /* \"#utility.yul\":1092:1261   */\n      swap3\n      swap2\n      pop\n      pop\n      jump\t// out\n        /* \"#utility.yul\":1267:1441   */\n    tag_104:\n        /* \"#utility.yul\":1407:1433   */\n      0x73656e64206578616374207469636b657420616d6f756e740000000000000000\n        /* \"#utility.yul\":1403:1404   */\n      0x00\n        /* \"#utility.yul\":1395:1401   */\n      dup3\n        /* \"#utility.yul\":1391:1405   */\n      add\n        /* \"#utility.yul\":1384:1434   */\n      mstore\n        /* \"#utility.yul\":1267:1441   */\n      pop\n      jump\t// out\n        /* \"#utility.yul\":1447:1813   */\n    tag_105:\n        /* \"#utility.yul\":1589:1592   */\n      0x00\n        /* \"#utility.yul\":1610:1677   */\n      tag_144\n        /* \"#utility.yul\":1674:1676   */\n      0x18\n        /* \"#utility.yul\":1669:1672   */\n      dup4\n        /* \"#utility.yul\":1610:1677   */\n      tag_103\n      jump\t// in\n    tag_144:\n        /* \"#utility.yul\":1603:1677   */\n      swap2\n      pop\n        /* \"#utility.yul\":1686:1779   */\n      tag_145\n        /* \"#utility.yul\":1775:1778   */\n      dup3\n        /* \"#utility.yul\":1686:1779   */\n      tag_104\n      jump\t// in\n    tag_145:\n        /* \"#utility.yul\":1804:1806   */\n      0x20\n        /* \"#utility.yul\":1799:1802   */\n      dup3\n        /* \"#utility.yul\":1795:1807   */\n      add\n        /* \"#utility.yul\":1788:1807   */\n      swap1\n      pop\n        /* \"#utility.yul\":1447:1813   */\n      swap2\n      swap1\n      pop\n      jump\t// out\n        /* \"#utility.yul\":1819:2238   */\n    tag_52:\n        /* \"#utility.yul\":1985:1989   */\n      0x00\n        /* \"#utility.yul\":2023:2025   */\n      0x20\n        /* \"#utility.yul\":2012:2021   */\n      dup3\n        /* \"#utility.yul\":2008:2026   */\n      add\n        /* \"#utility.yul\":2000:2026   */\n      swap1\n      pop\n        /* \"#utility.yul\":2072:2081   */\n      dup2\n        /* \"#utility.yul\":2066:2070   */\n      dup2\n        /* \"#utility.yul\":2062:2082   */\n      sub\n        /* \"#utility.yul\":2058:2059   */\n      0x00\n        /* \"#utility.yul\":2047:2056   */\n      dup4\n        /* \"#utility.yul\":2043:2060   */\n      add\n        /* \"#utility.yul\":2036:2083   */\n      mstore\n        /* \"#utility.yul\":2100:2231   */\n      tag_147\n        /* \"#utility.yul\":2226:2230   */\n      dup2\n        /* \"#utility.yul\":2100:2231   */\n      tag_105\n      jump\t// in\n    tag_147:\n        /* \"#utility.yul\":2092:2231   */\n      swap1\n      pop\n        /* \"#utility.yul\":1819:2238   */\n      swap2\n      swap1\n      pop\n      jump\t// out\n        /* \"#utility.yul\":2244:2424   */\n    tag_106:\n        /* \"#utility.yul\":2292:2369   */\n      0x4e487b7100000000000000000000000000000000000000000000000000000000\n        /* \"#utility.yul\":2289:2290   */\n      0x00\n        /* \"#utility.yul\":2282:2370   */\n      mstore\n        /* \"#utility.yul\":2389:2393   */\n      0x11\n        /* \"#utility.yul\":2386:2387   */\n      0x04\n        /* \"#utility.yul\":2379:2394   */\n      mstore\n        /* \"#utility.yul\":2413:2417   */\n      0x24\n        /* \"#utility.yul\":2410:2411   */\n      0x00\n        /* \"#utility.yul\":2403:2418   */\n      revert\n        /* \"#utility.yul\":2430:2840   */\n    tag_54:\n        /* \"#utility.yul\":2470:2477   */\n      0x00\n        /* \"#utility.yul\":2493:2513   */\n      tag_150\n        /* \"#utility.yul\":2511:2512   */\n      dup3\n        /* \"#utility.yul\":2493:2513   */\n      tag_98\n      jump\t// in\n    tag_150:\n        /* \"#utility.yul\":2488:2513   */\n      swap2\n      pop\n        /* \"#utility.yul\":2527:2547   */\n      tag_151\n        /* \"#utility.yul\":2545:2546   */\n      dup4\n        /* \"#utility.yul\":2527:2547   */\n      tag_98\n      jump\t// in\n    tag_151:\n        /* \"#utility.yul\":2522:2547   */\n      swap3\n      pop\n        /* \"#utility.yul\":2582:2583   */\n      dup3\n        /* \"#utility.yul\":2579:2580   */\n      dup3\n        /* \"#utility.yul\":2575:2584   */\n      mul\n        /* \"#utility.yul\":2604:2634   */\n      tag_152\n        /* \"#utility.yul\":2622:2633   */\n      dup2\n        /* \"#utility.yul\":2604:2634   */\n      tag_98\n      jump\t// in\n    tag_152:\n        /* \"#utility.yul\":2593:2634   */\n      swap2\n      pop\n        /* \"#utility.yul\":2783:2784   */\n      dup3\n        /* \"#utility.yul\":2774:2781   */\n      dup3\n        /* \"#utility.yul\":2770:2785   */\n      div\n        /* \"#utility.yul\":2767:2768   */\n      dup5\n        /* \"#utility.yul\":2764:2786   */\n      eq\n        /* \"#utility.yul\":2744:2745   */\n      dup4\n        /* \"#utility.yul\":2737:2746   */\n      iszero\n        /* \"#utility.yul\":2717:2800   */\n      or\n        /* \"#utility.yul\":2694:2833   */\n      tag_153\n      jumpi\n        /* \"#utility.yul\":2813:2831   */\n      tag_154\n      tag_106\n      jump\t// in\n    tag_154:\n        /* \"#utility.yul\":2694:2833   */\n    tag_153:\n        /* \"#utility.yul\":2478:2840   */\n      pop\n        /* \"#utility.yul\":2430:2840   */\n      swap3\n      swap2\n      pop\n      pop\n      jump\t// out\n        /* \"#utility.yul\":2846:3026   */\n    tag_107:\n        /* \"#utility.yul\":2894:2971   */\n      0x4e487b7100000000000000000000000000000000000000000000000000000000\n        /* \"#utility.yul\":2891:2892   */\n      0x00\n        /* \"#utility.yul\":2884:2972   */\n      mstore\n        /* \"#utility.yul\":2991:2995   */\n      0x12\n        /* \"#utility.yul\":2988:2989   */\n      0x04\n        /* \"#utility.yul\":2981:2996   */\n      mstore\n        /* \"#utility.yul\":3015:3019   */\n      0x24\n        /* \"#utility.yul\":3012:3013   */\n      0x00\n        /* \"#utility.yul\":3005:3020   */\n      revert\n        /* \"#utility.yul\":3032:3217   */\n    tag_56:\n        /* \"#utility.yul\":3072:3073   */\n      0x00\n        /* \"#utility.yul\":3089:3109   */\n      tag_157\n        /* \"#utility.yul\":3107:3108   */\n      dup3\n        /* \"#utility.yul\":3089:3109   */\n      tag_98\n      jump\t// in\n    tag_157:\n        /* \"#utility.yul\":3084:3109   */\n      swap2\n      pop\n        /* \"#utility.yul\":3123:3143   */\n      tag_158\n        /* \"#utility.yul\":3141:3142   */\n      dup4\n        /* \"#utility.yul\":3123:3143   */\n      tag_98\n      jump\t// in\n    tag_158:\n        /* \"#utility.yul\":3118:3143   */\n      swap3\n      pop\n        /* \"#utility.yul\":3162:3163   */\n      dup3\n        /* \"#utility.yul\":3152:3187   */\n      tag_159\n      jumpi\n        /* \"#utility.yul\":3167:3185   */\n      tag_160\n      tag_107\n      jump\t// in\n    tag_160:\n        /* \"#utility.yul\":3152:3187   */\n    tag_159:\n        /* \"#utility.yul\":3209:3210   */\n      dup3\n        /* \"#utility.yul\":3206:3207   */\n      dup3\n        /* \"#utility.yul\":3202:3211   */\n      div\n        /* \"#utility.yul\":3197:3211   */\n      swap1\n      pop\n        /* \"#utility.yul\":3032:3217   */\n      swap3\n      swap2\n      pop\n      pop\n      jump\t// out\n        /* \"#utility.yul\":3223:3370   */\n    tag_108:\n        /* \"#utility.yul\":3324:3335   */\n      0x00\n        /* \"#utility.yul\":3361:3364   */\n      dup2\n        /* \"#utility.yul\":3346:3364   */\n      swap1\n      pop\n        /* \"#utility.yul\":3223:3370   */\n      swap3\n      swap2\n      pop\n      pop\n      jump\t// out\n        /* \"#utility.yul\":3376:3490   */\n    tag_109:\n      pop\n      jump\t// out\n        /* \"#utility.yul\":3496:3894   */\n    tag_110:\n        /* \"#utility.yul\":3655:3658   */\n      0x00\n        /* \"#utility.yul\":3676:3759   */\n      tag_164\n        /* \"#utility.yul\":3757:3758   */\n      0x00\n        /* \"#utility.yul\":3752:3755   */\n      dup4\n        /* \"#utility.yul\":3676:3759   */\n      tag_108\n      jump\t// in\n    tag_164:\n        /* \"#utility.yul\":3669:3759   */\n      swap2\n      pop\n        /* \"#utility.yul\":3768:3861   */\n      tag_165\n        /* \"#utility.yul\":3857:3860   */\n      dup3\n        /* \"#utility.yul\":3768:3861   */\n      tag_109\n      jump\t// in\n    tag_165:\n        /* \"#utility.yul\":3886:3887   */\n      0x00\n        /* \"#utility.yul\":3881:3884   */\n      dup3\n        /* \"#utility.yul\":3877:3888   */\n      add\n        /* \"#utility.yul\":3870:3888   */\n      swap1\n      pop\n        /* \"#utility.yul\":3496:3894   */\n      swap2\n      swap1\n      pop\n      jump\t// out\n        /* \"#utility.yul\":3900:4279   */\n    tag_58:\n        /* \"#utility.yul\":4084:4087   */\n      0x00\n        /* \"#utility.yul\":4106:4253   */\n      tag_167\n        /* \"#utility.yul\":4249:4252   */\n      dup3\n        /* \"#utility.yul\":4106:4253   */\n      tag_110\n      jump\t// in\n    tag_167:\n        /* \"#utility.yul\":4099:4253   */\n      swap2\n      pop\n        /* \"#utility.yul\":4270:4273   */\n      dup2\n        /* \"#utility.yul\":4263:4273   */\n      swap1\n      pop\n        /* \"#utility.yul\":3900:4279   */\n      swap2\n      swap1\n      pop\n      jump\t// out\n        /* \"#utility.yul\":4285:4454   */\n    tag_111:\n        /* \"#utility.yul\":4425:4446   */\n      0x666565207472616e73666572206661696c656400000000000000000000000000\n        /* \"#utility.yul\":4421:4422   */\n      0x00\n        /* \"#utility.yul\":4413:4419   */\n      dup3\n        /* \"#utility.yul\":4409:4423   */\n      add\n        /* \"#utility.yul\":4402:4447   */\n      mstore\n        /* \"#utility.yul\":4285:4454   */\n      pop\n      jump\t// out\n        /* \"#utility.yul\":4460:4826   */\n    tag_112:\n        /* \"#utility.yul\":4602:4605   */\n      0x00\n        /* \"#utility.yul\":4623:4690   */\n      tag_170\n        /* \"#utility.yul\":4687:4689   */\n      0x13\n        /* \"#utility.yul\":4682:4685   */\n      dup4\n        /* \"#utility.yul\":4623:4690   */\n      tag_103\n      jump\t// in\n    tag_170:\n        /* \"#utility.yul\":4616:4690   */\n      swap2\n      pop\n        /* \"#utility.yul\":4699:4792   */\n      tag_171\n        /* \"#utility.yul\":4788:4791   */\n      dup3\n        /* \"#utility.yul\":4699:4792   */\n      tag_111\n      jump\t// in\n    tag_171:\n        /* \"#utility.yul\":4817:4819   */\n      0x20\n        /* \"#utility.yul\":4812:4815   */\n      dup3\n        /* \"#utility.yul\":4808:4820   */\n      add\n        /* \"#utility.yul\":4801:4820   */\n      swap1\n      pop\n        /* \"#utility.yul\":4460:4826   */\n      swap2\n      swap1\n      pop\n      jump\t// out\n        /* \"#utility.yul\":4832:5251   */\n    tag_64:\n        /* \"#utility.yul\":4998:5002   */\n      0x00\n        /* \"#utility.yul\":5036:5038   */\n      0x20\n        /* \"#utility.yul\":5025:5034   */\n      dup3\n        /* \"#utility.yul\":5021:5039   */\n      add\n        /* \"#utility.yul\":5013:5039   */\n      swap1\n      pop\n        /* \"#utility.yul\":5085:5094   */\n      dup2\n        /* \"#utility.yul\":5079:5083   */\n      dup2\n        /* \"#utility.yul\":5075:5095   */\n      sub\n        /* \"#utility.yul\":5071:5072   */\n      0x00\n        /* \"#utility.yul\":5060:5069   */\n      dup4\n        /* \"#utility.yul\":5056:5073   */\n      add\n        /* \"#utility.yul\":5049:5096   */\n      mstore\n        /* \"#utility.yul\":5113:5244   */\n      tag_173\n        /* \"#utility.yul\":5239:5243   */\n      dup2\n        /* \"#utility.yul\":5113:5244   */\n      tag_112\n      jump\t// in\n    tag_173:\n        /* \"#utility.yul\":5105:5244   */\n      swap1\n      pop\n        /* \"#utility.yul\":4832:5251   */\n      swap2\n      swap1\n      pop\n      jump\t// out\n        /* \"#utility.yul\":5257:5433   */\n    tag_69:\n        /* \"#utility.yul\":5289:5290   */\n      0x00\n        /* \"#utility.yul\":5306:5326   */\n      tag_175\n        /* \"#utility.yul\":5324:5325   */\n      dup3\n        /* \"#utility.yul\":5306:5326   */\n      tag_98\n      jump\t// in\n    tag_175:\n        /* \"#utility.yul\":5301:5326   */\n      swap2\n      pop\n        /* \"#utility.yul\":5340:5360   */\n      tag_176\n        /* \"#utility.yul\":5358:5359   */\n      dup4\n        /* \"#utility.yul\":5340:5360   */\n      tag_98\n      jump\t// in\n    tag_176:\n        /* \"#utility.yul\":5335:5360   */\n      swap3\n      pop\n        /* \"#utility.yul\":5379:5380   */\n      dup3\n        /* \"#utility.yul\":5369:5404   */\n      tag_177\n      jumpi\n        /* \"#utility.yul\":5384:5402   */\n      tag_178\n      tag_107\n      jump\t// in\n    tag_178:\n        /* \"#utility.yul\":5369:5404   */\n    tag_177:\n        /* \"#utility.yul\":5425:5426   */\n      dup3\n        /* \"#utility.yul\":5422:5423   */\n      dup3\n        /* \"#utility.yul\":5418:5427   */\n      mod\n        /* \"#utility.yul\":5413:5427   */\n      swap1\n      pop\n        /* \"#utility.yul\":5257:5433   */\n      swap3\n      swap2\n      pop\n      pop\n      jump\t// out\n        /* \"#utility.yul\":5439:5602   */\n    tag_113:\n        /* \"#utility.yul\":5579:5594   */\n      0x7061796f7574206661696c656400000000000000000000000000000000000000\n        /* \"#utility.yul\":5575:5576   */\n      0x00\n        /* \"#utility.yul\":5567:5573   */\n      dup3\n        /* \"#utility.yul\":5563:5577   */\n      add\n        /* \"#utility.yul\":5556:5595   */\n      mstore\n        /* \"#utility.yul\":5439:5602   */\n      pop\n      jump\t// out\n        /* \"#utility.yul\":5608:5974   */\n    tag_114:\n        /* \"#utility.yul\":5750:5753   */\n      0x00\n        /* \"#utility.yul\":5771:5838   */\n      tag_181\n        /* \"#utility.yul\":5835:5837   */\n      0x0d\n        /* \"#utility.yul\":5830:5833   */\n      dup4\n        /* \"#utility.yul\":5771:5838   */\n      tag_103\n      jump\t// in\n    tag_181:\n        /* \"#utility.yul\":5764:5838   */\n      swap2\n      pop\n        /* \"#utility.yul\":5847:5940   */\n      tag_182\n        /* \"#utility.yul\":5936:5939   */\n      dup3\n        /* \"#utility.yul\":5847:5940   */\n      tag_113\n      jump\t// in\n    tag_182:\n        /* \"#utility.yul\":5965:5967   */\n      0x20\n        /* \"#utility.yul\":5960:5963   */\n      dup3\n        /* \"#utility.yul\":5956:5968   */\n      add\n        /* \"#utility.yul\":5949:5968   */\n      swap1\n      pop\n        /* \"#utility.yul\":5608:5974   */\n      swap2\n      swap1\n      pop\n      jump\t// out\n        /* \"#utility.yul\":5980:6399   */\n    tag_80:\n        /* \"#utility.yul\":6146:6150   */\n      0x00\n        /* \"#utility.yul\":6184:6186   */\n      0x20\n        /* \"#utility.yul\":6173:6182   */\n      dup3\n        /* \"#utility.yul\":6169:6187   */\n      add\n        /* \"#utility.yul\":6161:6187   */\n      swap1\n      pop\n        /* \"#utility.yul\":6233:6242   */\n      dup2\n        /* \"#utility.yul\":6227:6231   */\n      dup2\n        /* \"#utility.yul\":6223:6243   */\n      sub\n        /* \"#utility.yul\":6219:6220   */\n      0x00\n        /* \"#utility.yul\":6208:6217   */\n      dup4\n        /* \"#utility.yul\":6204:6221   */\n      add\n        /* \"#utility.yul\":6197:6244   */\n      mstore\n        /* \"#utility.yul\":6261:6392   */\n      tag_184\n        /* \"#utility.yul\":6387:6391   */\n      dup2\n        /* \"#utility.yul\":6261:6392   */\n      tag_114\n      jump\t// in\n    tag_184:\n        /* \"#utility.yul\":6253:6392   */\n      swap1\n      pop\n        /* \"#utility.yul\":5980:6399   */\n      swap2\n      swap1\n      pop\n      jump\t// out\n        /* \"#utility.yul\":6405:6495   */\n    tag_115:\n        /* \"#utility.yul\":6439:6446   */\n      0x00\n        /* \"#utility.yul\":6482:6487   */\n      dup2\n        /* \"#utility.yul\":6475:6488   */\n      iszero\n        /* \"#utility.yul\":6468:6489   */\n      iszero\n        /* \"#utility.yul\":6457:6489   */\n      swap1\n      pop\n        /* \"#utility.yul\":6405:6495   */\n      swap2\n      swap1\n      pop\n      jump\t// out\n        /* \"#utility.yul\":6501:6610   */\n    tag_116:\n        /* \"#utility.yul\":6582:6603   */\n      tag_187\n        /* \"#utility.yul\":6597:6602   */\n      dup2\n        /* \"#utility.yul\":6582:6603   */\n      tag_115\n      jump\t// in\n    tag_187:\n        /* \"#utility.yul\":6577:6580   */\n      dup3\n        /* \"#utility.yul\":6570:6604   */\n      mstore\n        /* \"#utility.yul\":6501:6610   */\n      pop\n      pop\n      jump\t// out\n        /* \"#utility.yul\":6616:7046   */\n    tag_82:\n        /* \"#utility.yul\":6759:6763   */\n      0x00\n        /* \"#utility.yul\":6797:6799   */\n      0x60\n        /* \"#utility.yul\":6786:6795   */\n      dup3\n        /* \"#utility.yul\":6782:6800   */\n      add\n        /* \"#utility.yul\":6774:6800   */\n      swap1\n      pop\n        /* \"#utility.yul\":6810:6875   */\n      tag_189\n        /* \"#utility.yul\":6872:6873   */\n      0x00\n        /* \"#utility.yul\":6861:6870   */\n      dup4\n        /* \"#utility.yul\":6857:6874   */\n      add\n        /* \"#utility.yul\":6848:6854   */\n      dup7\n        /* \"#utility.yul\":6810:6875   */\n      tag_116\n      jump\t// in\n    tag_189:\n        /* \"#utility.yul\":6885:6957   */\n      tag_190\n        /* \"#utility.yul\":6953:6955   */\n      0x20\n        /* \"#utility.yul\":6942:6951   */\n      dup4\n        /* \"#utility.yul\":6938:6956   */\n      add\n        /* \"#utility.yul\":6929:6935   */\n      dup6\n        /* \"#utility.yul\":6885:6957   */\n      tag_99\n      jump\t// in\n    tag_190:\n        /* \"#utility.yul\":6967:7039   */\n      tag_191\n        /* \"#utility.yul\":7035:7037   */\n      0x40\n        /* \"#utility.yul\":7024:7033   */\n      dup4\n        /* \"#utility.yul\":7020:7038   */\n      add\n        /* \"#utility.yul\":7011:7017   */\n      dup5\n        /* \"#utility.yul\":6967:7039   */\n      tag_99\n      jump\t// in\n    tag_191:\n        /* \"#utility.yul\":6616:7046   */\n      swap5\n      swap4\n      pop\n      pop\n      pop\n      pop\n      jump\t// out\n        /* \"#utility.yul\":7052:7214   */\n    tag_117:\n        /* \"#utility.yul\":7192:7206   */\n      0x7a65726f206465706f7369740000000000000000000000000000000000000000\n        /* \"#utility.yul\":7188:7189   */\n      0x00\n        /* \"#utility.yul\":7180:7186   */\n      dup3\n        /* \"#utility.yul\":7176:7190   */\n      add\n        /* \"#utility.yul\":7169:7207   */\n      mstore\n        /* \"#utility.yul\":7052:7214   */\n      pop\n      jump\t// out\n        /* \"#utility.yul\":7220:7586   */\n    tag_118:\n        /* \"#utility.yul\":7362:7365   */\n      0x00\n        /* \"#utility.yul\":7383:7450   */\n      tag_194\n        /* \"#utility.yul\":7447:7449   */\n      0x0c\n        /* \"#utility.yul\":7442:7445   */\n      dup4\n        /* \"#utility.yul\":7383:7450   */\n      tag_103\n      jump\t// in\n    tag_194:\n        /* \"#utility.yul\":7376:7450   */\n      swap2\n      pop\n        /* \"#utility.yul\":7459:7552   */\n      tag_195\n        /* \"#utility.yul\":7548:7551   */\n      dup3\n        /* \"#utility.yul\":7459:7552   */\n      tag_117\n      jump\t// in\n    tag_195:\n        /* \"#utility.yul\":7577:7579   */\n      0x20\n        /* \"#utility.yul\":7572:7575   */\n      dup3\n        /* \"#utility.yul\":7568:7580   */\n      add\n        /* \"#utility.yul\":7561:7580   */\n      swap1\n      pop\n        /* \"#utility.yul\":7220:7586   */\n      swap2\n      swap1\n      pop\n      jump\t// out\n        /* \"#utility.yul\":7592:8011   */\n    tag_88:\n        /* \"#utility.yul\":7758:7762   */\n      0x00\n        /* \"#utility.yul\":7796:7798   */\n      0x20\n        /* \"#utility.yul\":7785:7794   */\n      dup3\n        /* \"#utility.yul\":7781:7799   */\n      add\n        /* \"#utility.yul\":7773:7799   */\n      swap1\n      pop\n        /* \"#utility.yul\":7845:7854   */\n      dup2\n        /* \"#utility.yul\":7839:7843   */\n      dup2\n        /* \"#utility.yul\":7835:7855   */\n      sub\n        /* \"#utility.yul\":7831:7832   */\n      0x00\n        /* \"#utility.yul\":7820:7829   */\n      dup4\n        /* \"#utility.yul\":7816:7833   */\n      add\n        /* \"#utility.yul\":7809:7856   */\n      mstore\n        /* \"#utility.yul\":7873:8004   */\n      tag_197\n        /* \"#utility.yul\":7999:8003   */\n      dup2\n        /* \"#utility.yul\":7873:8004   */\n      tag_118\n      jump\t// in\n    tag_197:\n        /* \"#utility.yul\":7865:8004   */\n      swap1\n      pop\n        /* \"#utility.yul\":7592:8011   */\n      swap2\n      swap1\n      pop\n      jump\t// out\n        /* \"#utility.yul\":8017:8198   */\n    tag_119:\n        /* \"#utility.yul\":8157:8190   */\n      0x5265656e7472616e637947756172643a207265656e7472616e742063616c6c00\n        /* \"#utility.yul\":8153:8154   */\n      0x00\n        /* \"#utility.yul\":8145:8151   */\n      dup3\n        /* \"#utility.yul\":8141:8155   */\n      add\n        /* \"#utility.yul\":8134:8191   */\n      mstore\n        /* \"#utility.yul\":8017:8198   */\n      pop\n      jump\t// out\n        /* \"#utility.yul\":8204:8570   */\n    tag_120:\n        /* \"#utility.yul\":8346:8349   */\n      0x00\n        /* \"#utility.yul\":8367:8434   */\n      tag_200\n        /* \"#utility.yul\":8431:8433   */\n      0x1f\n        /* \"#utility.yul\":8426:8429   */\n      dup4\n        /* \"#utility.yul\":8367:8434   */\n      tag_103\n      jump\t// in\n    tag_200:\n        /* \"#utility.yul\":8360:8434   */\n      swap2\n      pop\n        /* \"#utility.yul\":8443:8536   */\n      tag_201\n        /* \"#utility.yul\":8532:8535   */\n      dup3\n        /* \"#utility.yul\":8443:8536   */\n      tag_119\n      jump\t// in\n    tag_201:\n        /* \"#utility.yul\":8561:8563   */\n      0x20\n        /* \"#utility.yul\":8556:8559   */\n      dup3\n        /* \"#utility.yul\":8552:8564   */\n      add\n        /* \"#utility.yul\":8545:8564   */\n      swap1\n      pop\n        /* \"#utility.yul\":8204:8570   */\n      swap2\n      swap1\n      pop\n      jump\t// out\n        /* \"#utility.yul\":8576:8995   */\n    tag_93:\n        /* \"#utility.yul\":8742:8746   */\n      0x00\n        /* \"#utility.yul\":8780:8782   */\n      0x20\n        /* \"#utility.yul\":8769:8778   */\n      dup3\n        /* \"#utility.yul\":8765:8783   */\n      add\n        /* \"#utility.yul\":8757:8783   */\n      swap1\n      pop\n        /* \"#utility.yul\":8829:8838   */\n      dup2\n        /* \"#utility.yul\":8823:8827   */\n      dup2\n        /* \"#utility.yul\":8819:8839   */\n      sub\n        /* \"#utility.yul\":8815:8816   */\n      0x00\n        /* \"#utility.yul\":8804:8813   */\n      dup4\n        /* \"#utility.yul\":8800:8817   */\n      add\n        /* \"#utility.yul\":8793:8840   */\n      mstore\n        /* \"#utility.yul\":8857:8988   */\n      tag_203\n        /* \"#utility.yul\":8983:8987   */\n      dup2\n        /* \"#utility.yul\":8857:8988   */\n      tag_120\n      jump\t// in\n    tag_203:\n        /* \"#utility.yul\":8849:8988   */\n      swap1\n      pop\n        /* \"#utility.yul\":8576:8995   */\n      swap2\n      swap1\n      pop\n      jump\t// out\n        /* \"#utility.yul\":9001:9080   */\n    tag_121:\n        /* \"#utility.yul\":9040:9047   */\n      0x00\n        /* \"#utility.yul\":9069:9074   */\n      dup2\n        /* \"#utility.yul\":9058:9074   */\n      swap1\n      pop\n        /* \"#utility.yul\":9001:9080   */\n      swap2\n      swap1\n      pop\n      jump\t// out\n        /* \"#utility.yul\":9086:9243   */\n    tag_122:\n        /* \"#utility.yul\":9191:9236   */\n      tag_206\n        /* \"#utility.yul\":9211:9235   */\n      tag_207\n        /* \"#utility.yul\":9229:9234   */\n      dup3\n        /* \"#utility.yul\":9211:9235   */\n      tag_98\n      jump\t// in\n    tag_207:\n        /* \"#utility.yul\":9191:9236   */\n      tag_121\n      jump\t// in\n    tag_206:\n        /* \"#utility.yul\":9186:9189   */\n      dup3\n        /* \"#utility.yul\":9179:9237   */\n      mstore\n        /* \"#utility.yul\":9086:9243   */\n      pop\n      pop\n      jump\t// out\n        /* \"#utility.yul\":9249:9345   */\n    tag_123:\n        /* \"#utility.yul\":9286:9293   */\n      0x00\n        /* \"#utility.yul\":9315:9339   */\n      tag_209\n        /* \"#utility.yul\":9333:9338   */\n      dup3\n        /* \"#utility.yul\":9315:9339   */\n      tag_100\n      jump\t// in\n    tag_209:\n        /* \"#utility.yul\":9304:9339   */\n      swap1\n      pop\n        /* \"#utility.yul\":9249:9345   */\n      swap2\n      swap1\n      pop\n      jump\t// out\n        /* \"#utility.yul\":9351:9445   */\n    tag_124:\n        /* \"#utility.yul\":9384:9392   */\n      0x00\n        /* \"#utility.yul\":9432:9437   */\n      dup2\n        /* \"#utility.yul\":9428:9430   */\n      0x60\n        /* \"#utility.yul\":9424:9438   */\n      shl\n        /* \"#utility.yul\":9403:9438   */\n      swap1\n      pop\n        /* \"#utility.yul\":9351:9445   */\n      swap2\n      swap1\n      pop\n      jump\t// out\n        /* \"#utility.yul\":9451:9545   */\n    tag_125:\n        /* \"#utility.yul\":9490:9497   */\n      0x00\n        /* \"#utility.yul\":9519:9539   */\n      tag_212\n        /* \"#utility.yul\":9533:9538   */\n      dup3\n        /* \"#utility.yul\":9519:9539   */\n      tag_124\n      jump\t// in\n    tag_212:\n        /* \"#utility.yul\":9508:9539   */\n      swap1\n      pop\n        /* \"#utility.yul\":9451:9545   */\n      swap2\n      swap1\n      pop\n      jump\t// out\n        /* \"#utility.yul\":9551:9651   */\n    tag_126:\n        /* \"#utility.yul\":9590:9597   */\n      0x00\n        /* \"#utility.yul\":9619:9645   */\n      tag_214\n        /* \"#utility.yul\":9639:9644   */\n      dup3\n        /* \"#utility.yul\":9619:9645   */\n      tag_125\n      jump\t// in\n    tag_214:\n        /* \"#utility.yul\":9608:9645   */\n      swap1\n      pop\n        /* \"#utility.yul\":9551:9651   */\n      swap2\n      swap1\n      pop\n      jump\t// out\n        /* \"#utility.yul\":9657:9814   */\n    tag_127:\n        /* \"#utility.yul\":9762:9807   */\n      tag_216\n        /* \"#utility.yul\":9782:9806   */\n      tag_217\n        /* \"#utility.yul\":9800:9805   */\n      dup3\n        /* \"#utility.yul\":9782:9806   */\n      tag_123\n      jump\t// in\n    tag_217:\n        /* \"#utility.yul\":9762:9807   */\n      tag_126\n      jump\t// in\n    tag_216:\n        /* \"#utility.yul\":9757:9760   */\n      dup3\n        /* \"#utility.yul\":9750:9808   */\n      mstore\n        /* \"#utility.yul\":9657:9814   */\n      pop\n      pop\n      jump\t// out\n        /* \"#utility.yul\":9820:10499   */\n    tag_96:\n        /* \"#utility.yul\":10016:10019   */\n      0x00\n        /* \"#utility.yul\":10031:10106   */\n      tag_219\n        /* \"#utility.yul\":10102:10105   */\n      dup3\n        /* \"#utility.yul\":10093:10099   */\n      dup8\n        /* \"#utility.yul\":10031:10106   */\n      tag_122\n      jump\t// in\n    tag_219:\n        /* \"#utility.yul\":10131:10133   */\n      0x20\n        /* \"#utility.yul\":10126:10129   */\n      dup3\n        /* \"#utility.yul\":10122:10134   */\n      add\n        /* \"#utility.yul\":10115:10134   */\n      swap2\n      pop\n        /* \"#utility.yul\":10144:10219   */\n      tag_220\n        /* \"#utility.yul\":10215:10218   */\n      dup3\n        /* \"#utility.yul\":10206:10212   */\n      dup7\n        /* \"#utility.yul\":10144:10219   */\n      tag_122\n      jump\t// in\n    tag_220:\n        /* \"#utility.yul\":10244:10246   */\n      0x20\n        /* \"#utility.yul\":10239:10242   */\n      dup3\n        /* \"#utility.yul\":10235:10247   */\n      add\n        /* \"#utility.yul\":10228:10247   */\n      swap2\n      pop\n        /* \"#utility.yul\":10257:10332   */\n      tag_221\n        /* \"#utility.yul\":10328:10331   */\n      dup3\n        /* \"#utility.yul\":10319:10325   */\n      dup6\n        /* \"#utility.yul\":10257:10332   */\n      tag_127\n      jump\t// in\n    tag_221:\n        /* \"#utility.yul\":10357:10359   */\n      0x14\n        /* \"#utility.yul\":10352:10355   */\n      dup3\n        /* \"#utility.yul\":10348:10360   */\n      add\n        /* \"#utility.yul\":10341:10360   */\n      swap2\n      pop\n        /* \"#utility.yul\":10370:10445   */\n      tag_222\n        /* \"#utility.yul\":10441:10444   */\n      dup3\n        /* \"#utility.yul\":10432:10438   */\n      dup5\n        /* \"#utility.yul\":10370:10445   */\n      tag_122\n      jump\t// in\n    tag_222:\n        /* \"#utility.yul\":10470:10472   */\n      0x20\n        /* \"#utility.yul\":10465:10468   */\n      dup3\n        /* \"#utility.yul\":10461:10473   */\n      add\n        /* \"#utility.yul\":10454:10473   */\n      swap2\n      pop\n        /* \"#utility.yul\":10490:10493   */\n      dup2\n        /* \"#utility.yul\":10483:10493   */\n      swap1\n      pop\n        /* \"#utility.yul\":9820:10499   */\n      swap6\n      swap5\n      pop\n      pop\n      pop\n      pop\n      pop\n      jump\t// out\n\n    auxdata: 0xa2646970667358221220ee7dad038428c3640fca449545921d98e1ea0aa13d439d8da5943e62236a29fb64736f6c634300081e0033\n}\n",
				"bytecode": {
					"linkReferences": {},
					"object": "610100604052348015610010575f5ffd5b506040516111763803806111768339818101604052810190610032919061023d565b60015f819055505f841161007b576040517f08c379a0000000000000000000000000000000000000000000000000000000008152600401610072906102fb565b60405180910390fd5b5f83116100bd576040517f08c379a00000000000000000000000000000000000000000000000000000000081526004016100b490610363565b60405180910390fd5b606482111580156100cd57505f82115b61010c576040517f08c379a0000000000000000000000000000000000000000000000000000000008152600401610103906103cb565b60405180910390fd5b6064811115801561011c57505f81115b61015b576040517f08c379a000000000000000000000000000000000000000000000000000000000815260040161015290610433565b60405180910390fd5b5f73ffffffffffffffffffffffffffffffffffffffff16735b38da6a701c568545dcfcb03fcb875f56beddc473ffffffffffffffffffffffffffffffffffffffff16036101dd576040517f08c379a00000000000000000000000000000000000000000000000000000000081526004016101d49061049b565b60405180910390fd5b83608081815250508260a081815250508160c081815250508060e08181525050505050506104b9565b5f5ffd5b5f819050919050565b61021c8161020a565b8114610226575f5ffd5b50565b5f8151905061023781610213565b92915050565b5f5f5f5f6080858703121561025557610254610206565b5b5f61026287828801610229565b945050602061027387828801610229565b935050604061028487828801610229565b925050606061029587828801610229565b91505092959194509250565b5f82825260208201905092915050565b7f7469636b65743e300000000000000000000000000000000000000000000000005f82015250565b5f6102e56008836102a1565b91506102f0826102b1565b602082019050919050565b5f6020820190508181035f830152610312816102d9565b9050919050565b7f64656e6f6d696e61746f723e30000000000000000000000000000000000000005f82015250565b5f61034d600d836102a1565b915061035882610319565b602082019050919050565b5f6020820190508181035f83015261037a81610341565b9050919050565b7f7061796f757425203c3d203130300000000000000000000000000000000000005f82015250565b5f6103b5600e836102a1565b91506103c082610381565b602082019050919050565b5f6020820190508181035f8301526103e2816103a9565b9050919050565b7f66656525203c3d203130300000000000000000000000000000000000000000005f82015250565b5f61041d600b836102a1565b9150610428826103e9565b602082019050919050565b5f6020820190508181035f83015261044a81610411565b9050919050565b7f7365742076616c69642066656520726563697069656e740000000000000000005f82015250565b5f6104856017836102a1565b915061049082610451565b602082019050919050565b5f6020820190508181035f8301526104b281610479565b9050919050565b60805160a05160c05160e051610c6761050f5f395f818161023101526102cd01525f818161020d015261048b01525f8181610445015261066a01525f81816101e90152818161026401526102ee0152610c675ff3fe60806040526004361061007e575f3560e01c806393e84cd91161004d57806393e84cd91461017f578063d0e30db014610189578063e004e29314610193578063ebd09054146101bd576100d3565b80630ba679c1146100d757806365a841a7146101015780637fd6f15c1461012b5780638b7afe2e14610155576100d3565b366100d3573373ffffffffffffffffffffffffffffffffffffffff167f2da466a7b24304f47e87fa2e1e5a81b9831ce54fec19055ce277ca2f39ba42c4346040516100c9919061075a565b60405180910390a2005b5f5ffd5b3480156100e2575f5ffd5b506100eb6101e7565b6040516100f8919061075a565b60405180910390f35b34801561010c575f5ffd5b5061011561020b565b604051610122919061075a565b60405180910390f35b348015610136575f5ffd5b5061013f61022f565b60405161014c919061075a565b60405180910390f35b348015610160575f5ffd5b50610169610253565b604051610176919061075a565b60405180910390f35b61018761025a565b005b6101916105d6565b005b34801561019e575f5ffd5b506101a7610668565b6040516101b4919061075a565b60405180910390f35b3480156101c8575f5ffd5b506101d161068c565b6040516101de91906107b2565b60405180910390f35b7f000000000000000000000000000000000000000000000000000000000000000081565b7f000000000000000000000000000000000000000000000000000000000000000081565b7f000000000000000000000000000000000000000000000000000000000000000081565b5f47905090565b6102626106a4565b7f000000000000000000000000000000000000000000000000000000000000000034146102c4576040517f08c379a00000000000000000000000000000000000000000000000000000000081526004016102bb90610825565b60405180910390fd5b5f4790505f60647f00000000000000000000000000000000000000000000000000000000000000007f00000000000000000000000000000000000000000000000000000000000000006103179190610870565b61032191906108de565b90505f735b38da6a701c568545dcfcb03fcb875f56beddc473ffffffffffffffffffffffffffffffffffffffff168260405161035c9061093b565b5f6040518083038185875af1925050503d805f8114610396576040519150601f19603f3d011682016040523d82523d5f602084013e61039b565b606091505b50509050806103df576040517f08c379a00000000000000000000000000000000000000000000000000000000081526004016103d690610999565b60405180910390fd5b735b38da6a701c568545dcfcb03fcb875f56beddc473ffffffffffffffffffffffffffffffffffffffff167f58793df5f4d270351f09efd433db93c69432142b69dc7ee38195fc630478c79f83604051610439919061075a565b60405180910390a25f5f7f000000000000000000000000000000000000000000000000000000000000000061046c6106f1565b61047691906109b7565b1490505f5f90508115610575575f85905060647f0000000000000000000000000000000000000000000000000000000000000000826104b59190610870565b6104bf91906108de565b91505f821115610573575f3373ffffffffffffffffffffffffffffffffffffffff16836040516104ee9061093b565b5f6040518083038185875af1925050503d805f8114610528576040519150601f19603f3d011682016040523d82523d5f602084013e61052d565b606091505b5050905080610571576040517f08c379a000000000000000000000000000000000000000000000000000000000815260040161056890610a31565b60405180910390fd5b505b505b3373ffffffffffffffffffffffffffffffffffffffff167f4778375dc18e35ec254dc16d82f813b7d3d37983039aad279f5970808a8817448383886040516105bf93929190610a69565b60405180910390a250505050506105d4610739565b565b5f3411610618576040517f08c379a000000000000000000000000000000000000000000000000000000000815260040161060f90610ae8565b60405180910390fd5b3373ffffffffffffffffffffffffffffffffffffffff167f2da466a7b24304f47e87fa2e1e5a81b9831ce54fec19055ce277ca2f39ba42c43460405161065e919061075a565b60405180910390a2565b7f000000000000000000000000000000000000000000000000000000000000000081565b735b38da6a701c568545dcfcb03fcb875f56beddc481565b60025f54036106e8576040517f08c379a00000000000000000000000000000000000000000000000000000000081526004016106df90610b50565b60405180910390fd5b60025f81905550565b5f60015f815480929190600101919050555042443360015460405160200161071c9493929190610be4565b604051602081830303815290604052805190602001205f1c905090565b60015f81905550565b5f819050919050565b61075481610742565b82525050565b5f60208201905061076d5f83018461074b565b92915050565b5f73ffffffffffffffffffffffffffffffffffffffff82169050919050565b5f61079c82610773565b9050919050565b6107ac81610792565b82525050565b5f6020820190506107c55f8301846107a3565b92915050565b5f82825260208201905092915050565b7f73656e64206578616374207469636b657420616d6f756e7400000000000000005f82015250565b5f61080f6018836107cb565b915061081a826107db565b602082019050919050565b5f6020820190508181035f83015261083c81610803565b9050919050565b7f4e487b71000000000000000000000000000000000000000000000000000000005f52601160045260245ffd5b5f61087a82610742565b915061088583610742565b925082820261089381610742565b915082820484148315176108aa576108a9610843565b5b5092915050565b7f4e487b71000000000000000000000000000000000000000000000000000000005f52601260045260245ffd5b5f6108e882610742565b91506108f383610742565b925082610903576109026108b1565b5b828204905092915050565b5f81905092915050565b50565b5f6109265f8361090e565b915061093182610918565b5f82019050919050565b5f6109458261091b565b9150819050919050565b7f666565207472616e73666572206661696c6564000000000000000000000000005f82015250565b5f6109836013836107cb565b915061098e8261094f565b602082019050919050565b5f6020820190508181035f8301526109b081610977565b9050919050565b5f6109c182610742565b91506109cc83610742565b9250826109dc576109db6108b1565b5b828206905092915050565b7f7061796f7574206661696c6564000000000000000000000000000000000000005f82015250565b5f610a1b600d836107cb565b9150610a26826109e7565b602082019050919050565b5f6020820190508181035f830152610a4881610a0f565b9050919050565b5f8115159050919050565b610a6381610a4f565b82525050565b5f606082019050610a7c5f830186610a5a565b610a89602083018561074b565b610a96604083018461074b565b949350505050565b7f7a65726f206465706f73697400000000000000000000000000000000000000005f82015250565b5f610ad2600c836107cb565b9150610add82610a9e565b602082019050919050565b5f6020820190508181035f830152610aff81610ac6565b9050919050565b7f5265656e7472616e637947756172643a207265656e7472616e742063616c6c005f82015250565b5f610b3a601f836107cb565b9150610b4582610b06565b602082019050919050565b5f6020820190508181035f830152610b6781610b2e565b9050919050565b5f819050919050565b610b88610b8382610742565b610b6e565b82525050565b5f610b9882610773565b9050919050565b5f8160601b9050919050565b5f610bb582610b9f565b9050919050565b5f610bc682610bab565b9050919050565b610bde610bd982610b8e565b610bbc565b82525050565b5f610bef8287610b77565b602082019150610bff8286610b77565b602082019150610c0f8285610bcd565b601482019150610c1f8284610b77565b6020820191508190509594505050505056fea2646970667358221220ee7dad038428c3640fca449545921d98e1ea0aa13d439d8da5943e62236a29fb64736f6c634300081e0033",
					"opcodes": "PUSH2 0x100 PUSH1 0x40 MSTORE CALLVALUE DUP1 ISZERO PUSH2 0x10 JUMPI PUSH0 PUSH0 REVERT JUMPDEST POP PUSH1 0x40 MLOAD PUSH2 0x1176 CODESIZE SUB DUP1 PUSH2 0x1176 DUP4 CODECOPY DUP2 DUP2 ADD PUSH1 0x40 MSTORE DUP2 ADD SWAP1 PUSH2 0x32 SWAP2 SWAP1 PUSH2 0x23D JUMP JUMPDEST PUSH1 0x1 PUSH0 DUP2 SWAP1 SSTORE POP PUSH0 DUP5 GT PUSH2 0x7B JUMPI PUSH1 0x40 MLOAD PUSH32 0x8C379A000000000000000000000000000000000000000000000000000000000 DUP2 MSTORE PUSH1 0x4 ADD PUSH2 0x72 SWAP1 PUSH2 0x2FB JUMP JUMPDEST PUSH1 0x40 MLOAD DUP1 SWAP2 SUB SWAP1 REVERT JUMPDEST PUSH0 DUP4 GT PUSH2 0xBD JUMPI PUSH1 0x40 MLOAD PUSH32 0x8C379A000000000000000000000000000000000000000000000000000000000 DUP2 MSTORE PUSH1 0x4 ADD PUSH2 0xB4 SWAP1 PUSH2 0x363 JUMP JUMPDEST PUSH1 0x40 MLOAD DUP1 SWAP2 SUB SWAP1 REVERT JUMPDEST PUSH1 0x64 DUP3 GT ISZERO DUP1 ISZERO PUSH2 0xCD JUMPI POP PUSH0 DUP3 GT JUMPDEST PUSH2 0x10C JUMPI PUSH1 0x40 MLOAD PUSH32 0x8C379A000000000000000000000000000000000000000000000000000000000 DUP2 MSTORE PUSH1 0x4 ADD PUSH2 0x103 SWAP1 PUSH2 0x3CB JUMP JUMPDEST PUSH1 0x40 MLOAD DUP1 SWAP2 SUB SWAP1 REVERT JUMPDEST PUSH1 0x64 DUP2 GT ISZERO DUP1 ISZERO PUSH2 0x11C JUMPI POP PUSH0 DUP2 GT JUMPDEST PUSH2 0x15B JUMPI PUSH1 0x40 MLOAD PUSH32 0x8C379A000000000000000000000000000000000000000000000000000000000 DUP2 MSTORE PUSH1 0x4 ADD PUSH2 0x152 SWAP1 PUSH2 0x433 JUMP JUMPDEST PUSH1 0x40 MLOAD DUP1 SWAP2 SUB SWAP1 REVERT JUMPDEST PUSH0 PUSH20 0xFFFFFFFFFFFFFFFFFFFFFFFFFFFFFFFFFFFFFFFF AND PUSH20 0x5B38DA6A701C568545DCFCB03FCB875F56BEDDC4 PUSH20 0xFFFFFFFFFFFFFFFFFFFFFFFFFFFFFFFFFFFFFFFF AND SUB PUSH2 0x1DD JUMPI PUSH1 0x40 MLOAD PUSH32 0x8C379A000000000000000000000000000000000000000000000000000000000 DUP2 MSTORE PUSH1 0x4 ADD PUSH2 0x1D4 SWAP1 PUSH2 0x49B JUMP JUMPDEST PUSH1 0x40 MLOAD DUP1 SWAP2 SUB SWAP1 REVERT JUMPDEST DUP4 PUSH1 0x80 DUP2 DUP2 MSTORE POP POP DUP3 PUSH1 0xA0 DUP2 DUP2 MSTORE POP POP DUP2 PUSH1 0xC0 DUP2 DUP2 MSTORE POP POP DUP1 PUSH1 0xE0 DUP2 DUP2 MSTORE POP POP POP POP POP POP PUSH2 0x4B9 JUMP JUMPDEST PUSH0 PUSH0 REVERT JUMPDEST PUSH0 DUP2 SWAP1 POP SWAP2 SWAP1 POP JUMP JUMPDEST PUSH2 0x21C DUP2 PUSH2 0x20A JUMP JUMPDEST DUP2 EQ PUSH2 0x226 JUMPI PUSH0 PUSH0 REVERT JUMPDEST POP JUMP JUMPDEST PUSH0 DUP2 MLOAD SWAP1 POP PUSH2 0x237 DUP2 PUSH2 0x213 JUMP JUMPDEST SWAP3 SWAP2 POP POP JUMP JUMPDEST PUSH0 PUSH0 PUSH0 PUSH0 PUSH1 0x80 DUP6 DUP8 SUB SLT ISZERO PUSH2 0x255 JUMPI PUSH2 0x254 PUSH2 0x206 JUMP JUMPDEST JUMPDEST PUSH0 PUSH2 0x262 DUP8 DUP3 DUP9 ADD PUSH2 0x229 JUMP JUMPDEST SWAP5 POP POP PUSH1 0x20 PUSH2 0x273 DUP8 DUP3 DUP9 ADD PUSH2 0x229 JUMP JUMPDEST SWAP4 POP POP PUSH1 0x40 PUSH2 0x284 DUP8 DUP3 DUP9 ADD PUSH2 0x229 JUMP JUMPDEST SWAP3 POP POP PUSH1 0x60 PUSH2 0x295 DUP8 DUP3 DUP9 ADD PUSH2 0x229 JUMP JUMPDEST SWAP2 POP POP SWAP3 SWAP6 SWAP2 SWAP5 POP SWAP3 POP JUMP JUMPDEST PUSH0 DUP3 DUP3 MSTORE PUSH1 0x20 DUP3 ADD SWAP1 POP SWAP3 SWAP2 POP POP JUMP JUMPDEST PUSH32 0x7469636B65743E30000000000000000000000000000000000000000000000000 PUSH0 DUP3 ADD MSTORE POP JUMP JUMPDEST PUSH0 PUSH2 0x2E5 PUSH1 0x8 DUP4 PUSH2 0x2A1 JUMP JUMPDEST SWAP2 POP PUSH2 0x2F0 DUP3 PUSH2 0x2B1 JUMP JUMPDEST PUSH1 0x20 DUP3 ADD SWAP1 POP SWAP2 SWAP1 POP JUMP JUMPDEST PUSH0 PUSH1 0x20 DUP3 ADD SWAP1 POP DUP2 DUP2 SUB PUSH0 DUP4 ADD MSTORE PUSH2 0x312 DUP2 PUSH2 0x2D9 JUMP JUMPDEST SWAP1 POP SWAP2 SWAP1 POP JUMP JUMPDEST PUSH32 0x64656E6F6D696E61746F723E3000000000000000000000000000000000000000 PUSH0 DUP3 ADD MSTORE POP JUMP JUMPDEST PUSH0 PUSH2 0x34D PUSH1 0xD DUP4 PUSH2 0x2A1 JUMP JUMPDEST SWAP2 POP PUSH2 0x358 DUP3 PUSH2 0x319 JUMP JUMPDEST PUSH1 0x20 DUP3 ADD SWAP1 POP SWAP2 SWAP1 POP JUMP JUMPDEST PUSH0 PUSH1 0x20 DUP3 ADD SWAP1 POP DUP2 DUP2 SUB PUSH0 DUP4 ADD MSTORE PUSH2 0x37A DUP2 PUSH2 0x341 JUMP JUMPDEST SWAP1 POP SWAP2 SWAP1 POP JUMP JUMPDEST PUSH32 0x7061796F757425203C3D20313030000000000000000000000000000000000000 PUSH0 DUP3 ADD MSTORE POP JUMP JUMPDEST PUSH0 PUSH2 0x3B5 PUSH1 0xE DUP4 PUSH2 0x2A1 JUMP JUMPDEST SWAP2 POP PUSH2 0x3C0 DUP3 PUSH2 0x381 JUMP JUMPDEST PUSH1 0x20 DUP3 ADD SWAP1 POP SWAP2 SWAP1 POP JUMP JUMPDEST PUSH0 PUSH1 0x20 DUP3 ADD SWAP1 POP DUP2 DUP2 SUB PUSH0 DUP4 ADD MSTORE PUSH2 0x3E2 DUP2 PUSH2 0x3A9 JUMP JUMPDEST SWAP1 POP SWAP2 SWAP1 POP JUMP JUMPDEST PUSH32 0x66656525203C3D20313030000000000000000000000000000000000000000000 PUSH0 DUP3 ADD MSTORE POP JUMP JUMPDEST PUSH0 PUSH2 0x41D PUSH1 0xB DUP4 PUSH2 0x2A1 JUMP JUMPDEST SWAP2 POP PUSH2 0x428 DUP3 PUSH2 0x3E9 JUMP JUMPDEST PUSH1 0x20 DUP3 ADD SWAP1 POP SWAP2 SWAP1 POP JUMP JUMPDEST PUSH0 PUSH1 0x20 DUP3 ADD SWAP1 POP DUP2 DUP2 SUB PUSH0 DUP4 ADD MSTORE PUSH2 0x44A DUP2 PUSH2 0x411 JUMP JUMPDEST SWAP1 POP SWAP2 SWAP1 POP JUMP JUMPDEST PUSH32 0x7365742076616C69642066656520726563697069656E74000000000000000000 PUSH0 DUP3 ADD MSTORE POP JUMP JUMPDEST PUSH0 PUSH2 0x485 PUSH1 0x17 DUP4 PUSH2 0x2A1 JUMP JUMPDEST SWAP2 POP PUSH2 0x490 DUP3 PUSH2 0x451 JUMP JUMPDEST PUSH1 0x20 DUP3 ADD SWAP1 POP SWAP2 SWAP1 POP JUMP JUMPDEST PUSH0 PUSH1 0x20 DUP3 ADD SWAP1 POP DUP2 DUP2 SUB PUSH0 DUP4 ADD MSTORE PUSH2 0x4B2 DUP2 PUSH2 0x479 JUMP JUMPDEST SWAP1 POP SWAP2 SWAP1 POP JUMP JUMPDEST PUSH1 0x80 MLOAD PUSH1 0xA0 MLOAD PUSH1 0xC0 MLOAD PUSH1 0xE0 MLOAD PUSH2 0xC67 PUSH2 0x50F PUSH0 CODECOPY PUSH0 DUP2 DUP2 PUSH2 0x231 ADD MSTORE PUSH2 0x2CD ADD MSTORE PUSH0 DUP2 DUP2 PUSH2 0x20D ADD MSTORE PUSH2 0x48B ADD MSTORE PUSH0 DUP2 DUP2 PUSH2 0x445 ADD MSTORE PUSH2 0x66A ADD MSTORE PUSH0 DUP2 DUP2 PUSH2 0x1E9 ADD MSTORE DUP2 DUP2 PUSH2 0x264 ADD MSTORE PUSH2 0x2EE ADD MSTORE PUSH2 0xC67 PUSH0 RETURN INVALID PUSH1 0x80 PUSH1 0x40 MSTORE PUSH1 0x4 CALLDATASIZE LT PUSH2 0x7E JUMPI PUSH0 CALLDATALOAD PUSH1 0xE0 SHR DUP1 PUSH4 0x93E84CD9 GT PUSH2 0x4D JUMPI DUP1 PUSH4 0x93E84CD9 EQ PUSH2 0x17F JUMPI DUP1 PUSH4 0xD0E30DB0 EQ PUSH2 0x189 JUMPI DUP1 PUSH4 0xE004E293 EQ PUSH2 0x193 JUMPI DUP1 PUSH4 0xEBD09054 EQ PUSH2 0x1BD JUMPI PUSH2 0xD3 JUMP JUMPDEST DUP1 PUSH4 0xBA679C1 EQ PUSH2 0xD7 JUMPI DUP1 PUSH4 0x65A841A7 EQ PUSH2 0x101 JUMPI DUP1 PUSH4 0x7FD6F15C EQ PUSH2 0x12B JUMPI DUP1 PUSH4 0x8B7AFE2E EQ PUSH2 0x155 JUMPI PUSH2 0xD3 JUMP JUMPDEST CALLDATASIZE PUSH2 0xD3 JUMPI CALLER PUSH20 0xFFFFFFFFFFFFFFFFFFFFFFFFFFFFFFFFFFFFFFFF AND PUSH32 0x2DA466A7B24304F47E87FA2E1E5A81B9831CE54FEC19055CE277CA2F39BA42C4 CALLVALUE PUSH1 0x40 MLOAD PUSH2 0xC9 SWAP2 SWAP1 PUSH2 0x75A JUMP JUMPDEST PUSH1 0x40 MLOAD DUP1 SWAP2 SUB SWAP1 LOG2 STOP JUMPDEST PUSH0 PUSH0 REVERT JUMPDEST CALLVALUE DUP1 ISZERO PUSH2 0xE2 JUMPI PUSH0 PUSH0 REVERT JUMPDEST POP PUSH2 0xEB PUSH2 0x1E7 JUMP JUMPDEST PUSH1 0x40 MLOAD PUSH2 0xF8 SWAP2 SWAP1 PUSH2 0x75A JUMP JUMPDEST PUSH1 0x40 MLOAD DUP1 SWAP2 SUB SWAP1 RETURN JUMPDEST CALLVALUE DUP1 ISZERO PUSH2 0x10C JUMPI PUSH0 PUSH0 REVERT JUMPDEST POP PUSH2 0x115 PUSH2 0x20B JUMP JUMPDEST PUSH1 0x40 MLOAD PUSH2 0x122 SWAP2 SWAP1 PUSH2 0x75A JUMP JUMPDEST PUSH1 0x40 MLOAD DUP1 SWAP2 SUB SWAP1 RETURN JUMPDEST CALLVALUE DUP1 ISZERO PUSH2 0x136 JUMPI PUSH0 PUSH0 REVERT JUMPDEST POP PUSH2 0x13F PUSH2 0x22F JUMP JUMPDEST PUSH1 0x40 MLOAD PUSH2 0x14C SWAP2 SWAP1 PUSH2 0x75A JUMP JUMPDEST PUSH1 0x40 MLOAD DUP1 SWAP2 SUB SWAP1 RETURN JUMPDEST CALLVALUE DUP1 ISZERO PUSH2 0x160 JUMPI PUSH0 PUSH0 REVERT JUMPDEST POP PUSH2 0x169 PUSH2 0x253 JUMP JUMPDEST PUSH1 0x40 MLOAD PUSH2 0x176 SWAP2 SWAP1 PUSH2 0x75A JUMP JUMPDEST PUSH1 0x40 MLOAD DUP1 SWAP2 SUB SWAP1 RETURN JUMPDEST PUSH2 0x187 PUSH2 0x25A JUMP JUMPDEST STOP JUMPDEST PUSH2 0x191 PUSH2 0x5D6 JUMP JUMPDEST STOP JUMPDEST CALLVALUE DUP1 ISZERO PUSH2 0x19E JUMPI PUSH0 PUSH0 REVERT JUMPDEST POP PUSH2 0x1A7 PUSH2 0x668 JUMP JUMPDEST PUSH1 0x40 MLOAD PUSH2 0x1B4 SWAP2 SWAP1 PUSH2 0x75A JUMP JUMPDEST PUSH1 0x40 MLOAD DUP1 SWAP2 SUB SWAP1 RETURN JUMPDEST CALLVALUE DUP1 ISZERO PUSH2 0x1C8 JUMPI PUSH0 PUSH0 REVERT JUMPDEST POP PUSH2 0x1D1 PUSH2 0x68C JUMP JUMPDEST PUSH1 0x40 MLOAD PUSH2 0x1DE SWAP2 SWAP1 PUSH2 0x7B2 JUMP JUMPDEST PUSH1 0x40 MLOAD DUP1 SWAP2 SUB SWAP1 RETURN JUMPDEST PUSH32 0x0 DUP2 JUMP JUMPDEST PUSH32 0x0 DUP2 JUMP JUMPDEST PUSH32 0x0 DUP2 JUMP JUMPDEST PUSH0 SELFBALANCE SWAP1 POP SWAP1 JUMP JUMPDEST PUSH2 0x262 PUSH2 0x6A4 JUMP JUMPDEST PUSH32 0x0 CALLVALUE EQ PUSH2 0x2C4 JUMPI PUSH1 0x40 MLOAD PUSH32 0x8C379A000000000000000000000000000000000000000000000000000000000 DUP2 MSTORE PUSH1 0x4 ADD PUSH2 0x2BB SWAP1 PUSH2 0x825 JUMP JUMPDEST PUSH1 0x40 MLOAD DUP1 SWAP2 SUB SWAP1 REVERT JUMPDEST PUSH0 SELFBALANCE SWAP1 POP PUSH0 PUSH1 0x64 PUSH32 0x0 PUSH32 0x0 PUSH2 0x317 SWAP2 SWAP1 PUSH2 0x870 JUMP JUMPDEST PUSH2 0x321 SWAP2 SWAP1 PUSH2 0x8DE JUMP JUMPDEST SWAP1 POP PUSH0 PUSH20 0x5B38DA6A701C568545DCFCB03FCB875F56BEDDC4 PUSH20 0xFFFFFFFFFFFFFFFFFFFFFFFFFFFFFFFFFFFFFFFF AND DUP3 PUSH1 0x40 MLOAD PUSH2 0x35C SWAP1 PUSH2 0x93B JUMP JUMPDEST PUSH0 PUSH1 0x40 MLOAD DUP1 DUP4 SUB DUP2 DUP6 DUP8 GAS CALL SWAP3 POP POP POP RETURNDATASIZE DUP1 PUSH0 DUP2 EQ PUSH2 0x396 JUMPI PUSH1 0x40 MLOAD SWAP2 POP PUSH1 0x1F NOT PUSH1 0x3F RETURNDATASIZE ADD AND DUP3 ADD PUSH1 0x40 MSTORE RETURNDATASIZE DUP3 MSTORE RETURNDATASIZE PUSH0 PUSH1 0x20 DUP5 ADD RETURNDATACOPY PUSH2 0x39B JUMP JUMPDEST PUSH1 0x60 SWAP2 POP JUMPDEST POP POP SWAP1 POP DUP1 PUSH2 0x3DF JUMPI PUSH1 0x40 MLOAD PUSH32 0x8C379A000000000000000000000000000000000000000000000000000000000 DUP2 MSTORE PUSH1 0x4 ADD PUSH2 0x3D6 SWAP1 PUSH2 0x999 JUMP JUMPDEST PUSH1 0x40 MLOAD DUP1 SWAP2 SUB SWAP1 REVERT JUMPDEST PUSH20 0x5B38DA6A701C568545DCFCB03FCB875F56BEDDC4 PUSH20 0xFFFFFFFFFFFFFFFFFFFFFFFFFFFFFFFFFFFFFFFF AND PUSH32 0x58793DF5F4D270351F09EFD433DB93C69432142B69DC7EE38195FC630478C79F DUP4 PUSH1 0x40 MLOAD PUSH2 0x439 SWAP2 SWAP1 PUSH2 0x75A JUMP JUMPDEST PUSH1 0x40 MLOAD DUP1 SWAP2 SUB SWAP1 LOG2 PUSH0 PUSH0 PUSH32 0x0 PUSH2 0x46C PUSH2 0x6F1 JUMP JUMPDEST PUSH2 0x476 SWAP2 SWAP1 PUSH2 0x9B7 JUMP JUMPDEST EQ SWAP1 POP PUSH0 PUSH0 SWAP1 POP DUP2 ISZERO PUSH2 0x575 JUMPI PUSH0 DUP6 SWAP1 POP PUSH1 0x64 PUSH32 0x0 DUP3 PUSH2 0x4B5 SWAP2 SWAP1 PUSH2 0x870 JUMP JUMPDEST PUSH2 0x4BF SWAP2 SWAP1 PUSH2 0x8DE JUMP JUMPDEST SWAP2 POP PUSH0 DUP3 GT ISZERO PUSH2 0x573 JUMPI PUSH0 CALLER PUSH20 0xFFFFFFFFFFFFFFFFFFFFFFFFFFFFFFFFFFFFFFFF AND DUP4 PUSH1 0x40 MLOAD PUSH2 0x4EE SWAP1 PUSH2 0x93B JUMP JUMPDEST PUSH0 PUSH1 0x40 MLOAD DUP1 DUP4 SUB DUP2 DUP6 DUP8 GAS CALL SWAP3 POP POP POP RETURNDATASIZE DUP1 PUSH0 DUP2 EQ PUSH2 0x528 JUMPI PUSH1 0x40 MLOAD SWAP2 POP PUSH1 0x1F NOT PUSH1 0x3F RETURNDATASIZE ADD AND DUP3 ADD PUSH1 0x40 MSTORE RETURNDATASIZE DUP3 MSTORE RETURNDATASIZE PUSH0 PUSH1 0x20 DUP5 ADD RETURNDATACOPY PUSH2 0x52D JUMP JUMPDEST PUSH1 0x60 SWAP2 POP JUMPDEST POP POP SWAP1 POP DUP1 PUSH2 0x571 JUMPI PUSH1 0x40 MLOAD PUSH32 0x8C379A000000000000000000000000000000000000000000000000000000000 DUP2 MSTORE PUSH1 0x4 ADD PUSH2 0x568 SWAP1 PUSH2 0xA31 JUMP JUMPDEST PUSH1 0x40 MLOAD DUP1 SWAP2 SUB SWAP1 REVERT JUMPDEST POP JUMPDEST POP JUMPDEST CALLER PUSH20 0xFFFFFFFFFFFFFFFFFFFFFFFFFFFFFFFFFFFFFFFF AND PUSH32 0x4778375DC18E35EC254DC16D82F813B7D3D37983039AAD279F5970808A881744 DUP4 DUP4 DUP9 PUSH1 0x40 MLOAD PUSH2 0x5BF SWAP4 SWAP3 SWAP2 SWAP1 PUSH2 0xA69 JUMP JUMPDEST PUSH1 0x40 MLOAD DUP1 SWAP2 SUB SWAP1 LOG2 POP POP POP POP POP PUSH2 0x5D4 PUSH2 0x739 JUMP JUMPDEST JUMP JUMPDEST PUSH0 CALLVALUE GT PUSH2 0x618 JUMPI PUSH1 0x40 MLOAD PUSH32 0x8C379A000000000000000000000000000000000000000000000000000000000 DUP2 MSTORE PUSH1 0x4 ADD PUSH2 0x60F SWAP1 PUSH2 0xAE8 JUMP JUMPDEST PUSH1 0x40 MLOAD DUP1 SWAP2 SUB SWAP1 REVERT JUMPDEST CALLER PUSH20 0xFFFFFFFFFFFFFFFFFFFFFFFFFFFFFFFFFFFFFFFF AND PUSH32 0x2DA466A7B24304F47E87FA2E1E5A81B9831CE54FEC19055CE277CA2F39BA42C4 CALLVALUE PUSH1 0x40 MLOAD PUSH2 0x65E SWAP2 SWAP1 PUSH2 0x75A JUMP JUMPDEST PUSH1 0x40 MLOAD DUP1 SWAP2 SUB SWAP1 LOG2 JUMP JUMPDEST PUSH32 0x0 DUP2 JUMP JUMPDEST PUSH20 0x5B38DA6A701C568545DCFCB03FCB875F56BEDDC4 DUP2 JUMP JUMPDEST PUSH1 0x2 PUSH0 SLOAD SUB PUSH2 0x6E8 JUMPI PUSH1 0x40 MLOAD PUSH32 0x8C379A000000000000000000000000000000000000000000000000000000000 DUP2 MSTORE PUSH1 0x4 ADD PUSH2 0x6DF SWAP1 PUSH2 0xB50 JUMP JUMPDEST PUSH1 0x40 MLOAD DUP1 SWAP2 SUB SWAP1 REVERT JUMPDEST PUSH1 0x2 PUSH0 DUP2 SWAP1 SSTORE POP JUMP JUMPDEST PUSH0 PUSH1 0x1 PUSH0 DUP2 SLOAD DUP1 SWAP3 SWAP2 SWAP1 PUSH1 0x1 ADD SWAP2 SWAP1 POP SSTORE POP TIMESTAMP PREVRANDAO CALLER PUSH1 0x1 SLOAD PUSH1 0x40 MLOAD PUSH1 0x20 ADD PUSH2 0x71C SWAP5 SWAP4 SWAP3 SWAP2 SWAP1 PUSH2 0xBE4 JUMP JUMPDEST PUSH1 0x40 MLOAD PUSH1 0x20 DUP2 DUP4 SUB SUB DUP2 MSTORE SWAP1 PUSH1 0x40 MSTORE DUP1 MLOAD SWAP1 PUSH1 0x20 ADD KECCAK256 PUSH0 SHR SWAP1 POP SWAP1 JUMP JUMPDEST PUSH1 0x1 PUSH0 DUP2 SWAP1 SSTORE POP JUMP JUMPDEST PUSH0 DUP2 SWAP1 POP SWAP2 SWAP1 POP JUMP JUMPDEST PUSH2 0x754 DUP2 PUSH2 0x742 JUMP JUMPDEST DUP3 MSTORE POP POP JUMP JUMPDEST PUSH0 PUSH1 0x20 DUP3 ADD SWAP1 POP PUSH2 0x76D PUSH0 DUP4 ADD DUP5 PUSH2 0x74B JUMP JUMPDEST SWAP3 SWAP2 POP POP JUMP JUMPDEST PUSH0 PUSH20 0xFFFFFFFFFFFFFFFFFFFFFFFFFFFFFFFFFFFFFFFF DUP3 AND SWAP1 POP SWAP2 SWAP1 POP JUMP JUMPDEST PUSH0 PUSH2 0x79C DUP3 PUSH2 0x773 JUMP JUMPDEST SWAP1 POP SWAP2 SWAP1 POP JUMP JUMPDEST PUSH2 0x7AC DUP2 PUSH2 0x792 JUMP JUMPDEST DUP3 MSTORE POP POP JUMP JUMPDEST PUSH0 PUSH1 0x20 DUP3 ADD SWAP1 POP PUSH2 0x7C5 PUSH0 DUP4 ADD DUP5 PUSH2 0x7A3 JUMP JUMPDEST SWAP3 SWAP2 POP POP JUMP JUMPDEST PUSH0 DUP3 DUP3 MSTORE PUSH1 0x20 DUP3 ADD SWAP1 POP SWAP3 SWAP2 POP POP JUMP JUMPDEST PUSH32 0x73656E64206578616374207469636B657420616D6F756E740000000000000000 PUSH0 DUP3 ADD MSTORE POP JUMP JUMPDEST PUSH0 PUSH2 0x80F PUSH1 0x18 DUP4 PUSH2 0x7CB JUMP JUMPDEST SWAP2 POP PUSH2 0x81A DUP3 PUSH2 0x7DB JUMP JUMPDEST PUSH1 0x20 DUP3 ADD SWAP1 POP SWAP2 SWAP1 POP JUMP JUMPDEST PUSH0 PUSH1 0x20 DUP3 ADD SWAP1 POP DUP2 DUP2 SUB PUSH0 DUP4 ADD MSTORE PUSH2 0x83C DUP2 PUSH2 0x803 JUMP JUMPDEST SWAP1 POP SWAP2 SWAP1 POP JUMP JUMPDEST PUSH32 0x4E487B7100000000000000000000000000000000000000000000000000000000 PUSH0 MSTORE PUSH1 0x11 PUSH1 0x4 MSTORE PUSH1 0x24 PUSH0 REVERT JUMPDEST PUSH0 PUSH2 0x87A DUP3 PUSH2 0x742 JUMP JUMPDEST SWAP2 POP PUSH2 0x885 DUP4 PUSH2 0x742 JUMP JUMPDEST SWAP3 POP DUP3 DUP3 MUL PUSH2 0x893 DUP2 PUSH2 0x742 JUMP JUMPDEST SWAP2 POP DUP3 DUP3 DIV DUP5 EQ DUP4 ISZERO OR PUSH2 0x8AA JUMPI PUSH2 0x8A9 PUSH2 0x843 JUMP JUMPDEST JUMPDEST POP SWAP3 SWAP2 POP POP JUMP JUMPDEST PUSH32 0x4E487B7100000000000000000000000000000000000000000000000000000000 PUSH0 MSTORE PUSH1 0x12 PUSH1 0x4 MSTORE PUSH1 0x24 PUSH0 REVERT JUMPDEST PUSH0 PUSH2 0x8E8 DUP3 PUSH2 0x742 JUMP JUMPDEST SWAP2 POP PUSH2 0x8F3 DUP4 PUSH2 0x742 JUMP JUMPDEST SWAP3 POP DUP3 PUSH2 0x903 JUMPI PUSH2 0x902 PUSH2 0x8B1 JUMP JUMPDEST JUMPDEST DUP3 DUP3 DIV SWAP1 POP SWAP3 SWAP2 POP POP JUMP JUMPDEST PUSH0 DUP2 SWAP1 POP SWAP3 SWAP2 POP POP JUMP JUMPDEST POP JUMP JUMPDEST PUSH0 PUSH2 0x926 PUSH0 DUP4 PUSH2 0x90E JUMP JUMPDEST SWAP2 POP PUSH2 0x931 DUP3 PUSH2 0x918 JUMP JUMPDEST PUSH0 DUP3 ADD SWAP1 POP SWAP2 SWAP1 POP JUMP JUMPDEST PUSH0 PUSH2 0x945 DUP3 PUSH2 0x91B JUMP JUMPDEST SWAP2 POP DUP2 SWAP1 POP SWAP2 SWAP1 POP JUMP JUMPDEST PUSH32 0x666565207472616E73666572206661696C656400000000000000000000000000 PUSH0 DUP3 ADD MSTORE POP JUMP JUMPDEST PUSH0 PUSH2 0x983 PUSH1 0x13 DUP4 PUSH2 0x7CB JUMP JUMPDEST SWAP2 POP PUSH2 0x98E DUP3 PUSH2 0x94F JUMP JUMPDEST PUSH1 0x20 DUP3 ADD SWAP1 POP SWAP2 SWAP1 POP JUMP JUMPDEST PUSH0 PUSH1 0x20 DUP3 ADD SWAP1 POP DUP2 DUP2 SUB PUSH0 DUP4 ADD MSTORE PUSH2 0x9B0 DUP2 PUSH2 0x977 JUMP JUMPDEST SWAP1 POP SWAP2 SWAP1 POP JUMP JUMPDEST PUSH0 PUSH2 0x9C1 DUP3 PUSH2 0x742 JUMP JUMPDEST SWAP2 POP PUSH2 0x9CC DUP4 PUSH2 0x742 JUMP JUMPDEST SWAP3 POP DUP3 PUSH2 0x9DC JUMPI PUSH2 0x9DB PUSH2 0x8B1 JUMP JUMPDEST JUMPDEST DUP3 DUP3 MOD SWAP1 POP SWAP3 SWAP2 POP POP JUMP JUMPDEST PUSH32 0x7061796F7574206661696C656400000000000000000000000000000000000000 PUSH0 DUP3 ADD MSTORE POP JUMP JUMPDEST PUSH0 PUSH2 0xA1B PUSH1 0xD DUP4 PUSH2 0x7CB JUMP JUMPDEST SWAP2 POP PUSH2 0xA26 DUP3 PUSH2 0x9E7 JUMP JUMPDEST PUSH1 0x20 DUP3 ADD SWAP1 POP SWAP2 SWAP1 POP JUMP JUMPDEST PUSH0 PUSH1 0x20 DUP3 ADD SWAP1 POP DUP2 DUP2 SUB PUSH0 DUP4 ADD MSTORE PUSH2 0xA48 DUP2 PUSH2 0xA0F JUMP JUMPDEST SWAP1 POP SWAP2 SWAP1 POP JUMP JUMPDEST PUSH0 DUP2 ISZERO ISZERO SWAP1 POP SWAP2 SWAP1 POP JUMP JUMPDEST PUSH2 0xA63 DUP2 PUSH2 0xA4F JUMP JUMPDEST DUP3 MSTORE POP POP JUMP JUMPDEST PUSH0 PUSH1 0x60 DUP3 ADD SWAP1 POP PUSH2 0xA7C PUSH0 DUP4 ADD DUP7 PUSH2 0xA5A JUMP JUMPDEST PUSH2 0xA89 PUSH1 0x20 DUP4 ADD DUP6 PUSH2 0x74B JUMP JUMPDEST PUSH2 0xA96 PUSH1 0x40 DUP4 ADD DUP5 PUSH2 0x74B JUMP JUMPDEST SWAP5 SWAP4 POP POP POP POP JUMP JUMPDEST PUSH32 0x7A65726F206465706F7369740000000000000000000000000000000000000000 PUSH0 DUP3 ADD MSTORE POP JUMP JUMPDEST PUSH0 PUSH2 0xAD2 PUSH1 0xC DUP4 PUSH2 0x7CB JUMP JUMPDEST SWAP2 POP PUSH2 0xADD DUP3 PUSH2 0xA9E JUMP JUMPDEST PUSH1 0x20 DUP3 ADD SWAP1 POP SWAP2 SWAP1 POP JUMP JUMPDEST PUSH0 PUSH1 0x20 DUP3 ADD SWAP1 POP DUP2 DUP2 SUB PUSH0 DUP4 ADD MSTORE PUSH2 0xAFF DUP2 PUSH2 0xAC6 JUMP JUMPDEST SWAP1 POP SWAP2 SWAP1 POP JUMP JUMPDEST PUSH32 0x5265656E7472616E637947756172643A207265656E7472616E742063616C6C00 PUSH0 DUP3 ADD MSTORE POP JUMP JUMPDEST PUSH0 PUSH2 0xB3A PUSH1 0x1F DUP4 PUSH2 0x7CB JUMP JUMPDEST SWAP2 POP PUSH2 0xB45 DUP3 PUSH2 0xB06 JUMP JUMPDEST PUSH1 0x20 DUP3 ADD SWAP1 POP SWAP2 SWAP1 POP JUMP JUMPDEST PUSH0 PUSH1 0x20 DUP3 ADD SWAP1 POP DUP2 DUP2 SUB PUSH0 DUP4 ADD MSTORE PUSH2 0xB67 DUP2 PUSH2 0xB2E JUMP JUMPDEST SWAP1 POP SWAP2 SWAP1 POP JUMP JUMPDEST PUSH0 DUP2 SWAP1 POP SWAP2 SWAP1 POP JUMP JUMPDEST PUSH2 0xB88 PUSH2 0xB83 DUP3 PUSH2 0x742 JUMP JUMPDEST PUSH2 0xB6E JUMP JUMPDEST DUP3 MSTORE POP POP JUMP JUMPDEST PUSH0 PUSH2 0xB98 DUP3 PUSH2 0x773 JUMP JUMPDEST SWAP1 POP SWAP2 SWAP1 POP JUMP JUMPDEST PUSH0 DUP2 PUSH1 0x60 SHL SWAP1 POP SWAP2 SWAP1 POP JUMP JUMPDEST PUSH0 PUSH2 0xBB5 DUP3 PUSH2 0xB9F JUMP JUMPDEST SWAP1 POP SWAP2 SWAP1 POP JUMP JUMPDEST PUSH0 PUSH2 0xBC6 DUP3 PUSH2 0xBAB JUMP JUMPDEST SWAP1 POP SWAP2 SWAP1 POP JUMP JUMPDEST PUSH2 0xBDE PUSH2 0xBD9 DUP3 PUSH2 0xB8E JUMP JUMPDEST PUSH2 0xBBC JUMP JUMPDEST DUP3 MSTORE POP POP JUMP JUMPDEST PUSH0 PUSH2 0xBEF DUP3 DUP8 PUSH2 0xB77 JUMP JUMPDEST PUSH1 0x20 DUP3 ADD SWAP2 POP PUSH2 0xBFF DUP3 DUP7 PUSH2 0xB77 JUMP JUMPDEST PUSH1 0x20 DUP3 ADD SWAP2 POP PUSH2 0xC0F DUP3 DUP6 PUSH2 0xBCD JUMP JUMPDEST PUSH1 0x14 DUP3 ADD SWAP2 POP PUSH2 0xC1F DUP3 DUP5 PUSH2 0xB77 JUMP JUMPDEST PUSH1 0x20 DUP3 ADD SWAP2 POP DUP2 SWAP1 POP SWAP6 SWAP5 POP POP POP POP POP JUMP INVALID LOG2 PUSH5 0x6970667358 0x22 SLT KECCAK256 RETURNCONTRACT 0x7D 0xAD SUB DUP5 0x28 0xC3 PUSH5 0xFCA449545 SWAP3 SAR SWAP9 RJUMPI 0xEA0A LOG1 RETURNDATASIZE NUMBER SWAP14 DUP14 0xA5 SWAP5 RETURNDATACOPY PUSH3 0x236A29 EXTSTATICCALL PUSH5 0x736F6C6343 STOP ADDMOD 0x1E STOP CALLER "
				},
				"gasEstimates": {
					"creation": {
						"codeDepositCost": "635000",
						"executionCost": "infinite",
						"totalCost": "infinite"
					},
					"external": {
						"FEE_RECIPIENT()": "439",
						"contractBalance()": "401",
						"deposit()": "1732",
						"feePercent()": "infinite",
						"payoutPercentOnWin()": "infinite",
						"play()": "infinite",
						"ticketAmount()": "infinite",
						"winDenominator()": "infinite"
					},
					"internal": {
						"_pseudoRandom()": "infinite"
					}
				},
				"methodIdentifiers": {
					"FEE_RECIPIENT()": "ebd09054",
					"contractBalance()": "8b7afe2e",
					"deposit()": "d0e30db0",
					"feePercent()": "7fd6f15c",
					"payoutPercentOnWin()": "65a841a7",
					"play()": "93e84cd9",
					"ticketAmount()": "0ba679c1",
					"winDenominator()": "e004e293"
				}
			},
			"storageLayout": {
				"storage": [
					{
						"astId": 10,
						"contract": "contracts/lottery.sol:lottery",
						"label": "_status",
						"offset": 0,
						"slot": "0",
						"type": "t_uint256"
					},
					{
						"astId": 86,
						"contract": "contracts/lottery.sol:lottery",
						"label": "nonce",
						"offset": 0,
						"slot": "1",
						"type": "t_uint256"
					}
				],
				"types": {
					"t_uint256": {
						"encoding": "inplace",
						"label": "uint256",
						"numberOfBytes": "32"
					}
				}
			},
			"userdoc": {
				"kind": "user",
				"methods": {},
				"notice": "Este contrato es parte del primer proyecto del Ethereum Developer Pack ",
				"version": 1
			}
		}
	}
}