{
	"contracts/kipu-bank.sol": {
		"KipuBank": {
			"abi": [
				{
					"inputs": [
						{
							"internalType": "uint256",
							"name": "_thresholdWithdraw",
							"type": "uint256"
						},
						{
							"internalType": "uint256",
							"name": "_bankCap",
							"type": "uint256"
						}
					],
					"stateMutability": "nonpayable",
					"type": "constructor"
				},
				{
					"inputs": [
						{
							"internalType": "uint256",
							"name": "amountAvailable",
							"type": "uint256"
						}
					],
					"name": "BankIsFull",
					"type": "error"
				},
				{
					"inputs": [],
					"name": "DirectTransferAttempt",
					"type": "error"
				},
				{
					"inputs": [
						{
							"internalType": "uint256",
							"name": "requested",
							"type": "uint256"
						},
						{
							"internalType": "uint256",
							"name": "available",
							"type": "uint256"
						}
					],
					"name": "InsufficientBalance",
					"type": "error"
				},
				{
					"inputs": [],
					"name": "InvalidBankCap",
					"type": "error"
				},
				{
					"inputs": [],
					"name": "InvalidThreshold",
					"type": "error"
				},
				{
					"inputs": [],
					"name": "InvalidWithdrawAmount",
					"type": "error"
				},
				{
					"inputs": [],
					"name": "TransactionError",
					"type": "error"
				},
				{
					"inputs": [],
					"name": "WithdrawOverLimit",
					"type": "error"
				},
				{
					"anonymous": false,
					"inputs": [
						{
							"indexed": true,
							"internalType": "address",
							"name": "user",
							"type": "address"
						},
						{
							"indexed": false,
							"internalType": "uint256",
							"name": "amountDeposited",
							"type": "uint256"
						},
						{
							"indexed": false,
							"internalType": "uint256",
							"name": "newTotalAmount",
							"type": "uint256"
						}
					],
					"name": "UserDeposit",
					"type": "event"
				},
				{
					"anonymous": false,
					"inputs": [
						{
							"indexed": true,
							"internalType": "address",
							"name": "user",
							"type": "address"
						},
						{
							"indexed": false,
							"internalType": "uint256",
							"name": "amountWithdraw",
							"type": "uint256"
						},
						{
							"indexed": false,
							"internalType": "uint256",
							"name": "newTotalAmount",
							"type": "uint256"
						}
					],
					"name": "UserWithdraw",
					"type": "event"
				},
				{
					"inputs": [],
					"name": "deposit",
					"outputs": [],
					"stateMutability": "payable",
					"type": "function"
				},
				{
					"inputs": [],
					"name": "getBalance",
					"outputs": [
						{
							"internalType": "uint256",
							"name": "",
							"type": "uint256"
						}
					],
					"stateMutability": "view",
					"type": "function"
				},
				{
					"inputs": [],
					"name": "s_bankCap",
					"outputs": [
						{
							"internalType": "uint256",
							"name": "",
							"type": "uint256"
						}
					],
					"stateMutability": "view",
					"type": "function"
				},
				{
					"inputs": [],
					"name": "s_depositCount",
					"outputs": [
						{
							"internalType": "uint256",
							"name": "",
							"type": "uint256"
						}
					],
					"stateMutability": "view",
					"type": "function"
				},
				{
					"inputs": [],
					"name": "s_thresholdWithdraw",
					"outputs": [
						{
							"internalType": "uint256",
							"name": "",
							"type": "uint256"
						}
					],
					"stateMutability": "view",
					"type": "function"
				},
				{
					"inputs": [],
					"name": "s_withdrawCount",
					"outputs": [
						{
							"internalType": "uint256",
							"name": "",
							"type": "uint256"
						}
					],
					"stateMutability": "view",
					"type": "function"
				},
				{
					"inputs": [
						{
							"internalType": "uint256",
							"name": "_amount",
							"type": "uint256"
						}
					],
					"name": "withdraw",
					"outputs": [],
					"stateMutability": "nonpayable",
					"type": "function"
				},
				{
					"stateMutability": "payable",
					"type": "receive"
				}
			],
			"devdoc": {
				"details": "Smart Contact to deposit and withdraw native tokens.",
				"errors": {
					"BankIsFull(uint256)": [
						{
							"params": {
								"amountAvailable": "Remaining space before reaching the bank cap."
							}
						}
					],
					"InsufficientBalance(uint256,uint256)": [
						{
							"params": {
								"available": "The balance available in the user account.",
								"requested": "The amount requested for withdrawal."
							}
						}
					]
				},
				"kind": "dev",
				"methods": {
					"deposit()": {
						"details": "Can revert with {BankIsFull} if the deposit would exceed the bank capacity. Emits a {UserDeposit} event when completed."
					},
					"getBalance()": {
						"returns": {
							"_0": "The amount of native tokens stored for the caller."
						}
					},
					"withdraw(uint256)": {
						"details": "Can revert with {WithdrawOverLimit} if amount exceeds the withdrawal threshold. Can revert with {InsufficientBalance} if user has insufficient funds. Emits a {UserWithdraw} event when completed.",
						"params": {
							"_amount": "The amount of tokens to withdraw."
						}
					}
				},
				"title": "Kipu-bank",
				"version": 1
			},
			"evm": {
				"assembly": "    /* \"contracts/kipu-bank.sol\":157:5957  contract KipuBank {... */\n  mstore(0x40, 0xc0)\n    /* \"contracts/kipu-bank.sol\":3524:3874  constructor(... */\n  callvalue\n  dup1\n  iszero\n  tag_1\n  jumpi\n  revert(0x00, 0x00)\ntag_1:\n  pop\n  mload(0x40)\n  sub(codesize, bytecodeSize)\n  dup1\n  bytecodeSize\n  dup4\n  codecopy\n  dup2\n  dup2\n  add\n  0x40\n  mstore\n  dup2\n  add\n  swap1\n  tag_2\n  swap2\n  swap1\n  tag_3\n  jump\t// in\ntag_2:\n    /* \"contracts/kipu-bank.sol\":3644:3645  0 */\n  0x00\n    /* \"contracts/kipu-bank.sol\":3622:3640  _thresholdWithdraw */\n  dup3\n    /* \"contracts/kipu-bank.sol\":3622:3645  _thresholdWithdraw == 0 */\n  sub\n    /* \"contracts/kipu-bank.sol\":3618:3672  if (_thresholdWithdraw == 0) revert InvalidThreshold() */\n  tag_6\n  jumpi\n    /* \"contracts/kipu-bank.sol\":3654:3672  InvalidThreshold() */\n  mload(0x40)\n  0xaabd5a0900000000000000000000000000000000000000000000000000000000\n  dup2\n  mstore\n  0x04\n  add\n  mload(0x40)\n  dup1\n  swap2\n  sub\n  swap1\n  revert\n    /* \"contracts/kipu-bank.sol\":3618:3672  if (_thresholdWithdraw == 0) revert InvalidThreshold() */\ntag_6:\n    /* \"contracts/kipu-bank.sol\":3699:3700  0 */\n  0x00\n    /* \"contracts/kipu-bank.sol\":3687:3695  _bankCap */\n  dup2\n    /* \"contracts/kipu-bank.sol\":3687:3700  _bankCap == 0 */\n  sub\n    /* \"contracts/kipu-bank.sol\":3683:3725  if (_bankCap == 0) revert InvalidBankCap() */\n  tag_7\n  jumpi\n    /* \"contracts/kipu-bank.sol\":3709:3725  InvalidBankCap() */\n  mload(0x40)\n  0x2f9874a700000000000000000000000000000000000000000000000000000000\n  dup2\n  mstore\n  0x04\n  add\n  mload(0x40)\n  dup1\n  swap2\n  sub\n  swap1\n  revert\n    /* \"contracts/kipu-bank.sol\":3683:3725  if (_bankCap == 0) revert InvalidBankCap() */\ntag_7:\n    /* \"contracts/kipu-bank.sol\":3758:3776  _thresholdWithdraw */\n  dup2\n    /* \"contracts/kipu-bank.sol\":3736:3776  s_thresholdWithdraw = _thresholdWithdraw */\n  0x80\n  dup2\n  dup2\n  mstore\n  pop\n  pop\n    /* \"contracts/kipu-bank.sol\":3799:3807  _bankCap */\n  dup1\n    /* \"contracts/kipu-bank.sol\":3787:3807  s_bankCap = _bankCap */\n  0xa0\n  dup2\n  dup2\n  mstore\n  pop\n  pop\n    /* \"contracts/kipu-bank.sol\":3835:3836  0 */\n  0x00\n    /* \"contracts/kipu-bank.sol\":3818:3832  s_depositCount */\n  0x01\n    /* \"contracts/kipu-bank.sol\":3818:3836  s_depositCount = 0 */\n  dup2\n  swap1\n  sstore\n  pop\n    /* \"contracts/kipu-bank.sol\":3865:3866  0 */\n  0x00\n    /* \"contracts/kipu-bank.sol\":3847:3862  s_withdrawCount */\n  0x02\n    /* \"contracts/kipu-bank.sol\":3847:3866  s_withdrawCount = 0 */\n  dup2\n  swap1\n  sstore\n  pop\n    /* \"contracts/kipu-bank.sol\":3524:3874  constructor(... */\n  pop\n  pop\n    /* \"contracts/kipu-bank.sol\":157:5957  contract KipuBank {... */\n  jump(tag_8)\n    /* \"#utility.yul\":88:205   */\ntag_10:\n    /* \"#utility.yul\":197:198   */\n  0x00\n    /* \"#utility.yul\":194:195   */\n  0x00\n    /* \"#utility.yul\":187:199   */\n  revert\n    /* \"#utility.yul\":334:411   */\ntag_12:\n    /* \"#utility.yul\":371:378   */\n  0x00\n    /* \"#utility.yul\":400:405   */\n  dup2\n    /* \"#utility.yul\":389:405   */\n  swap1\n  pop\n    /* \"#utility.yul\":334:411   */\n  swap2\n  swap1\n  pop\n  jump\t// out\n    /* \"#utility.yul\":417:539   */\ntag_13:\n    /* \"#utility.yul\":490:514   */\n  tag_21\n    /* \"#utility.yul\":508:513   */\n  dup2\n    /* \"#utility.yul\":490:514   */\n  tag_12\n  jump\t// in\ntag_21:\n    /* \"#utility.yul\":483:488   */\n  dup2\n    /* \"#utility.yul\":480:515   */\n  eq\n    /* \"#utility.yul\":470:533   */\n  tag_22\n  jumpi\n    /* \"#utility.yul\":529:530   */\n  0x00\n    /* \"#utility.yul\":526:527   */\n  0x00\n    /* \"#utility.yul\":519:531   */\n  revert\n    /* \"#utility.yul\":470:533   */\ntag_22:\n    /* \"#utility.yul\":417:539   */\n  pop\n  jump\t// out\n    /* \"#utility.yul\":545:688   */\ntag_14:\n    /* \"#utility.yul\":602:607   */\n  0x00\n    /* \"#utility.yul\":633:639   */\n  dup2\n    /* \"#utility.yul\":627:640   */\n  mload\n    /* \"#utility.yul\":618:640   */\n  swap1\n  pop\n    /* \"#utility.yul\":649:682   */\n  tag_24\n    /* \"#utility.yul\":676:681   */\n  dup2\n    /* \"#utility.yul\":649:682   */\n  tag_13\n  jump\t// in\ntag_24:\n    /* \"#utility.yul\":545:688   */\n  swap3\n  swap2\n  pop\n  pop\n  jump\t// out\n    /* \"#utility.yul\":694:1201   */\ntag_3:\n    /* \"#utility.yul\":773:779   */\n  0x00\n    /* \"#utility.yul\":781:787   */\n  0x00\n    /* \"#utility.yul\":830:832   */\n  0x40\n    /* \"#utility.yul\":818:827   */\n  dup4\n    /* \"#utility.yul\":809:816   */\n  dup6\n    /* \"#utility.yul\":805:828   */\n  sub\n    /* \"#utility.yul\":801:833   */\n  slt\n    /* \"#utility.yul\":798:917   */\n  iszero\n  tag_26\n  jumpi\n    /* \"#utility.yul\":836:915   */\n  tag_27\n  tag_10\n  jump\t// in\ntag_27:\n    /* \"#utility.yul\":798:917   */\ntag_26:\n    /* \"#utility.yul\":956:957   */\n  0x00\n    /* \"#utility.yul\":981:1045   */\n  tag_28\n    /* \"#utility.yul\":1037:1044   */\n  dup6\n    /* \"#utility.yul\":1028:1034   */\n  dup3\n    /* \"#utility.yul\":1017:1026   */\n  dup7\n    /* \"#utility.yul\":1013:1035   */\n  add\n    /* \"#utility.yul\":981:1045   */\n  tag_14\n  jump\t// in\ntag_28:\n    /* \"#utility.yul\":971:1045   */\n  swap3\n  pop\n    /* \"#utility.yul\":927:1055   */\n  pop\n    /* \"#utility.yul\":1094:1096   */\n  0x20\n    /* \"#utility.yul\":1120:1184   */\n  tag_29\n    /* \"#utility.yul\":1176:1183   */\n  dup6\n    /* \"#utility.yul\":1167:1173   */\n  dup3\n    /* \"#utility.yul\":1156:1165   */\n  dup7\n    /* \"#utility.yul\":1152:1174   */\n  add\n    /* \"#utility.yul\":1120:1184   */\n  tag_14\n  jump\t// in\ntag_29:\n    /* \"#utility.yul\":1110:1184   */\n  swap2\n  pop\n    /* \"#utility.yul\":1065:1194   */\n  pop\n    /* \"#utility.yul\":694:1201   */\n  swap3\n  pop\n  swap3\n  swap1\n  pop\n  jump\t// out\n    /* \"contracts/kipu-bank.sol\":157:5957  contract KipuBank {... */\ntag_8:\n  mload(0x80)\n  mload(0xa0)\n  codecopy(0x00, dataOffset(sub_0), dataSize(sub_0))\n  0x00\n  assignImmutable(\"0x789bcdf275fa270780a52ae3b79bb1ce0fda7e0aaad87b57b74bb99ac290714a\")\n  0x00\n  assignImmutable(\"0x1a192fabce13988b84994d4296e6cdc418d55e2f1d7f942188d4040b94fc57ac\")\n  return(0x00, dataSize(sub_0))\nstop\n\nsub_0: assembly {\n        /* \"contracts/kipu-bank.sol\":157:5957  contract KipuBank {... */\n      mstore(0x40, 0x80)\n      jumpi(tag_1, lt(calldatasize, 0x04))\n      shr(0xe0, calldataload(0x00))\n      dup1\n      0x80ef10ed\n      gt\n      tag_10\n      jumpi\n      dup1\n      0x80ef10ed\n      eq\n      tag_6\n      jumpi\n      dup1\n      0xac44f974\n      eq\n      tag_7\n      jumpi\n      dup1\n      0xcac2e25f\n      eq\n      tag_8\n      jumpi\n      dup1\n      0xd0e30db0\n      eq\n      tag_9\n      jumpi\n      jump(tag_2)\n    tag_10:\n      dup1\n      0x12065fe0\n      eq\n      tag_3\n      jumpi\n      dup1\n      0x2e1a7d4d\n      eq\n      tag_4\n      jumpi\n      dup1\n      0x78234a3b\n      eq\n      tag_5\n      jumpi\n      jump(tag_2)\n    tag_1:\n      jumpi(tag_2, calldatasize)\n        /* \"contracts/kipu-bank.sol\":3998:4021  DirectTransferAttempt() */\n      mload(0x40)\n      0x457752c900000000000000000000000000000000000000000000000000000000\n      dup2\n      mstore\n      0x04\n      add\n      mload(0x40)\n      dup1\n      swap2\n      sub\n      swap1\n      revert\n        /* \"contracts/kipu-bank.sol\":157:5957  contract KipuBank {... */\n    tag_2:\n      revert(0x00, 0x00)\n        /* \"contracts/kipu-bank.sol\":5848:5954  function getBalance() external view returns (uint256) {... */\n    tag_3:\n      callvalue\n      dup1\n      iszero\n      tag_13\n      jumpi\n      revert(0x00, 0x00)\n    tag_13:\n      pop\n      tag_14\n      tag_15\n      jump\t// in\n    tag_14:\n      mload(0x40)\n      tag_16\n      swap2\n      swap1\n      tag_17\n      jump\t// in\n    tag_16:\n      mload(0x40)\n      dup1\n      swap2\n      sub\n      swap1\n      return\n        /* \"contracts/kipu-bank.sol\":4921:5278  function withdraw(uint256 _amount) ... */\n    tag_4:\n      callvalue\n      dup1\n      iszero\n      tag_18\n      jumpi\n      revert(0x00, 0x00)\n    tag_18:\n      pop\n      tag_19\n      0x04\n      dup1\n      calldatasize\n      sub\n      dup2\n      add\n      swap1\n      tag_20\n      swap2\n      swap1\n      tag_21\n      jump\t// in\n    tag_20:\n      tag_22\n      jump\t// in\n    tag_19:\n      stop\n        /* \"contracts/kipu-bank.sol\":691:721  uint256 public s_withdrawCount */\n    tag_5:\n      callvalue\n      dup1\n      iszero\n      tag_23\n      jumpi\n      revert(0x00, 0x00)\n    tag_23:\n      pop\n      tag_24\n      tag_25\n      jump\t// in\n    tag_24:\n      mload(0x40)\n      tag_26\n      swap2\n      swap1\n      tag_17\n      jump\t// in\n    tag_26:\n      mload(0x40)\n      dup1\n      swap2\n      sub\n      swap1\n      return\n        /* \"contracts/kipu-bank.sol\":483:517  uint256 public immutable s_bankCap */\n    tag_6:\n      callvalue\n      dup1\n      iszero\n      tag_27\n      jumpi\n      revert(0x00, 0x00)\n    tag_27:\n      pop\n      tag_28\n      tag_29\n      jump\t// in\n    tag_28:\n      mload(0x40)\n      tag_30\n      swap2\n      swap1\n      tag_17\n      jump\t// in\n    tag_30:\n      mload(0x40)\n      dup1\n      swap2\n      sub\n      swap1\n      return\n        /* \"contracts/kipu-bank.sol\":367:411  uint256 public immutable s_thresholdWithdraw */\n    tag_7:\n      callvalue\n      dup1\n      iszero\n      tag_31\n      jumpi\n      revert(0x00, 0x00)\n    tag_31:\n      pop\n      tag_32\n      tag_33\n      jump\t// in\n    tag_32:\n      mload(0x40)\n      tag_34\n      swap2\n      swap1\n      tag_17\n      jump\t// in\n    tag_34:\n      mload(0x40)\n      dup1\n      swap2\n      sub\n      swap1\n      return\n        /* \"contracts/kipu-bank.sol\":588:617  uint256 public s_depositCount */\n    tag_8:\n      callvalue\n      dup1\n      iszero\n      tag_35\n      jumpi\n      revert(0x00, 0x00)\n    tag_35:\n      pop\n      tag_36\n      tag_37\n      jump\t// in\n    tag_36:\n      mload(0x40)\n      tag_38\n      swap2\n      swap1\n      tag_17\n      jump\t// in\n    tag_38:\n      mload(0x40)\n      dup1\n      swap2\n      sub\n      swap1\n      return\n        /* \"contracts/kipu-bank.sol\":4282:4533  function deposit()... */\n    tag_9:\n      tag_39\n      tag_40\n      jump\t// in\n    tag_39:\n      stop\n        /* \"contracts/kipu-bank.sol\":5848:5954  function getBalance() external view returns (uint256) {... */\n    tag_15:\n        /* \"contracts/kipu-bank.sol\":5893:5900  uint256 */\n      0x00\n        /* \"contracts/kipu-bank.sol\":5920:5934  s_bankAccounts */\n      0x00\n        /* \"contracts/kipu-bank.sol\":5920:5946  s_bankAccounts[msg.sender] */\n      0x00\n        /* \"contracts/kipu-bank.sol\":5935:5945  msg.sender */\n      caller\n        /* \"contracts/kipu-bank.sol\":5920:5946  s_bankAccounts[msg.sender] */\n      0xffffffffffffffffffffffffffffffffffffffff\n      and\n      0xffffffffffffffffffffffffffffffffffffffff\n      and\n      dup2\n      mstore\n      0x20\n      add\n      swap1\n      dup2\n      mstore\n      0x20\n      add\n      0x00\n      keccak256\n      sload\n        /* \"contracts/kipu-bank.sol\":5913:5946  return s_bankAccounts[msg.sender] */\n      swap1\n      pop\n        /* \"contracts/kipu-bank.sol\":5848:5954  function getBalance() external view returns (uint256) {... */\n      swap1\n      jump\t// out\n        /* \"contracts/kipu-bank.sol\":4921:5278  function withdraw(uint256 _amount) ... */\n    tag_22:\n        /* \"contracts/kipu-bank.sol\":4988:4995  _amount */\n      dup1\n        /* \"contracts/kipu-bank.sol\":2951:2952  0 */\n      0x00\n        /* \"contracts/kipu-bank.sol\":2940:2947  _amount */\n      dup2\n        /* \"contracts/kipu-bank.sol\":2940:2952  _amount == 0 */\n      sub\n        /* \"contracts/kipu-bank.sol\":2936:2984  if (_amount == 0) revert InvalidWithdrawAmount() */\n      tag_43\n      jumpi\n        /* \"contracts/kipu-bank.sol\":2961:2984  InvalidWithdrawAmount() */\n      mload(0x40)\n      0xdb73cdf000000000000000000000000000000000000000000000000000000000\n      dup2\n      mstore\n      0x04\n      add\n      mload(0x40)\n      dup1\n      swap2\n      sub\n      swap1\n      revert\n        /* \"contracts/kipu-bank.sol\":2936:2984  if (_amount == 0) revert InvalidWithdrawAmount() */\n    tag_43:\n        /* \"contracts/kipu-bank.sol\":5019:5026  _amount */\n      dup2\n        /* \"contracts/kipu-bank.sol\":3160:3179  s_thresholdWithdraw */\n      immutable(\"0x1a192fabce13988b84994d4296e6cdc418d55e2f1d7f942188d4040b94fc57ac\")\n        /* \"contracts/kipu-bank.sol\":3150:3157  _amount */\n      dup2\n        /* \"contracts/kipu-bank.sol\":3150:3179  _amount > s_thresholdWithdraw */\n      gt\n        /* \"contracts/kipu-bank.sol\":3146:3207  if (_amount > s_thresholdWithdraw) revert WithdrawOverLimit() */\n      iszero\n      tag_45\n      jumpi\n        /* \"contracts/kipu-bank.sol\":3188:3207  WithdrawOverLimit() */\n      mload(0x40)\n      0x08a2160500000000000000000000000000000000000000000000000000000000\n      dup2\n      mstore\n      0x04\n      add\n      mload(0x40)\n      dup1\n      swap2\n      sub\n      swap1\n      revert\n        /* \"contracts/kipu-bank.sol\":3146:3207  if (_amount > s_thresholdWithdraw) revert WithdrawOverLimit() */\n    tag_45:\n        /* \"contracts/kipu-bank.sol\":5051:5058  _amount */\n      dup3\n        /* \"contracts/kipu-bank.sol\":3398:3405  _amount */\n      dup1\n        /* \"contracts/kipu-bank.sol\":3369:3383  s_bankAccounts */\n      0x00\n        /* \"contracts/kipu-bank.sol\":3369:3395  s_bankAccounts[msg.sender] */\n      0x00\n        /* \"contracts/kipu-bank.sol\":3384:3394  msg.sender */\n      caller\n        /* \"contracts/kipu-bank.sol\":3369:3395  s_bankAccounts[msg.sender] */\n      0xffffffffffffffffffffffffffffffffffffffff\n      and\n      0xffffffffffffffffffffffffffffffffffffffff\n      and\n      dup2\n      mstore\n      0x20\n      add\n      swap1\n      dup2\n      mstore\n      0x20\n      add\n      0x00\n      keccak256\n      sload\n        /* \"contracts/kipu-bank.sol\":3369:3405  s_bankAccounts[msg.sender] < _amount */\n      lt\n        /* \"contracts/kipu-bank.sol\":3365:3497  if (s_bankAccounts[msg.sender] < _amount) {... */\n      iszero\n      tag_47\n      jumpi\n        /* \"contracts/kipu-bank.sol\":3449:3456  _amount */\n      dup1\n        /* \"contracts/kipu-bank.sol\":3458:3472  s_bankAccounts */\n      0x00\n        /* \"contracts/kipu-bank.sol\":3458:3484  s_bankAccounts[msg.sender] */\n      0x00\n        /* \"contracts/kipu-bank.sol\":3473:3483  msg.sender */\n      caller\n        /* \"contracts/kipu-bank.sol\":3458:3484  s_bankAccounts[msg.sender] */\n      0xffffffffffffffffffffffffffffffffffffffff\n      and\n      0xffffffffffffffffffffffffffffffffffffffff\n      and\n      dup2\n      mstore\n      0x20\n      add\n      swap1\n      dup2\n      mstore\n      0x20\n      add\n      0x00\n      keccak256\n      sload\n        /* \"contracts/kipu-bank.sol\":3429:3485  InsufficientBalance(_amount, s_bankAccounts[msg.sender]) */\n      mload(0x40)\n      0xcf47918100000000000000000000000000000000000000000000000000000000\n      dup2\n      mstore\n      0x04\n      add\n      tag_48\n      swap3\n      swap2\n      swap1\n      tag_49\n      jump\t// in\n    tag_48:\n      mload(0x40)\n      dup1\n      swap2\n      sub\n      swap1\n      revert\n        /* \"contracts/kipu-bank.sol\":3365:3497  if (s_bankAccounts[msg.sender] < _amount) {... */\n    tag_47:\n        /* \"contracts/kipu-bank.sol\":5106:5113  _amount */\n      dup4\n        /* \"contracts/kipu-bank.sol\":5076:5090  s_bankAccounts */\n      0x00\n        /* \"contracts/kipu-bank.sol\":5076:5102  s_bankAccounts[msg.sender] */\n      0x00\n        /* \"contracts/kipu-bank.sol\":5091:5101  msg.sender */\n      caller\n        /* \"contracts/kipu-bank.sol\":5076:5102  s_bankAccounts[msg.sender] */\n      0xffffffffffffffffffffffffffffffffffffffff\n      and\n      0xffffffffffffffffffffffffffffffffffffffff\n      and\n      dup2\n      mstore\n      0x20\n      add\n      swap1\n      dup2\n      mstore\n      0x20\n      add\n      0x00\n      keccak256\n      0x00\n        /* \"contracts/kipu-bank.sol\":5076:5113  s_bankAccounts[msg.sender] -= _amount */\n      dup3\n      dup3\n      sload\n      tag_51\n      swap2\n      swap1\n      tag_52\n      jump\t// in\n    tag_51:\n      swap3\n      pop\n      pop\n      dup2\n      swap1\n      sstore\n      pop\n        /* \"contracts/kipu-bank.sol\":5134:5158  _transferTokens(_amount) */\n      tag_53\n        /* \"contracts/kipu-bank.sol\":5150:5157  _amount */\n      dup5\n        /* \"contracts/kipu-bank.sol\":5134:5149  _transferTokens */\n      tag_54\n        /* \"contracts/kipu-bank.sol\":5134:5158  _transferTokens(_amount) */\n      jump\t// in\n    tag_53:\n        /* \"contracts/kipu-bank.sol\":5190:5191  1 */\n      0x01\n        /* \"contracts/kipu-bank.sol\":5171:5186  s_withdrawCount */\n      0x02\n      0x00\n        /* \"contracts/kipu-bank.sol\":5171:5191  s_withdrawCount += 1 */\n      dup3\n      dup3\n      sload\n      tag_55\n      swap2\n      swap1\n      tag_56\n      jump\t// in\n    tag_55:\n      swap3\n      pop\n      pop\n      dup2\n      swap1\n      sstore\n      pop\n        /* \"contracts/kipu-bank.sol\":5222:5232  msg.sender */\n      caller\n        /* \"contracts/kipu-bank.sol\":5209:5270  UserWithdraw(msg.sender, _amount, s_bankAccounts[msg.sender]) */\n      0xffffffffffffffffffffffffffffffffffffffff\n      and\n      0xd2263e970e3552b8e14c013f4d6af030894ef3ae6f025607042368db047a4418\n        /* \"contracts/kipu-bank.sol\":5234:5241  _amount */\n      dup6\n        /* \"contracts/kipu-bank.sol\":5243:5257  s_bankAccounts */\n      0x00\n        /* \"contracts/kipu-bank.sol\":5243:5269  s_bankAccounts[msg.sender] */\n      0x00\n        /* \"contracts/kipu-bank.sol\":5258:5268  msg.sender */\n      caller\n        /* \"contracts/kipu-bank.sol\":5243:5269  s_bankAccounts[msg.sender] */\n      0xffffffffffffffffffffffffffffffffffffffff\n      and\n      0xffffffffffffffffffffffffffffffffffffffff\n      and\n      dup2\n      mstore\n      0x20\n      add\n      swap1\n      dup2\n      mstore\n      0x20\n      add\n      0x00\n      keccak256\n      sload\n        /* \"contracts/kipu-bank.sol\":5209:5270  UserWithdraw(msg.sender, _amount, s_bankAccounts[msg.sender]) */\n      mload(0x40)\n      tag_57\n      swap3\n      swap2\n      swap1\n      tag_49\n      jump\t// in\n    tag_57:\n      mload(0x40)\n      dup1\n      swap2\n      sub\n      swap1\n      log2\n        /* \"contracts/kipu-bank.sol\":3218:3219  _ */\n      pop\n        /* \"contracts/kipu-bank.sol\":2995:2996  _ */\n      pop\n        /* \"contracts/kipu-bank.sol\":4921:5278  function withdraw(uint256 _amount) ... */\n      pop\n      pop\n      jump\t// out\n        /* \"contracts/kipu-bank.sol\":691:721  uint256 public s_withdrawCount */\n    tag_25:\n      sload(0x02)\n      dup2\n      jump\t// out\n        /* \"contracts/kipu-bank.sol\":483:517  uint256 public immutable s_bankCap */\n    tag_29:\n      immutable(\"0x789bcdf275fa270780a52ae3b79bb1ce0fda7e0aaad87b57b74bb99ac290714a\")\n      dup2\n      jump\t// out\n        /* \"contracts/kipu-bank.sol\":367:411  uint256 public immutable s_thresholdWithdraw */\n    tag_33:\n      immutable(\"0x1a192fabce13988b84994d4296e6cdc418d55e2f1d7f942188d4040b94fc57ac\")\n      dup2\n      jump\t// out\n        /* \"contracts/kipu-bank.sol\":588:617  uint256 public s_depositCount */\n    tag_37:\n      sload(0x01)\n      dup2\n      jump\t// out\n        /* \"contracts/kipu-bank.sol\":4282:4533  function deposit()... */\n    tag_40:\n        /* \"contracts/kipu-bank.sol\":4347:4356  msg.value */\n      callvalue\n        /* \"contracts/kipu-bank.sol\":2701:2710  s_bankCap */\n      immutable(\"0x789bcdf275fa270780a52ae3b79bb1ce0fda7e0aaad87b57b74bb99ac290714a\")\n        /* \"contracts/kipu-bank.sol\":2691:2698  _amount */\n      dup2\n        /* \"contracts/kipu-bank.sol\":2667:2688  address(this).balance */\n      selfbalance\n        /* \"contracts/kipu-bank.sol\":2667:2698  address(this).balance + _amount */\n      tag_59\n      swap2\n      swap1\n      tag_56\n      jump\t// in\n    tag_59:\n        /* \"contracts/kipu-bank.sol\":2667:2710  address(this).balance + _amount > s_bankCap */\n      gt\n        /* \"contracts/kipu-bank.sol\":2663:2791  if (address(this).balance + _amount > s_bankCap) {... */\n      iszero\n      tag_60\n      jumpi\n        /* \"contracts/kipu-bank.sol\":2757:2778  address(this).balance */\n      selfbalance\n        /* \"contracts/kipu-bank.sol\":2745:2754  s_bankCap */\n      immutable(\"0x789bcdf275fa270780a52ae3b79bb1ce0fda7e0aaad87b57b74bb99ac290714a\")\n        /* \"contracts/kipu-bank.sol\":2745:2778  s_bankCap - address(this).balance */\n      tag_61\n      swap2\n      swap1\n      tag_52\n      jump\t// in\n    tag_61:\n        /* \"contracts/kipu-bank.sol\":2734:2779  BankIsFull(s_bankCap - address(this).balance) */\n      mload(0x40)\n      0xcf4129df00000000000000000000000000000000000000000000000000000000\n      dup2\n      mstore\n      0x04\n      add\n      tag_62\n      swap2\n      swap1\n      tag_17\n      jump\t// in\n    tag_62:\n      mload(0x40)\n      dup1\n      swap2\n      sub\n      swap1\n      revert\n        /* \"contracts/kipu-bank.sol\":2663:2791  if (address(this).balance + _amount > s_bankCap) {... */\n    tag_60:\n        /* \"contracts/kipu-bank.sol\":4404:4413  msg.value */\n      callvalue\n        /* \"contracts/kipu-bank.sol\":4374:4388  s_bankAccounts */\n      0x00\n        /* \"contracts/kipu-bank.sol\":4374:4400  s_bankAccounts[msg.sender] */\n      0x00\n        /* \"contracts/kipu-bank.sol\":4389:4399  msg.sender */\n      caller\n        /* \"contracts/kipu-bank.sol\":4374:4400  s_bankAccounts[msg.sender] */\n      0xffffffffffffffffffffffffffffffffffffffff\n      and\n      0xffffffffffffffffffffffffffffffffffffffff\n      and\n      dup2\n      mstore\n      0x20\n      add\n      swap1\n      dup2\n      mstore\n      0x20\n      add\n      0x00\n      keccak256\n      0x00\n        /* \"contracts/kipu-bank.sol\":4374:4413  s_bankAccounts[msg.sender] += msg.value */\n      dup3\n      dup3\n      sload\n      tag_64\n      swap2\n      swap1\n      tag_56\n      jump\t// in\n    tag_64:\n      swap3\n      pop\n      pop\n      dup2\n      swap1\n      sstore\n      pop\n        /* \"contracts/kipu-bank.sol\":4444:4445  1 */\n      0x01\n        /* \"contracts/kipu-bank.sol\":4426:4440  s_depositCount */\n      dup1\n      0x00\n        /* \"contracts/kipu-bank.sol\":4426:4445  s_depositCount += 1 */\n      dup3\n      dup3\n      sload\n      tag_65\n      swap2\n      swap1\n      tag_56\n      jump\t// in\n    tag_65:\n      swap3\n      pop\n      pop\n      dup2\n      swap1\n      sstore\n      pop\n        /* \"contracts/kipu-bank.sol\":4475:4485  msg.sender */\n      caller\n        /* \"contracts/kipu-bank.sol\":4463:4525  UserDeposit(msg.sender, msg.value, s_bankAccounts[msg.sender]) */\n      0xffffffffffffffffffffffffffffffffffffffff\n      and\n      0x2f1a7fda57b5fd5cb62770aebd7fc9a8a0a834c5ff558eb7562f85f2b28c4375\n        /* \"contracts/kipu-bank.sol\":4487:4496  msg.value */\n      callvalue\n        /* \"contracts/kipu-bank.sol\":4498:4512  s_bankAccounts */\n      0x00\n        /* \"contracts/kipu-bank.sol\":4498:4524  s_bankAccounts[msg.sender] */\n      0x00\n        /* \"contracts/kipu-bank.sol\":4513:4523  msg.sender */\n      caller\n        /* \"contracts/kipu-bank.sol\":4498:4524  s_bankAccounts[msg.sender] */\n      0xffffffffffffffffffffffffffffffffffffffff\n      and\n      0xffffffffffffffffffffffffffffffffffffffff\n      and\n      dup2\n      mstore\n      0x20\n      add\n      swap1\n      dup2\n      mstore\n      0x20\n      add\n      0x00\n      keccak256\n      sload\n        /* \"contracts/kipu-bank.sol\":4463:4525  UserDeposit(msg.sender, msg.value, s_bankAccounts[msg.sender]) */\n      mload(0x40)\n      tag_66\n      swap3\n      swap2\n      swap1\n      tag_49\n      jump\t// in\n    tag_66:\n      mload(0x40)\n      dup1\n      swap2\n      sub\n      swap1\n      log2\n        /* \"contracts/kipu-bank.sol\":4282:4533  function deposit()... */\n      pop\n      jump\t// out\n        /* \"contracts/kipu-bank.sol\":5503:5674  function _transferTokens(uint256 _amount) private {... */\n    tag_54:\n        /* \"contracts/kipu-bank.sol\":5565:5577  bool success */\n      0x00\n        /* \"contracts/kipu-bank.sol\":5582:5592  msg.sender */\n      caller\n        /* \"contracts/kipu-bank.sol\":5582:5597  msg.sender.call */\n      0xffffffffffffffffffffffffffffffffffffffff\n      and\n        /* \"contracts/kipu-bank.sol\":5605:5612  _amount */\n      dup3\n        /* \"contracts/kipu-bank.sol\":5582:5617  msg.sender.call{value: _amount}(\"\") */\n      mload(0x40)\n      tag_68\n      swap1\n      tag_69\n      jump\t// in\n    tag_68:\n      0x00\n      mload(0x40)\n      dup1\n      dup4\n      sub\n      dup2\n      dup6\n      dup8\n      gas\n      call\n      swap3\n      pop\n      pop\n      pop\n      returndatasize\n      dup1\n      0x00\n      dup2\n      eq\n      tag_72\n      jumpi\n      mload(0x40)\n      swap2\n      pop\n      and(add(returndatasize, 0x3f), not(0x1f))\n      dup3\n      add\n      0x40\n      mstore\n      returndatasize\n      dup3\n      mstore\n      returndatasize\n      0x00\n      0x20\n      dup5\n      add\n      returndatacopy\n      jump(tag_71)\n    tag_72:\n      0x60\n      swap2\n      pop\n    tag_71:\n      pop\n        /* \"contracts/kipu-bank.sol\":5564:5617  (bool success,) = msg.sender.call{value: _amount}(\"\") */\n      pop\n      swap1\n      pop\n        /* \"contracts/kipu-bank.sol\":5632:5639  success */\n      dup1\n        /* \"contracts/kipu-bank.sol\":5628:5666  if(!success) revert TransactionError() */\n      tag_73\n      jumpi\n        /* \"contracts/kipu-bank.sol\":5648:5666  TransactionError() */\n      mload(0x40)\n      0x9557f59a00000000000000000000000000000000000000000000000000000000\n      dup2\n      mstore\n      0x04\n      add\n      mload(0x40)\n      dup1\n      swap2\n      sub\n      swap1\n      revert\n        /* \"contracts/kipu-bank.sol\":5628:5666  if(!success) revert TransactionError() */\n    tag_73:\n        /* \"contracts/kipu-bank.sol\":5553:5674  {... */\n      pop\n        /* \"contracts/kipu-bank.sol\":5503:5674  function _transferTokens(uint256 _amount) private {... */\n      pop\n      jump\t// out\n        /* \"#utility.yul\":7:84   */\n    tag_74:\n        /* \"#utility.yul\":44:51   */\n      0x00\n        /* \"#utility.yul\":73:78   */\n      dup2\n        /* \"#utility.yul\":62:78   */\n      swap1\n      pop\n        /* \"#utility.yul\":7:84   */\n      swap2\n      swap1\n      pop\n      jump\t// out\n        /* \"#utility.yul\":90:208   */\n    tag_75:\n        /* \"#utility.yul\":177:201   */\n      tag_88\n        /* \"#utility.yul\":195:200   */\n      dup2\n        /* \"#utility.yul\":177:201   */\n      tag_74\n      jump\t// in\n    tag_88:\n        /* \"#utility.yul\":172:175   */\n      dup3\n        /* \"#utility.yul\":165:202   */\n      mstore\n        /* \"#utility.yul\":90:208   */\n      pop\n      pop\n      jump\t// out\n        /* \"#utility.yul\":214:436   */\n    tag_17:\n        /* \"#utility.yul\":307:311   */\n      0x00\n        /* \"#utility.yul\":345:347   */\n      0x20\n        /* \"#utility.yul\":334:343   */\n      dup3\n        /* \"#utility.yul\":330:348   */\n      add\n        /* \"#utility.yul\":322:348   */\n      swap1\n      pop\n        /* \"#utility.yul\":358:429   */\n      tag_90\n        /* \"#utility.yul\":426:427   */\n      0x00\n        /* \"#utility.yul\":415:424   */\n      dup4\n        /* \"#utility.yul\":411:428   */\n      add\n        /* \"#utility.yul\":402:408   */\n      dup5\n        /* \"#utility.yul\":358:429   */\n      tag_75\n      jump\t// in\n    tag_90:\n        /* \"#utility.yul\":214:436   */\n      swap3\n      swap2\n      pop\n      pop\n      jump\t// out\n        /* \"#utility.yul\":523:640   */\n    tag_77:\n        /* \"#utility.yul\":632:633   */\n      0x00\n        /* \"#utility.yul\":629:630   */\n      0x00\n        /* \"#utility.yul\":622:634   */\n      revert\n        /* \"#utility.yul\":769:891   */\n    tag_79:\n        /* \"#utility.yul\":842:866   */\n      tag_95\n        /* \"#utility.yul\":860:865   */\n      dup2\n        /* \"#utility.yul\":842:866   */\n      tag_74\n      jump\t// in\n    tag_95:\n        /* \"#utility.yul\":835:840   */\n      dup2\n        /* \"#utility.yul\":832:867   */\n      eq\n        /* \"#utility.yul\":822:885   */\n      tag_96\n      jumpi\n        /* \"#utility.yul\":881:882   */\n      0x00\n        /* \"#utility.yul\":878:879   */\n      0x00\n        /* \"#utility.yul\":871:883   */\n      revert\n        /* \"#utility.yul\":822:885   */\n    tag_96:\n        /* \"#utility.yul\":769:891   */\n      pop\n      jump\t// out\n        /* \"#utility.yul\":897:1036   */\n    tag_80:\n        /* \"#utility.yul\":943:948   */\n      0x00\n        /* \"#utility.yul\":981:987   */\n      dup2\n        /* \"#utility.yul\":968:988   */\n      calldataload\n        /* \"#utility.yul\":959:988   */\n      swap1\n      pop\n        /* \"#utility.yul\":997:1030   */\n      tag_98\n        /* \"#utility.yul\":1024:1029   */\n      dup2\n        /* \"#utility.yul\":997:1030   */\n      tag_79\n      jump\t// in\n    tag_98:\n        /* \"#utility.yul\":897:1036   */\n      swap3\n      swap2\n      pop\n      pop\n      jump\t// out\n        /* \"#utility.yul\":1042:1371   */\n    tag_21:\n        /* \"#utility.yul\":1101:1107   */\n      0x00\n        /* \"#utility.yul\":1150:1152   */\n      0x20\n        /* \"#utility.yul\":1138:1147   */\n      dup3\n        /* \"#utility.yul\":1129:1136   */\n      dup5\n        /* \"#utility.yul\":1125:1148   */\n      sub\n        /* \"#utility.yul\":1121:1153   */\n      slt\n        /* \"#utility.yul\":1118:1237   */\n      iszero\n      tag_100\n      jumpi\n        /* \"#utility.yul\":1156:1235   */\n      tag_101\n      tag_77\n      jump\t// in\n    tag_101:\n        /* \"#utility.yul\":1118:1237   */\n    tag_100:\n        /* \"#utility.yul\":1276:1277   */\n      0x00\n        /* \"#utility.yul\":1301:1354   */\n      tag_102\n        /* \"#utility.yul\":1346:1353   */\n      dup5\n        /* \"#utility.yul\":1337:1343   */\n      dup3\n        /* \"#utility.yul\":1326:1335   */\n      dup6\n        /* \"#utility.yul\":1322:1344   */\n      add\n        /* \"#utility.yul\":1301:1354   */\n      tag_80\n      jump\t// in\n    tag_102:\n        /* \"#utility.yul\":1291:1354   */\n      swap2\n      pop\n        /* \"#utility.yul\":1247:1364   */\n      pop\n        /* \"#utility.yul\":1042:1371   */\n      swap3\n      swap2\n      pop\n      pop\n      jump\t// out\n        /* \"#utility.yul\":1377:1709   */\n    tag_49:\n        /* \"#utility.yul\":1498:1502   */\n      0x00\n        /* \"#utility.yul\":1536:1538   */\n      0x40\n        /* \"#utility.yul\":1525:1534   */\n      dup3\n        /* \"#utility.yul\":1521:1539   */\n      add\n        /* \"#utility.yul\":1513:1539   */\n      swap1\n      pop\n        /* \"#utility.yul\":1549:1620   */\n      tag_104\n        /* \"#utility.yul\":1617:1618   */\n      0x00\n        /* \"#utility.yul\":1606:1615   */\n      dup4\n        /* \"#utility.yul\":1602:1619   */\n      add\n        /* \"#utility.yul\":1593:1599   */\n      dup6\n        /* \"#utility.yul\":1549:1620   */\n      tag_75\n      jump\t// in\n    tag_104:\n        /* \"#utility.yul\":1630:1702   */\n      tag_105\n        /* \"#utility.yul\":1698:1700   */\n      0x20\n        /* \"#utility.yul\":1687:1696   */\n      dup4\n        /* \"#utility.yul\":1683:1701   */\n      add\n        /* \"#utility.yul\":1674:1680   */\n      dup5\n        /* \"#utility.yul\":1630:1702   */\n      tag_75\n      jump\t// in\n    tag_105:\n        /* \"#utility.yul\":1377:1709   */\n      swap4\n      swap3\n      pop\n      pop\n      pop\n      jump\t// out\n        /* \"#utility.yul\":1715:1895   */\n    tag_81:\n        /* \"#utility.yul\":1763:1840   */\n      0x4e487b7100000000000000000000000000000000000000000000000000000000\n        /* \"#utility.yul\":1760:1761   */\n      0x00\n        /* \"#utility.yul\":1753:1841   */\n      mstore\n        /* \"#utility.yul\":1860:1864   */\n      0x11\n        /* \"#utility.yul\":1857:1858   */\n      0x04\n        /* \"#utility.yul\":1850:1865   */\n      mstore\n        /* \"#utility.yul\":1884:1888   */\n      0x24\n        /* \"#utility.yul\":1881:1882   */\n      0x00\n        /* \"#utility.yul\":1874:1889   */\n      revert\n        /* \"#utility.yul\":1901:2095   */\n    tag_52:\n        /* \"#utility.yul\":1941:1945   */\n      0x00\n        /* \"#utility.yul\":1961:1981   */\n      tag_108\n        /* \"#utility.yul\":1979:1980   */\n      dup3\n        /* \"#utility.yul\":1961:1981   */\n      tag_74\n      jump\t// in\n    tag_108:\n        /* \"#utility.yul\":1956:1981   */\n      swap2\n      pop\n        /* \"#utility.yul\":1995:2015   */\n      tag_109\n        /* \"#utility.yul\":2013:2014   */\n      dup4\n        /* \"#utility.yul\":1995:2015   */\n      tag_74\n      jump\t// in\n    tag_109:\n        /* \"#utility.yul\":1990:2015   */\n      swap3\n      pop\n        /* \"#utility.yul\":2039:2040   */\n      dup3\n        /* \"#utility.yul\":2036:2037   */\n      dup3\n        /* \"#utility.yul\":2032:2041   */\n      sub\n        /* \"#utility.yul\":2024:2041   */\n      swap1\n      pop\n        /* \"#utility.yul\":2063:2064   */\n      dup2\n        /* \"#utility.yul\":2057:2061   */\n      dup2\n        /* \"#utility.yul\":2054:2065   */\n      gt\n        /* \"#utility.yul\":2051:2088   */\n      iszero\n      tag_110\n      jumpi\n        /* \"#utility.yul\":2068:2086   */\n      tag_111\n      tag_81\n      jump\t// in\n    tag_111:\n        /* \"#utility.yul\":2051:2088   */\n    tag_110:\n        /* \"#utility.yul\":1901:2095   */\n      swap3\n      swap2\n      pop\n      pop\n      jump\t// out\n        /* \"#utility.yul\":2101:2292   */\n    tag_56:\n        /* \"#utility.yul\":2141:2144   */\n      0x00\n        /* \"#utility.yul\":2160:2180   */\n      tag_113\n        /* \"#utility.yul\":2178:2179   */\n      dup3\n        /* \"#utility.yul\":2160:2180   */\n      tag_74\n      jump\t// in\n    tag_113:\n        /* \"#utility.yul\":2155:2180   */\n      swap2\n      pop\n        /* \"#utility.yul\":2194:2214   */\n      tag_114\n        /* \"#utility.yul\":2212:2213   */\n      dup4\n        /* \"#utility.yul\":2194:2214   */\n      tag_74\n      jump\t// in\n    tag_114:\n        /* \"#utility.yul\":2189:2214   */\n      swap3\n      pop\n        /* \"#utility.yul\":2237:2238   */\n      dup3\n        /* \"#utility.yul\":2234:2235   */\n      dup3\n        /* \"#utility.yul\":2230:2239   */\n      add\n        /* \"#utility.yul\":2223:2239   */\n      swap1\n      pop\n        /* \"#utility.yul\":2258:2261   */\n      dup1\n        /* \"#utility.yul\":2255:2256   */\n      dup3\n        /* \"#utility.yul\":2252:2262   */\n      gt\n        /* \"#utility.yul\":2249:2285   */\n      iszero\n      tag_115\n      jumpi\n        /* \"#utility.yul\":2265:2283   */\n      tag_116\n      tag_81\n      jump\t// in\n    tag_116:\n        /* \"#utility.yul\":2249:2285   */\n    tag_115:\n        /* \"#utility.yul\":2101:2292   */\n      swap3\n      swap2\n      pop\n      pop\n      jump\t// out\n        /* \"#utility.yul\":2298:2445   */\n    tag_82:\n        /* \"#utility.yul\":2399:2410   */\n      0x00\n        /* \"#utility.yul\":2436:2439   */\n      dup2\n        /* \"#utility.yul\":2421:2439   */\n      swap1\n      pop\n        /* \"#utility.yul\":2298:2445   */\n      swap3\n      swap2\n      pop\n      pop\n      jump\t// out\n        /* \"#utility.yul\":2451:2565   */\n    tag_83:\n      pop\n      jump\t// out\n        /* \"#utility.yul\":2571:2969   */\n    tag_84:\n        /* \"#utility.yul\":2730:2733   */\n      0x00\n        /* \"#utility.yul\":2751:2834   */\n      tag_120\n        /* \"#utility.yul\":2832:2833   */\n      0x00\n        /* \"#utility.yul\":2827:2830   */\n      dup4\n        /* \"#utility.yul\":2751:2834   */\n      tag_82\n      jump\t// in\n    tag_120:\n        /* \"#utility.yul\":2744:2834   */\n      swap2\n      pop\n        /* \"#utility.yul\":2843:2936   */\n      tag_121\n        /* \"#utility.yul\":2932:2935   */\n      dup3\n        /* \"#utility.yul\":2843:2936   */\n      tag_83\n      jump\t// in\n    tag_121:\n        /* \"#utility.yul\":2961:2962   */\n      0x00\n        /* \"#utility.yul\":2956:2959   */\n      dup3\n        /* \"#utility.yul\":2952:2963   */\n      add\n        /* \"#utility.yul\":2945:2963   */\n      swap1\n      pop\n        /* \"#utility.yul\":2571:2969   */\n      swap2\n      swap1\n      pop\n      jump\t// out\n        /* \"#utility.yul\":2975:3354   */\n    tag_69:\n        /* \"#utility.yul\":3159:3162   */\n      0x00\n        /* \"#utility.yul\":3181:3328   */\n      tag_123\n        /* \"#utility.yul\":3324:3327   */\n      dup3\n        /* \"#utility.yul\":3181:3328   */\n      tag_84\n      jump\t// in\n    tag_123:\n        /* \"#utility.yul\":3174:3328   */\n      swap2\n      pop\n        /* \"#utility.yul\":3345:3348   */\n      dup2\n        /* \"#utility.yul\":3338:3348   */\n      swap1\n      pop\n        /* \"#utility.yul\":2975:3354   */\n      swap2\n      swap1\n      pop\n      jump\t// out\n\n    auxdata: 0xa2646970667358221220a134e68265ca43f154114bfc26004671fb0d7a32f77c4be619a48478c536a6d764736f6c634300081e0033\n}\n",
				"bytecode": {
					"linkReferences": {},
					"object": "60c060405234801561000f575f5ffd5b50604051610a0a380380610a0a833981810160405281019061003191906100ff565b5f820361006a576040517faabd5a0900000000000000000000000000000000000000000000000000000000815260040160405180910390fd5b5f81036100a3576040517f2f9874a700000000000000000000000000000000000000000000000000000000815260040160405180910390fd5b81608081815250508060a081815250505f6001819055505f600281905550505061013d565b5f5ffd5b5f819050919050565b6100de816100cc565b81146100e8575f5ffd5b50565b5f815190506100f9816100d5565b92915050565b5f5f60408385031215610115576101146100c8565b5b5f610122858286016100eb565b9250506020610133858286016100eb565b9150509250929050565b60805160a0516108976101735f395f8181610458015281816104a701526104db01525f8181610232015261047c01526108975ff3fe608060405260043610610073575f3560e01c806380ef10ed1161004d57806380ef10ed1461012a578063ac44f97414610154578063cac2e25f1461017e578063d0e30db0146101a8576100aa565b806312065fe0146100ae5780632e1a7d4d146100d857806378234a3b14610100576100aa565b366100aa576040517f457752c900000000000000000000000000000000000000000000000000000000815260040160405180910390fd5b5f5ffd5b3480156100b9575f5ffd5b506100c26101b2565b6040516100cf91906106f4565b60405180910390f35b3480156100e3575f5ffd5b506100fe60048036038101906100f9919061073b565b6101f5565b005b34801561010b575f5ffd5b50610114610450565b60405161012191906106f4565b60405180910390f35b348015610135575f5ffd5b5061013e610456565b60405161014b91906106f4565b60405180910390f35b34801561015f575f5ffd5b5061016861047a565b60405161017591906106f4565b60405180910390f35b348015610189575f5ffd5b5061019261049e565b60405161019f91906106f4565b60405180910390f35b6101b06104a4565b005b5f5f5f3373ffffffffffffffffffffffffffffffffffffffff1673ffffffffffffffffffffffffffffffffffffffff1681526020019081526020015f2054905090565b805f810361022f576040517fdb73cdf000000000000000000000000000000000000000000000000000000000815260040160405180910390fd5b817f000000000000000000000000000000000000000000000000000000000000000081111561028a576040517f08a2160500000000000000000000000000000000000000000000000000000000815260040160405180910390fd5b82805f5f3373ffffffffffffffffffffffffffffffffffffffff1673ffffffffffffffffffffffffffffffffffffffff1681526020019081526020015f2054101561034a57805f5f3373ffffffffffffffffffffffffffffffffffffffff1673ffffffffffffffffffffffffffffffffffffffff1681526020019081526020015f20546040517fcf479181000000000000000000000000000000000000000000000000000000008152600401610341929190610766565b60405180910390fd5b835f5f3373ffffffffffffffffffffffffffffffffffffffff1673ffffffffffffffffffffffffffffffffffffffff1681526020019081526020015f205f82825461039591906107ba565b925050819055506103a584610639565b600160025f8282546103b791906107ed565b925050819055503373ffffffffffffffffffffffffffffffffffffffff167fd2263e970e3552b8e14c013f4d6af030894ef3ae6f025607042368db047a4418855f5f3373ffffffffffffffffffffffffffffffffffffffff1673ffffffffffffffffffffffffffffffffffffffff1681526020019081526020015f2054604051610442929190610766565b60405180910390a250505050565b60025481565b7f000000000000000000000000000000000000000000000000000000000000000081565b7f000000000000000000000000000000000000000000000000000000000000000081565b60015481565b347f000000000000000000000000000000000000000000000000000000000000000081476104d291906107ed565b111561054057477f000000000000000000000000000000000000000000000000000000000000000061050491906107ba565b6040517fcf4129df00000000000000000000000000000000000000000000000000000000815260040161053791906106f4565b60405180910390fd5b345f5f3373ffffffffffffffffffffffffffffffffffffffff1673ffffffffffffffffffffffffffffffffffffffff1681526020019081526020015f205f82825461058b91906107ed565b925050819055506001805f8282546105a391906107ed565b925050819055503373ffffffffffffffffffffffffffffffffffffffff167f2f1a7fda57b5fd5cb62770aebd7fc9a8a0a834c5ff558eb7562f85f2b28c4375345f5f3373ffffffffffffffffffffffffffffffffffffffff1673ffffffffffffffffffffffffffffffffffffffff1681526020019081526020015f205460405161062e929190610766565b60405180910390a250565b5f3373ffffffffffffffffffffffffffffffffffffffff168260405161065e9061084d565b5f6040518083038185875af1925050503d805f8114610698576040519150601f19603f3d011682016040523d82523d5f602084013e61069d565b606091505b50509050806106d8576040517f9557f59a00000000000000000000000000000000000000000000000000000000815260040160405180910390fd5b5050565b5f819050919050565b6106ee816106dc565b82525050565b5f6020820190506107075f8301846106e5565b92915050565b5f5ffd5b61071a816106dc565b8114610724575f5ffd5b50565b5f8135905061073581610711565b92915050565b5f602082840312156107505761074f61070d565b5b5f61075d84828501610727565b91505092915050565b5f6040820190506107795f8301856106e5565b61078660208301846106e5565b9392505050565b7f4e487b71000000000000000000000000000000000000000000000000000000005f52601160045260245ffd5b5f6107c4826106dc565b91506107cf836106dc565b92508282039050818111156107e7576107e661078d565b5b92915050565b5f6107f7826106dc565b9150610802836106dc565b925082820190508082111561081a5761081961078d565b5b92915050565b5f81905092915050565b50565b5f6108385f83610820565b91506108438261082a565b5f82019050919050565b5f6108578261082d565b915081905091905056fea2646970667358221220a134e68265ca43f154114bfc26004671fb0d7a32f77c4be619a48478c536a6d764736f6c634300081e0033",
					"opcodes": "PUSH1 0xC0 PUSH1 0x40 MSTORE CALLVALUE DUP1 ISZERO PUSH2 0xF JUMPI PUSH0 PUSH0 REVERT JUMPDEST POP PUSH1 0x40 MLOAD PUSH2 0xA0A CODESIZE SUB DUP1 PUSH2 0xA0A DUP4 CODECOPY DUP2 DUP2 ADD PUSH1 0x40 MSTORE DUP2 ADD SWAP1 PUSH2 0x31 SWAP2 SWAP1 PUSH2 0xFF JUMP JUMPDEST PUSH0 DUP3 SUB PUSH2 0x6A JUMPI PUSH1 0x40 MLOAD PUSH32 0xAABD5A0900000000000000000000000000000000000000000000000000000000 DUP2 MSTORE PUSH1 0x4 ADD PUSH1 0x40 MLOAD DUP1 SWAP2 SUB SWAP1 REVERT JUMPDEST PUSH0 DUP2 SUB PUSH2 0xA3 JUMPI PUSH1 0x40 MLOAD PUSH32 0x2F9874A700000000000000000000000000000000000000000000000000000000 DUP2 MSTORE PUSH1 0x4 ADD PUSH1 0x40 MLOAD DUP1 SWAP2 SUB SWAP1 REVERT JUMPDEST DUP2 PUSH1 0x80 DUP2 DUP2 MSTORE POP POP DUP1 PUSH1 0xA0 DUP2 DUP2 MSTORE POP POP PUSH0 PUSH1 0x1 DUP2 SWAP1 SSTORE POP PUSH0 PUSH1 0x2 DUP2 SWAP1 SSTORE POP POP POP PUSH2 0x13D JUMP JUMPDEST PUSH0 PUSH0 REVERT JUMPDEST PUSH0 DUP2 SWAP1 POP SWAP2 SWAP1 POP JUMP JUMPDEST PUSH2 0xDE DUP2 PUSH2 0xCC JUMP JUMPDEST DUP2 EQ PUSH2 0xE8 JUMPI PUSH0 PUSH0 REVERT JUMPDEST POP JUMP JUMPDEST PUSH0 DUP2 MLOAD SWAP1 POP PUSH2 0xF9 DUP2 PUSH2 0xD5 JUMP JUMPDEST SWAP3 SWAP2 POP POP JUMP JUMPDEST PUSH0 PUSH0 PUSH1 0x40 DUP4 DUP6 SUB SLT ISZERO PUSH2 0x115 JUMPI PUSH2 0x114 PUSH2 0xC8 JUMP JUMPDEST JUMPDEST PUSH0 PUSH2 0x122 DUP6 DUP3 DUP7 ADD PUSH2 0xEB JUMP JUMPDEST SWAP3 POP POP PUSH1 0x20 PUSH2 0x133 DUP6 DUP3 DUP7 ADD PUSH2 0xEB JUMP JUMPDEST SWAP2 POP POP SWAP3 POP SWAP3 SWAP1 POP JUMP JUMPDEST PUSH1 0x80 MLOAD PUSH1 0xA0 MLOAD PUSH2 0x897 PUSH2 0x173 PUSH0 CODECOPY PUSH0 DUP2 DUP2 PUSH2 0x458 ADD MSTORE DUP2 DUP2 PUSH2 0x4A7 ADD MSTORE PUSH2 0x4DB ADD MSTORE PUSH0 DUP2 DUP2 PUSH2 0x232 ADD MSTORE PUSH2 0x47C ADD MSTORE PUSH2 0x897 PUSH0 RETURN INVALID PUSH1 0x80 PUSH1 0x40 MSTORE PUSH1 0x4 CALLDATASIZE LT PUSH2 0x73 JUMPI PUSH0 CALLDATALOAD PUSH1 0xE0 SHR DUP1 PUSH4 0x80EF10ED GT PUSH2 0x4D JUMPI DUP1 PUSH4 0x80EF10ED EQ PUSH2 0x12A JUMPI DUP1 PUSH4 0xAC44F974 EQ PUSH2 0x154 JUMPI DUP1 PUSH4 0xCAC2E25F EQ PUSH2 0x17E JUMPI DUP1 PUSH4 0xD0E30DB0 EQ PUSH2 0x1A8 JUMPI PUSH2 0xAA JUMP JUMPDEST DUP1 PUSH4 0x12065FE0 EQ PUSH2 0xAE JUMPI DUP1 PUSH4 0x2E1A7D4D EQ PUSH2 0xD8 JUMPI DUP1 PUSH4 0x78234A3B EQ PUSH2 0x100 JUMPI PUSH2 0xAA JUMP JUMPDEST CALLDATASIZE PUSH2 0xAA JUMPI PUSH1 0x40 MLOAD PUSH32 0x457752C900000000000000000000000000000000000000000000000000000000 DUP2 MSTORE PUSH1 0x4 ADD PUSH1 0x40 MLOAD DUP1 SWAP2 SUB SWAP1 REVERT JUMPDEST PUSH0 PUSH0 REVERT JUMPDEST CALLVALUE DUP1 ISZERO PUSH2 0xB9 JUMPI PUSH0 PUSH0 REVERT JUMPDEST POP PUSH2 0xC2 PUSH2 0x1B2 JUMP JUMPDEST PUSH1 0x40 MLOAD PUSH2 0xCF SWAP2 SWAP1 PUSH2 0x6F4 JUMP JUMPDEST PUSH1 0x40 MLOAD DUP1 SWAP2 SUB SWAP1 RETURN JUMPDEST CALLVALUE DUP1 ISZERO PUSH2 0xE3 JUMPI PUSH0 PUSH0 REVERT JUMPDEST POP PUSH2 0xFE PUSH1 0x4 DUP1 CALLDATASIZE SUB DUP2 ADD SWAP1 PUSH2 0xF9 SWAP2 SWAP1 PUSH2 0x73B JUMP JUMPDEST PUSH2 0x1F5 JUMP JUMPDEST STOP JUMPDEST CALLVALUE DUP1 ISZERO PUSH2 0x10B JUMPI PUSH0 PUSH0 REVERT JUMPDEST POP PUSH2 0x114 PUSH2 0x450 JUMP JUMPDEST PUSH1 0x40 MLOAD PUSH2 0x121 SWAP2 SWAP1 PUSH2 0x6F4 JUMP JUMPDEST PUSH1 0x40 MLOAD DUP1 SWAP2 SUB SWAP1 RETURN JUMPDEST CALLVALUE DUP1 ISZERO PUSH2 0x135 JUMPI PUSH0 PUSH0 REVERT JUMPDEST POP PUSH2 0x13E PUSH2 0x456 JUMP JUMPDEST PUSH1 0x40 MLOAD PUSH2 0x14B SWAP2 SWAP1 PUSH2 0x6F4 JUMP JUMPDEST PUSH1 0x40 MLOAD DUP1 SWAP2 SUB SWAP1 RETURN JUMPDEST CALLVALUE DUP1 ISZERO PUSH2 0x15F JUMPI PUSH0 PUSH0 REVERT JUMPDEST POP PUSH2 0x168 PUSH2 0x47A JUMP JUMPDEST PUSH1 0x40 MLOAD PUSH2 0x175 SWAP2 SWAP1 PUSH2 0x6F4 JUMP JUMPDEST PUSH1 0x40 MLOAD DUP1 SWAP2 SUB SWAP1 RETURN JUMPDEST CALLVALUE DUP1 ISZERO PUSH2 0x189 JUMPI PUSH0 PUSH0 REVERT JUMPDEST POP PUSH2 0x192 PUSH2 0x49E JUMP JUMPDEST PUSH1 0x40 MLOAD PUSH2 0x19F SWAP2 SWAP1 PUSH2 0x6F4 JUMP JUMPDEST PUSH1 0x40 MLOAD DUP1 SWAP2 SUB SWAP1 RETURN JUMPDEST PUSH2 0x1B0 PUSH2 0x4A4 JUMP JUMPDEST STOP JUMPDEST PUSH0 PUSH0 PUSH0 CALLER PUSH20 0xFFFFFFFFFFFFFFFFFFFFFFFFFFFFFFFFFFFFFFFF AND PUSH20 0xFFFFFFFFFFFFFFFFFFFFFFFFFFFFFFFFFFFFFFFF AND DUP2 MSTORE PUSH1 0x20 ADD SWAP1 DUP2 MSTORE PUSH1 0x20 ADD PUSH0 KECCAK256 SLOAD SWAP1 POP SWAP1 JUMP JUMPDEST DUP1 PUSH0 DUP2 SUB PUSH2 0x22F JUMPI PUSH1 0x40 MLOAD PUSH32 0xDB73CDF000000000000000000000000000000000000000000000000000000000 DUP2 MSTORE PUSH1 0x4 ADD PUSH1 0x40 MLOAD DUP1 SWAP2 SUB SWAP1 REVERT JUMPDEST DUP2 PUSH32 0x0 DUP2 GT ISZERO PUSH2 0x28A JUMPI PUSH1 0x40 MLOAD PUSH32 0x8A2160500000000000000000000000000000000000000000000000000000000 DUP2 MSTORE PUSH1 0x4 ADD PUSH1 0x40 MLOAD DUP1 SWAP2 SUB SWAP1 REVERT JUMPDEST DUP3 DUP1 PUSH0 PUSH0 CALLER PUSH20 0xFFFFFFFFFFFFFFFFFFFFFFFFFFFFFFFFFFFFFFFF AND PUSH20 0xFFFFFFFFFFFFFFFFFFFFFFFFFFFFFFFFFFFFFFFF AND DUP2 MSTORE PUSH1 0x20 ADD SWAP1 DUP2 MSTORE PUSH1 0x20 ADD PUSH0 KECCAK256 SLOAD LT ISZERO PUSH2 0x34A JUMPI DUP1 PUSH0 PUSH0 CALLER PUSH20 0xFFFFFFFFFFFFFFFFFFFFFFFFFFFFFFFFFFFFFFFF AND PUSH20 0xFFFFFFFFFFFFFFFFFFFFFFFFFFFFFFFFFFFFFFFF AND DUP2 MSTORE PUSH1 0x20 ADD SWAP1 DUP2 MSTORE PUSH1 0x20 ADD PUSH0 KECCAK256 SLOAD PUSH1 0x40 MLOAD PUSH32 0xCF47918100000000000000000000000000000000000000000000000000000000 DUP2 MSTORE PUSH1 0x4 ADD PUSH2 0x341 SWAP3 SWAP2 SWAP1 PUSH2 0x766 JUMP JUMPDEST PUSH1 0x40 MLOAD DUP1 SWAP2 SUB SWAP1 REVERT JUMPDEST DUP4 PUSH0 PUSH0 CALLER PUSH20 0xFFFFFFFFFFFFFFFFFFFFFFFFFFFFFFFFFFFFFFFF AND PUSH20 0xFFFFFFFFFFFFFFFFFFFFFFFFFFFFFFFFFFFFFFFF AND DUP2 MSTORE PUSH1 0x20 ADD SWAP1 DUP2 MSTORE PUSH1 0x20 ADD PUSH0 KECCAK256 PUSH0 DUP3 DUP3 SLOAD PUSH2 0x395 SWAP2 SWAP1 PUSH2 0x7BA JUMP JUMPDEST SWAP3 POP POP DUP2 SWAP1 SSTORE POP PUSH2 0x3A5 DUP5 PUSH2 0x639 JUMP JUMPDEST PUSH1 0x1 PUSH1 0x2 PUSH0 DUP3 DUP3 SLOAD PUSH2 0x3B7 SWAP2 SWAP1 PUSH2 0x7ED JUMP JUMPDEST SWAP3 POP POP DUP2 SWAP1 SSTORE POP CALLER PUSH20 0xFFFFFFFFFFFFFFFFFFFFFFFFFFFFFFFFFFFFFFFF AND PUSH32 0xD2263E970E3552B8E14C013F4D6AF030894EF3AE6F025607042368DB047A4418 DUP6 PUSH0 PUSH0 CALLER PUSH20 0xFFFFFFFFFFFFFFFFFFFFFFFFFFFFFFFFFFFFFFFF AND PUSH20 0xFFFFFFFFFFFFFFFFFFFFFFFFFFFFFFFFFFFFFFFF AND DUP2 MSTORE PUSH1 0x20 ADD SWAP1 DUP2 MSTORE PUSH1 0x20 ADD PUSH0 KECCAK256 SLOAD PUSH1 0x40 MLOAD PUSH2 0x442 SWAP3 SWAP2 SWAP1 PUSH2 0x766 JUMP JUMPDEST PUSH1 0x40 MLOAD DUP1 SWAP2 SUB SWAP1 LOG2 POP POP POP POP JUMP JUMPDEST PUSH1 0x2 SLOAD DUP2 JUMP JUMPDEST PUSH32 0x0 DUP2 JUMP JUMPDEST PUSH32 0x0 DUP2 JUMP JUMPDEST PUSH1 0x1 SLOAD DUP2 JUMP JUMPDEST CALLVALUE PUSH32 0x0 DUP2 SELFBALANCE PUSH2 0x4D2 SWAP2 SWAP1 PUSH2 0x7ED JUMP JUMPDEST GT ISZERO PUSH2 0x540 JUMPI SELFBALANCE PUSH32 0x0 PUSH2 0x504 SWAP2 SWAP1 PUSH2 0x7BA JUMP JUMPDEST PUSH1 0x40 MLOAD PUSH32 0xCF4129DF00000000000000000000000000000000000000000000000000000000 DUP2 MSTORE PUSH1 0x4 ADD PUSH2 0x537 SWAP2 SWAP1 PUSH2 0x6F4 JUMP JUMPDEST PUSH1 0x40 MLOAD DUP1 SWAP2 SUB SWAP1 REVERT JUMPDEST CALLVALUE PUSH0 PUSH0 CALLER PUSH20 0xFFFFFFFFFFFFFFFFFFFFFFFFFFFFFFFFFFFFFFFF AND PUSH20 0xFFFFFFFFFFFFFFFFFFFFFFFFFFFFFFFFFFFFFFFF AND DUP2 MSTORE PUSH1 0x20 ADD SWAP1 DUP2 MSTORE PUSH1 0x20 ADD PUSH0 KECCAK256 PUSH0 DUP3 DUP3 SLOAD PUSH2 0x58B SWAP2 SWAP1 PUSH2 0x7ED JUMP JUMPDEST SWAP3 POP POP DUP2 SWAP1 SSTORE POP PUSH1 0x1 DUP1 PUSH0 DUP3 DUP3 SLOAD PUSH2 0x5A3 SWAP2 SWAP1 PUSH2 0x7ED JUMP JUMPDEST SWAP3 POP POP DUP2 SWAP1 SSTORE POP CALLER PUSH20 0xFFFFFFFFFFFFFFFFFFFFFFFFFFFFFFFFFFFFFFFF AND PUSH32 0x2F1A7FDA57B5FD5CB62770AEBD7FC9A8A0A834C5FF558EB7562F85F2B28C4375 CALLVALUE PUSH0 PUSH0 CALLER PUSH20 0xFFFFFFFFFFFFFFFFFFFFFFFFFFFFFFFFFFFFFFFF AND PUSH20 0xFFFFFFFFFFFFFFFFFFFFFFFFFFFFFFFFFFFFFFFF AND DUP2 MSTORE PUSH1 0x20 ADD SWAP1 DUP2 MSTORE PUSH1 0x20 ADD PUSH0 KECCAK256 SLOAD PUSH1 0x40 MLOAD PUSH2 0x62E SWAP3 SWAP2 SWAP1 PUSH2 0x766 JUMP JUMPDEST PUSH1 0x40 MLOAD DUP1 SWAP2 SUB SWAP1 LOG2 POP JUMP JUMPDEST PUSH0 CALLER PUSH20 0xFFFFFFFFFFFFFFFFFFFFFFFFFFFFFFFFFFFFFFFF AND DUP3 PUSH1 0x40 MLOAD PUSH2 0x65E SWAP1 PUSH2 0x84D JUMP JUMPDEST PUSH0 PUSH1 0x40 MLOAD DUP1 DUP4 SUB DUP2 DUP6 DUP8 GAS CALL SWAP3 POP POP POP RETURNDATASIZE DUP1 PUSH0 DUP2 EQ PUSH2 0x698 JUMPI PUSH1 0x40 MLOAD SWAP2 POP PUSH1 0x1F NOT PUSH1 0x3F RETURNDATASIZE ADD AND DUP3 ADD PUSH1 0x40 MSTORE RETURNDATASIZE DUP3 MSTORE RETURNDATASIZE PUSH0 PUSH1 0x20 DUP5 ADD RETURNDATACOPY PUSH2 0x69D JUMP JUMPDEST PUSH1 0x60 SWAP2 POP JUMPDEST POP POP SWAP1 POP DUP1 PUSH2 0x6D8 JUMPI PUSH1 0x40 MLOAD PUSH32 0x9557F59A00000000000000000000000000000000000000000000000000000000 DUP2 MSTORE PUSH1 0x4 ADD PUSH1 0x40 MLOAD DUP1 SWAP2 SUB SWAP1 REVERT JUMPDEST POP POP JUMP JUMPDEST PUSH0 DUP2 SWAP1 POP SWAP2 SWAP1 POP JUMP JUMPDEST PUSH2 0x6EE DUP2 PUSH2 0x6DC JUMP JUMPDEST DUP3 MSTORE POP POP JUMP JUMPDEST PUSH0 PUSH1 0x20 DUP3 ADD SWAP1 POP PUSH2 0x707 PUSH0 DUP4 ADD DUP5 PUSH2 0x6E5 JUMP JUMPDEST SWAP3 SWAP2 POP POP JUMP JUMPDEST PUSH0 PUSH0 REVERT JUMPDEST PUSH2 0x71A DUP2 PUSH2 0x6DC JUMP JUMPDEST DUP2 EQ PUSH2 0x724 JUMPI PUSH0 PUSH0 REVERT JUMPDEST POP JUMP JUMPDEST PUSH0 DUP2 CALLDATALOAD SWAP1 POP PUSH2 0x735 DUP2 PUSH2 0x711 JUMP JUMPDEST SWAP3 SWAP2 POP POP JUMP JUMPDEST PUSH0 PUSH1 0x20 DUP3 DUP5 SUB SLT ISZERO PUSH2 0x750 JUMPI PUSH2 0x74F PUSH2 0x70D JUMP JUMPDEST JUMPDEST PUSH0 PUSH2 0x75D DUP5 DUP3 DUP6 ADD PUSH2 0x727 JUMP JUMPDEST SWAP2 POP POP SWAP3 SWAP2 POP POP JUMP JUMPDEST PUSH0 PUSH1 0x40 DUP3 ADD SWAP1 POP PUSH2 0x779 PUSH0 DUP4 ADD DUP6 PUSH2 0x6E5 JUMP JUMPDEST PUSH2 0x786 PUSH1 0x20 DUP4 ADD DUP5 PUSH2 0x6E5 JUMP JUMPDEST SWAP4 SWAP3 POP POP POP JUMP JUMPDEST PUSH32 0x4E487B7100000000000000000000000000000000000000000000000000000000 PUSH0 MSTORE PUSH1 0x11 PUSH1 0x4 MSTORE PUSH1 0x24 PUSH0 REVERT JUMPDEST PUSH0 PUSH2 0x7C4 DUP3 PUSH2 0x6DC JUMP JUMPDEST SWAP2 POP PUSH2 0x7CF DUP4 PUSH2 0x6DC JUMP JUMPDEST SWAP3 POP DUP3 DUP3 SUB SWAP1 POP DUP2 DUP2 GT ISZERO PUSH2 0x7E7 JUMPI PUSH2 0x7E6 PUSH2 0x78D JUMP JUMPDEST JUMPDEST SWAP3 SWAP2 POP POP JUMP JUMPDEST PUSH0 PUSH2 0x7F7 DUP3 PUSH2 0x6DC JUMP JUMPDEST SWAP2 POP PUSH2 0x802 DUP4 PUSH2 0x6DC JUMP JUMPDEST SWAP3 POP DUP3 DUP3 ADD SWAP1 POP DUP1 DUP3 GT ISZERO PUSH2 0x81A JUMPI PUSH2 0x819 PUSH2 0x78D JUMP JUMPDEST JUMPDEST SWAP3 SWAP2 POP POP JUMP JUMPDEST PUSH0 DUP2 SWAP1 POP SWAP3 SWAP2 POP POP JUMP JUMPDEST POP JUMP JUMPDEST PUSH0 PUSH2 0x838 PUSH0 DUP4 PUSH2 0x820 JUMP JUMPDEST SWAP2 POP PUSH2 0x843 DUP3 PUSH2 0x82A JUMP JUMPDEST PUSH0 DUP3 ADD SWAP1 POP SWAP2 SWAP1 POP JUMP JUMPDEST PUSH0 PUSH2 0x857 DUP3 PUSH2 0x82D JUMP JUMPDEST SWAP2 POP DUP2 SWAP1 POP SWAP2 SWAP1 POP JUMP INVALID LOG2 PUSH5 0x6970667358 0x22 SLT KECCAK256 LOG1 CALLVALUE DUPN 0x82 PUSH6 0xCA43F154114B 0xFC 0x26 STOP CHAINID PUSH18 0xFB0D7A32F77C4BE619A48478C536A6D76473 PUSH16 0x6C634300081E00330000000000000000 "
				},
				"gasEstimates": {
					"creation": {
						"codeDepositCost": "439800",
						"executionCost": "infinite",
						"totalCost": "infinite"
					},
					"external": {
						"deposit()": "infinite",
						"getBalance()": "2519",
						"s_bankCap()": "infinite",
						"s_depositCount()": "2469",
						"s_thresholdWithdraw()": "infinite",
						"s_withdrawCount()": "2470",
						"withdraw(uint256)": "infinite"
					},
					"internal": {
						"_transferTokens(uint256)": "infinite"
					}
				},
				"methodIdentifiers": {
					"deposit()": "d0e30db0",
					"getBalance()": "12065fe0",
					"s_bankCap()": "80ef10ed",
					"s_depositCount()": "cac2e25f",
					"s_thresholdWithdraw()": "ac44f974",
					"s_withdrawCount()": "78234a3b",
					"withdraw(uint256)": "2e1a7d4d"
				}
			},
			"storageLayout": {
				"storage": [
					{
						"astId": 7,
						"contract": "contracts/kipu-bank.sol:KipuBank",
						"label": "s_bankAccounts",
						"offset": 0,
						"slot": "0",
						"type": "t_mapping(t_address,t_uint256)"
					},
					{
						"astId": 16,
						"contract": "contracts/kipu-bank.sol:KipuBank",
						"label": "s_depositCount",
						"offset": 0,
						"slot": "1",
						"type": "t_uint256"
					},
					{
						"astId": 19,
						"contract": "contracts/kipu-bank.sol:KipuBank",
						"label": "s_withdrawCount",
						"offset": 0,
						"slot": "2",
						"type": "t_uint256"
					}
				],
				"types": {
					"t_address": {
						"encoding": "inplace",
						"label": "address",
						"numberOfBytes": "20"
					},
					"t_mapping(t_address,t_uint256)": {
						"encoding": "mapping",
						"key": "t_address",
						"label": "mapping(address => uint256)",
						"numberOfBytes": "32",
						"value": "t_uint256"
					},
					"t_uint256": {
						"encoding": "inplace",
						"label": "uint256",
						"numberOfBytes": "32"
					}
				}
			},
			"userdoc": {
				"errors": {
					"BankIsFull(uint256)": [
						{
							"notice": "Thrown when a deposit would exceed the total bank capacity."
						}
					],
					"InsufficientBalance(uint256,uint256)": [
						{
							"notice": "Thrown when a user tries to withdraw more than their current balance."
						}
					],
					"InvalidBankCap()": [
						{
							"notice": "Thrown when the constructor receives as bank cap 0."
						}
					],
					"InvalidThreshold()": [
						{
							"notice": "Thrown when the constructor receives as withdraw threshold 0."
						}
					],
					"InvalidWithdrawAmount()": [
						{
							"notice": "Thrown when the an user tries to withdraw 0 native tokens."
						}
					],
					"TransactionError()": [
						{
							"notice": "Thrown when a transfer of native tokens fails."
						}
					],
					"WithdrawOverLimit()": [
						{
							"notice": "Thrown when a withdrawal amount exceeds the allowed threshold."
						}
					]
				},
				"events": {
					"UserDeposit(address,uint256,uint256)": {
						"notice": "Event emitted when an user deposits native tokens in the bank."
					},
					"UserWithdraw(address,uint256,uint256)": {
						"notice": "Event emitted when an user withdraw native tokens from the bank."
					}
				},
				"kind": "user",
				"methods": {
					"deposit()": {
						"notice": "Allows a user to deposit native tokens (ETH) into their personal vault."
					},
					"getBalance()": {
						"notice": "Returns the amount of native tokens stored to caller’s address."
					},
					"s_bankCap()": {
						"notice": "Limit of native tokens the bank can hold."
					},
					"s_depositCount()": {
						"notice": "Counter of the total number of deposits."
					},
					"s_thresholdWithdraw()": {
						"notice": "Limit of maximum withdraw per call."
					},
					"s_withdrawCount()": {
						"notice": "Counter of the total number of withdrawals."
					},
					"withdraw(uint256)": {
						"notice": "Allows a user to withdraw their native tokens from the bank account."
					}
				},
				"version": 1
			}
		}
	}
}