{
	"data": {
		"bytecode": {
			"linkReferences": {},
			"object": "60c060405234801561000f575f5ffd5b50604051610a0a380380610a0a833981810160405281019061003191906100ff565b5f820361006a576040517faabd5a0900000000000000000000000000000000000000000000000000000000815260040160405180910390fd5b5f81036100a3576040517f2f9874a700000000000000000000000000000000000000000000000000000000815260040160405180910390fd5b81608081815250508060a081815250505f6001819055505f600281905550505061013d565b5f5ffd5b5f819050919050565b6100de816100cc565b81146100e8575f5ffd5b50565b5f815190506100f9816100d5565b92915050565b5f5f60408385031215610115576101146100c8565b5b5f610122858286016100eb565b9250506020610133858286016100eb565b9150509250929050565b60805160a0516108976101735f395f8181610458015281816104a701526104db01525f8181610232015261047c01526108975ff3fe608060405260043610610073575f3560e01c806380ef10ed1161004d57806380ef10ed1461012a578063ac44f97414610154578063cac2e25f1461017e578063d0e30db0146101a8576100aa565b806312065fe0146100ae5780632e1a7d4d146100d857806378234a3b14610100576100aa565b366100aa576040517f457752c900000000000000000000000000000000000000000000000000000000815260040160405180910390fd5b5f5ffd5b3480156100b9575f5ffd5b506100c26101b2565b6040516100cf91906106f4565b60405180910390f35b3480156100e3575f5ffd5b506100fe60048036038101906100f9919061073b565b6101f5565b005b34801561010b575f5ffd5b50610114610450565b60405161012191906106f4565b60405180910390f35b348015610135575f5ffd5b5061013e610456565b60405161014b91906106f4565b60405180910390f35b34801561015f575f5ffd5b5061016861047a565b60405161017591906106f4565b60405180910390f35b348015610189575f5ffd5b5061019261049e565b60405161019f91906106f4565b60405180910390f35b6101b06104a4565b005b5f5f5f3373ffffffffffffffffffffffffffffffffffffffff1673ffffffffffffffffffffffffffffffffffffffff1681526020019081526020015f2054905090565b805f810361022f576040517fdb73cdf000000000000000000000000000000000000000000000000000000000815260040160405180910390fd5b817f000000000000000000000000000000000000000000000000000000000000000081111561028a576040517f08a2160500000000000000000000000000000000000000000000000000000000815260040160405180910390fd5b82805f5f3373ffffffffffffffffffffffffffffffffffffffff1673ffffffffffffffffffffffffffffffffffffffff1681526020019081526020015f2054101561034a57805f5f3373ffffffffffffffffffffffffffffffffffffffff1673ffffffffffffffffffffffffffffffffffffffff1681526020019081526020015f20546040517fcf479181000000000000000000000000000000000000000000000000000000008152600401610341929190610766565b60405180910390fd5b835f5f3373ffffffffffffffffffffffffffffffffffffffff1673ffffffffffffffffffffffffffffffffffffffff1681526020019081526020015f205f82825461039591906107ba565b925050819055506103a584610639565b600160025f8282546103b791906107ed565b925050819055503373ffffffffffffffffffffffffffffffffffffffff167fd2263e970e3552b8e14c013f4d6af030894ef3ae6f025607042368db047a4418855f5f3373ffffffffffffffffffffffffffffffffffffffff1673ffffffffffffffffffffffffffffffffffffffff1681526020019081526020015f2054604051610442929190610766565b60405180910390a250505050565b60025481565b7f000000000000000000000000000000000000000000000000000000000000000081565b7f000000000000000000000000000000000000000000000000000000000000000081565b60015481565b347f000000000000000000000000000000000000000000000000000000000000000081476104d291906107ed565b111561054057477f000000000000000000000000000000000000000000000000000000000000000061050491906107ba565b6040517fcf4129df00000000000000000000000000000000000000000000000000000000815260040161053791906106f4565b60405180910390fd5b345f5f3373ffffffffffffffffffffffffffffffffffffffff1673ffffffffffffffffffffffffffffffffffffffff1681526020019081526020015f205f82825461058b91906107ed565b925050819055506001805f8282546105a391906107ed565b925050819055503373ffffffffffffffffffffffffffffffffffffffff167f2f1a7fda57b5fd5cb62770aebd7fc9a8a0a834c5ff558eb7562f85f2b28c4375345f5f3373ffffffffffffffffffffffffffffffffffffffff1673ffffffffffffffffffffffffffffffffffffffff1681526020019081526020015f205460405161062e929190610766565b60405180910390a250565b5f3373ffffffffffffffffffffffffffffffffffffffff168260405161065e9061084d565b5f6040518083038185875af1925050503d805f8114610698576040519150601f19603f3d011682016040523d82523d5f602084013e61069d565b606091505b50509050806106d8576040517f9557f59a00000000000000000000000000000000000000000000000000000000815260040160405180910390fd5b5050565b5f819050919050565b6106ee816106dc565b82525050565b5f6020820190506107075f8301846106e5565b92915050565b5f5ffd5b61071a816106dc565b8114610724575f5ffd5b50565b5f8135905061073581610711565b92915050565b5f602082840312156107505761074f61070d565b5b5f61075d84828501610727565b91505092915050565b5f6040820190506107795f8301856106e5565b61078660208301846106e5565b9392505050565b7f4e487b71000000000000000000000000000000000000000000000000000000005f52601160045260245ffd5b5f6107c4826106dc565b91506107cf836106dc565b92508282039050818111156107e7576107e661078d565b5b92915050565b5f6107f7826106dc565b9150610802836106dc565b925082820190508082111561081a5761081961078d565b5b92915050565b5f81905092915050565b50565b5f6108385f83610820565b91506108438261082a565b5f82019050919050565b5f6108578261082d565b915081905091905056fea2646970667358221220a134e68265ca43f154114bfc26004671fb0d7a32f77c4be619a48478c536a6d764736f6c634300081e0033",
			"opcodes": "PUSH1 0xC0 PUSH1 0x40 MSTORE CALLVALUE DUP1 ISZERO PUSH2 0xF JUMPI PUSH0 PUSH0 REVERT JUMPDEST POP PUSH1 0x40 MLOAD PUSH2 0xA0A CODESIZE SUB DUP1 PUSH2 0xA0A DUP4 CODECOPY DUP2 DUP2 ADD PUSH1 0x40 MSTORE DUP2 ADD SWAP1 PUSH2 0x31 SWAP2 SWAP1 PUSH2 0xFF JUMP JUMPDEST PUSH0 DUP3 SUB PUSH2 0x6A JUMPI PUSH1 0x40 MLOAD PUSH32 0xAABD5A0900000000000000000000000000000000000000000000000000000000 DUP2 MSTORE PUSH1 0x4 ADD PUSH1 0x40 MLOAD DUP1 SWAP2 SUB SWAP1 REVERT JUMPDEST PUSH0 DUP2 SUB PUSH2 0xA3 JUMPI PUSH1 0x40 MLOAD PUSH32 0x2F9874A700000000000000000000000000000000000000000000000000000000 DUP2 MSTORE PUSH1 0x4 ADD PUSH1 0x40 MLOAD DUP1 SWAP2 SUB SWAP1 REVERT JUMPDEST DUP2 PUSH1 0x80 DUP2 DUP2 MSTORE POP POP DUP1 PUSH1 0xA0 DUP2 DUP2 MSTORE POP POP PUSH0 PUSH1 0x1 DUP2 SWAP1 SSTORE POP PUSH0 PUSH1 0x2 DUP2 SWAP1 SSTORE POP POP POP PUSH2 0x13D JUMP JUMPDEST PUSH0 PUSH0 REVERT JUMPDEST PUSH0 DUP2 SWAP1 POP SWAP2 SWAP1 POP JUMP JUMPDEST PUSH2 0xDE DUP2 PUSH2 0xCC JUMP JUMPDEST DUP2 EQ PUSH2 0xE8 JUMPI PUSH0 PUSH0 REVERT JUMPDEST POP JUMP JUMPDEST PUSH0 DUP2 MLOAD SWAP1 POP PUSH2 0xF9 DUP2 PUSH2 0xD5 JUMP JUMPDEST SWAP3 SWAP2 POP POP JUMP JUMPDEST PUSH0 PUSH0 PUSH1 0x40 DUP4 DUP6 SUB SLT ISZERO PUSH2 0x115 JUMPI PUSH2 0x114 PUSH2 0xC8 JUMP JUMPDEST JUMPDEST PUSH0 PUSH2 0x122 DUP6 DUP3 DUP7 ADD PUSH2 0xEB JUMP JUMPDEST SWAP3 POP POP PUSH1 0x20 PUSH2 0x133 DUP6 DUP3 DUP7 ADD PUSH2 0xEB JUMP JUMPDEST SWAP2 POP POP SWAP3 POP SWAP3 SWAP1 POP JUMP JUMPDEST PUSH1 0x80 MLOAD PUSH1 0xA0 MLOAD PUSH2 0x897 PUSH2 0x173 PUSH0 CODECOPY PUSH0 DUP2 DUP2 PUSH2 0x458 ADD MSTORE DUP2 DUP2 PUSH2 0x4A7 ADD MSTORE PUSH2 0x4DB ADD MSTORE PUSH0 DUP2 DUP2 PUSH2 0x232 ADD MSTORE PUSH2 0x47C ADD MSTORE PUSH2 0x897 PUSH0 RETURN INVALID PUSH1 0x80 PUSH1 0x40 MSTORE PUSH1 0x4 CALLDATASIZE LT PUSH2 0x73 JUMPI PUSH0 CALLDATALOAD PUSH1 0xE0 SHR DUP1 PUSH4 0x80EF10ED GT PUSH2 0x4D JUMPI DUP1 PUSH4 0x80EF10ED EQ PUSH2 0x12A JUMPI DUP1 PUSH4 0xAC44F974 EQ PUSH2 0x154 JUMPI DUP1 PUSH4 0xCAC2E25F EQ PUSH2 0x17E JUMPI DUP1 PUSH4 0xD0E30DB0 EQ PUSH2 0x1A8 JUMPI PUSH2 0xAA JUMP JUMPDEST DUP1 PUSH4 0x12065FE0 EQ PUSH2 0xAE JUMPI DUP1 PUSH4 0x2E1A7D4D EQ PUSH2 0xD8 JUMPI DUP1 PUSH4 0x78234A3B EQ PUSH2 0x100 JUMPI PUSH2 0xAA JUMP JUMPDEST CALLDATASIZE PUSH2 0xAA JUMPI PUSH1 0x40 MLOAD PUSH32 0x457752C900000000000000000000000000000000000000000000000000000000 DUP2 MSTORE PUSH1 0x4 ADD PUSH1 0x40 MLOAD DUP1 SWAP2 SUB SWAP1 REVERT JUMPDEST PUSH0 PUSH0 REVERT JUMPDEST CALLVALUE DUP1 ISZERO PUSH2 0xB9 JUMPI PUSH0 PUSH0 REVERT JUMPDEST POP PUSH2 0xC2 PUSH2 0x1B2 JUMP JUMPDEST PUSH1 0x40 MLOAD PUSH2 0xCF SWAP2 SWAP1 PUSH2 0x6F4 JUMP JUMPDEST PUSH1 0x40 MLOAD DUP1 SWAP2 SUB SWAP1 RETURN JUMPDEST CALLVALUE DUP1 ISZERO PUSH2 0xE3 JUMPI PUSH0 PUSH0 REVERT JUMPDEST POP PUSH2 0xFE PUSH1 0x4 DUP1 CALLDATASIZE SUB DUP2 ADD SWAP1 PUSH2 0xF9 SWAP2 SWAP1 PUSH2 0x73B JUMP JUMPDEST PUSH2 0x1F5 JUMP JUMPDEST STOP JUMPDEST CALLVALUE DUP1 ISZERO PUSH2 0x10B JUMPI PUSH0 PUSH0 REVERT JUMPDEST POP PUSH2 0x114 PUSH2 0x450 JUMP JUMPDEST PUSH1 0x40 MLOAD PUSH2 0x121 SWAP2 SWAP1 PUSH2 0x6F4 JUMP JUMPDEST PUSH1 0x40 MLOAD DUP1 SWAP2 SUB SWAP1 RETURN JUMPDEST CALLVALUE DUP1 ISZERO PUSH2 0x135 JUMPI PUSH0 PUSH0 REVERT JUMPDEST POP PUSH2 0x13E PUSH2 0x456 JUMP JUMPDEST PUSH1 0x40 MLOAD PUSH2 0x14B SWAP2 SWAP1 PUSH2 0x6F4 JUMP JUMPDEST PUSH1 0x40 MLOAD DUP1 SWAP2 SUB SWAP1 RETURN JUMPDEST CALLVALUE DUP1 ISZERO PUSH2 0x15F JUMPI PUSH0 PUSH0 REVERT JUMPDEST POP PUSH2 0x168 PUSH2 0x47A JUMP JUMPDEST PUSH1 0x40 MLOAD PUSH2 0x175 SWAP2 SWAP1 PUSH2 0x6F4 JUMP JUMPDEST PUSH1 0x40 MLOAD DUP1 SWAP2 SUB SWAP1 RETURN JUMPDEST CALLVALUE DUP1 ISZERO PUSH2 0x189 JUMPI PUSH0 PUSH0 REVERT JUMPDEST POP PUSH2 0x192 PUSH2 0x49E JUMP JUMPDEST PUSH1 0x40 MLOAD PUSH2 0x19F SWAP2 SWAP1 PUSH2 0x6F4 JUMP JUMPDEST PUSH1 0x40 MLOAD DUP1 SWAP2 SUB SWAP1 RETURN JUMPDEST PUSH2 0x1B0 PUSH2 0x4A4 JUMP JUMPDEST STOP JUMPDEST PUSH0 PUSH0 PUSH0 CALLER PUSH20 0xFFFFFFFFFFFFFFFFFFFFFFFFFFFFFFFFFFFFFFFF AND PUSH20 0xFFFFFFFFFFFFFFFFFFFFFFFFFFFFFFFFFFFFFFFF AND DUP2 MSTORE PUSH1 0x20 ADD SWAP1 DUP2 MSTORE PUSH1 0x20 ADD PUSH0 KECCAK256 SLOAD SWAP1 POP SWAP1 JUMP JUMPDEST DUP1 PUSH0 DUP2 SUB PUSH2 0x22F JUMPI PUSH1 0x40 MLOAD PUSH32 0xDB73CDF000000000000000000000000000000000000000000000000000000000 DUP2 MSTORE PUSH1 0x4 ADD PUSH1 0x40 MLOAD DUP1 SWAP2 SUB SWAP1 REVERT JUMPDEST DUP2 PUSH32 0x0 DUP2 GT ISZERO PUSH2 0x28A JUMPI PUSH1 0x40 MLOAD PUSH32 0x8A2160500000000000000000000000000000000000000000000000000000000 DUP2 MSTORE PUSH1 0x4 ADD PUSH1 0x40 MLOAD DUP1 SWAP2 SUB SWAP1 REVERT JUMPDEST DUP3 DUP1 PUSH0 PUSH0 CALLER PUSH20 0xFFFFFFFFFFFFFFFFFFFFFFFFFFFFFFFFFFFFFFFF AND PUSH20 0xFFFFFFFFFFFFFFFFFFFFFFFFFFFFFFFFFFFFFFFF AND DUP2 MSTORE PUSH1 0x20 ADD SWAP1 DUP2 MSTORE PUSH1 0x20 ADD PUSH0 KECCAK256 SLOAD LT ISZERO PUSH2 0x34A JUMPI DUP1 PUSH0 PUSH0 CALLER PUSH20 0xFFFFFFFFFFFFFFFFFFFFFFFFFFFFFFFFFFFFFFFF AND PUSH20 0xFFFFFFFFFFFFFFFFFFFFFFFFFFFFFFFFFFFFFFFF AND DUP2 MSTORE PUSH1 0x20 ADD SWAP1 DUP2 MSTORE PUSH1 0x20 ADD PUSH0 KECCAK256 SLOAD PUSH1 0x40 MLOAD PUSH32 0xCF47918100000000000000000000000000000000000000000000000000000000 DUP2 MSTORE PUSH1 0x4 ADD PUSH2 0x341 SWAP3 SWAP2 SWAP1 PUSH2 0x766 JUMP JUMPDEST PUSH1 0x40 MLOAD DUP1 SWAP2 SUB SWAP1 REVERT JUMPDEST DUP4 PUSH0 PUSH0 CALLER PUSH20 0xFFFFFFFFFFFFFFFFFFFFFFFFFFFFFFFFFFFFFFFF AND PUSH20 0xFFFFFFFFFFFFFFFFFFFFFFFFFFFFFFFFFFFFFFFF AND DUP2 MSTORE PUSH1 0x20 ADD SWAP1 DUP2 MSTORE PUSH1 0x20 ADD PUSH0 KECCAK256 PUSH0 DUP3 DUP3 SLOAD PUSH2 0x395 SWAP2 SWAP1 PUSH2 0x7BA JUMP JUMPDEST SWAP3 POP POP DUP2 SWAP1 SSTORE POP PUSH2 0x3A5 DUP5 PUSH2 0x639 JUMP JUMPDEST PUSH1 0x1 PUSH1 0x2 PUSH0 DUP3 DUP3 SLOAD PUSH2 0x3B7 SWAP2 SWAP1 PUSH2 0x7ED JUMP JUMPDEST SWAP3 POP POP DUP2 SWAP1 SSTORE POP CALLER PUSH20 0xFFFFFFFFFFFFFFFFFFFFFFFFFFFFFFFFFFFFFFFF AND PUSH32 0xD2263E970E3552B8E14C013F4D6AF030894EF3AE6F025607042368DB047A4418 DUP6 PUSH0 PUSH0 CALLER PUSH20 0xFFFFFFFFFFFFFFFFFFFFFFFFFFFFFFFFFFFFFFFF AND PUSH20 0xFFFFFFFFFFFFFFFFFFFFFFFFFFFFFFFFFFFFFFFF AND DUP2 MSTORE PUSH1 0x20 ADD SWAP1 DUP2 MSTORE PUSH1 0x20 ADD PUSH0 KECCAK256 SLOAD PUSH1 0x40 MLOAD PUSH2 0x442 SWAP3 SWAP2 SWAP1 PUSH2 0x766 JUMP JUMPDEST PUSH1 0x40 MLOAD DUP1 SWAP2 SUB SWAP1 LOG2 POP POP POP POP JUMP JUMPDEST PUSH1 0x2 SLOAD DUP2 JUMP JUMPDEST PUSH32 0x0 DUP2 JUMP JUMPDEST PUSH32 0x0 DUP2 JUMP JUMPDEST PUSH1 0x1 SLOAD DUP2 JUMP JUMPDEST CALLVALUE PUSH32 0x0 DUP2 SELFBALANCE PUSH2 0x4D2 SWAP2 SWAP1 PUSH2 0x7ED JUMP JUMPDEST GT ISZERO PUSH2 0x540 JUMPI SELFBALANCE PUSH32 0x0 PUSH2 0x504 SWAP2 SWAP1 PUSH2 0x7BA JUMP JUMPDEST PUSH1 0x40 MLOAD PUSH32 0xCF4129DF00000000000000000000000000000000000000000000000000000000 DUP2 MSTORE PUSH1 0x4 ADD PUSH2 0x537 SWAP2 SWAP1 PUSH2 0x6F4 JUMP JUMPDEST PUSH1 0x40 MLOAD DUP1 SWAP2 SUB SWAP1 REVERT JUMPDEST CALLVALUE PUSH0 PUSH0 CALLER PUSH20 0xFFFFFFFFFFFFFFFFFFFFFFFFFFFFFFFFFFFFFFFF AND PUSH20 0xFFFFFFFFFFFFFFFFFFFFFFFFFFFFFFFFFFFFFFFF AND DUP2 MSTORE PUSH1 0x20 ADD SWAP1 DUP2 MSTORE PUSH1 0x20 ADD PUSH0 KECCAK256 PUSH0 DUP3 DUP3 SLOAD PUSH2 0x58B SWAP2 SWAP1 PUSH2 0x7ED JUMP JUMPDEST SWAP3 POP POP DUP2 SWAP1 SSTORE POP PUSH1 0x1 DUP1 PUSH0 DUP3 DUP3 SLOAD PUSH2 0x5A3 SWAP2 SWAP1 PUSH2 0x7ED JUMP JUMPDEST SWAP3 POP POP DUP2 SWAP1 SSTORE POP CALLER PUSH20 0xFFFFFFFFFFFFFFFFFFFFFFFFFFFFFFFFFFFFFFFF AND PUSH32 0x2F1A7FDA57B5FD5CB62770AEBD7FC9A8A0A834C5FF558EB7562F85F2B28C4375 CALLVALUE PUSH0 PUSH0 CALLER PUSH20 0xFFFFFFFFFFFFFFFFFFFFFFFFFFFFFFFFFFFFFFFF AND PUSH20 0xFFFFFFFFFFFFFFFFFFFFFFFFFFFFFFFFFFFFFFFF AND DUP2 MSTORE PUSH1 0x20 ADD SWAP1 DUP2 MSTORE PUSH1 0x20 ADD PUSH0 KECCAK256 SLOAD PUSH1 0x40 MLOAD PUSH2 0x62E SWAP3 SWAP2 SWAP1 PUSH2 0x766 JUMP JUMPDEST PUSH1 0x40 MLOAD DUP1 SWAP2 SUB SWAP1 LOG2 POP JUMP JUMPDEST PUSH0 CALLER PUSH20 0xFFFFFFFFFFFFFFFFFFFFFFFFFFFFFFFFFFFFFFFF AND DUP3 PUSH1 0x40 MLOAD PUSH2 0x65E SWAP1 PUSH2 0x84D JUMP JUMPDEST PUSH0 PUSH1 0x40 MLOAD DUP1 DUP4 SUB DUP2 DUP6 DUP8 GAS CALL SWAP3 POP POP POP RETURNDATASIZE DUP1 PUSH0 DUP2 EQ PUSH2 0x698 JUMPI PUSH1 0x40 MLOAD SWAP2 POP PUSH1 0x1F NOT PUSH1 0x3F RETURNDATASIZE ADD AND DUP3 ADD PUSH1 0x40 MSTORE RETURNDATASIZE DUP3 MSTORE RETURNDATASIZE PUSH0 PUSH1 0x20 DUP5 ADD RETURNDATACOPY PUSH2 0x69D JUMP JUMPDEST PUSH1 0x60 SWAP2 POP JUMPDEST POP POP SWAP1 POP DUP1 PUSH2 0x6D8 JUMPI PUSH1 0x40 MLOAD PUSH32 0x9557F59A00000000000000000000000000000000000000000000000000000000 DUP2 MSTORE PUSH1 0x4 ADD PUSH1 0x40 MLOAD DUP1 SWAP2 SUB SWAP1 REVERT JUMPDEST POP POP JUMP JUMPDEST PUSH0 DUP2 SWAP1 POP SWAP2 SWAP1 POP JUMP JUMPDEST PUSH2 0x6EE DUP2 PUSH2 0x6DC JUMP JUMPDEST DUP3 MSTORE POP POP JUMP JUMPDEST PUSH0 PUSH1 0x20 DUP3 ADD SWAP1 POP PUSH2 0x707 PUSH0 DUP4 ADD DUP5 PUSH2 0x6E5 JUMP JUMPDEST SWAP3 SWAP2 POP POP JUMP JUMPDEST PUSH0 PUSH0 REVERT JUMPDEST PUSH2 0x71A DUP2 PUSH2 0x6DC JUMP JUMPDEST DUP2 EQ PUSH2 0x724 JUMPI PUSH0 PUSH0 REVERT JUMPDEST POP JUMP JUMPDEST PUSH0 DUP2 CALLDATALOAD SWAP1 POP PUSH2 0x735 DUP2 PUSH2 0x711 JUMP JUMPDEST SWAP3 SWAP2 POP POP JUMP JUMPDEST PUSH0 PUSH1 0x20 DUP3 DUP5 SUB SLT ISZERO PUSH2 0x750 JUMPI PUSH2 0x74F PUSH2 0x70D JUMP JUMPDEST JUMPDEST PUSH0 PUSH2 0x75D DUP5 DUP3 DUP6 ADD PUSH2 0x727 JUMP JUMPDEST SWAP2 POP POP SWAP3 SWAP2 POP POP JUMP JUMPDEST PUSH0 PUSH1 0x40 DUP3 ADD SWAP1 POP PUSH2 0x779 PUSH0 DUP4 ADD DUP6 PUSH2 0x6E5 JUMP JUMPDEST PUSH2 0x786 PUSH1 0x20 DUP4 ADD DUP5 PUSH2 0x6E5 JUMP JUMPDEST SWAP4 SWAP3 POP POP POP JUMP JUMPDEST PUSH32 0x4E487B7100000000000000000000000000000000000000000000000000000000 PUSH0 MSTORE PUSH1 0x11 PUSH1 0x4 MSTORE PUSH1 0x24 PUSH0 REVERT JUMPDEST PUSH0 PUSH2 0x7C4 DUP3 PUSH2 0x6DC JUMP JUMPDEST SWAP2 POP PUSH2 0x7CF DUP4 PUSH2 0x6DC JUMP JUMPDEST SWAP3 POP DUP3 DUP3 SUB SWAP1 POP DUP2 DUP2 GT ISZERO PUSH2 0x7E7 JUMPI PUSH2 0x7E6 PUSH2 0x78D JUMP JUMPDEST JUMPDEST SWAP3 SWAP2 POP POP JUMP JUMPDEST PUSH0 PUSH2 0x7F7 DUP3 PUSH2 0x6DC JUMP JUMPDEST SWAP2 POP PUSH2 0x802 DUP4 PUSH2 0x6DC JUMP JUMPDEST SWAP3 POP DUP3 DUP3 ADD SWAP1 POP DUP1 DUP3 GT ISZERO PUSH2 0x81A JUMPI PUSH2 0x819 PUSH2 0x78D JUMP JUMPDEST JUMPDEST SWAP3 SWAP2 POP POP JUMP JUMPDEST PUSH0 DUP2 SWAP1 POP SWAP3 SWAP2 POP POP JUMP JUMPDEST POP JUMP JUMPDEST PUSH0 PUSH2 0x838 PUSH0 DUP4 PUSH2 0x820 JUMP JUMPDEST SWAP2 POP PUSH2 0x843 DUP3 PUSH2 0x82A JUMP JUMPDEST PUSH0 DUP3 ADD SWAP1 POP SWAP2 SWAP1 POP JUMP JUMPDEST PUSH0 PUSH2 0x857 DUP3 PUSH2 0x82D JUMP JUMPDEST SWAP2 POP DUP2 SWAP1 POP SWAP2 SWAP1 POP JUMP INVALID LOG2 PUSH5 0x6970667358 0x22 SLT KECCAK256 LOG1 CALLVALUE DUPN 0x82 PUSH6 0xCA43F154114B 0xFC 0x26 STOP CHAINID PUSH18 0xFB0D7A32F77C4BE619A48478C536A6D76473 PUSH16 0x6C634300081E00330000000000000000 "
		},
		"gasEstimates": {
			"creation": {
				"codeDepositCost": "439800",
				"executionCost": "infinite",
				"totalCost": "infinite"
			},
			"external": {
				"deposit()": "infinite",
				"getBalance()": "2519",
				"s_bankCap()": "infinite",
				"s_depositCount()": "2469",
				"s_thresholdWithdraw()": "infinite",
				"s_withdrawCount()": "2470",
				"withdraw(uint256)": "infinite"
			},
			"internal": {
				"_transferTokens(uint256)": "infinite"
			}
		},
		"methodIdentifiers": {
			"deposit()": "d0e30db0",
			"getBalance()": "12065fe0",
			"s_bankCap()": "80ef10ed",
			"s_depositCount()": "cac2e25f",
			"s_thresholdWithdraw()": "ac44f974",
			"s_withdrawCount()": "78234a3b",
			"withdraw(uint256)": "2e1a7d4d"
		}
	},
	"abi": [
		{
			"inputs": [
				{
					"internalType": "uint256",
					"name": "_thresholdWithdraw",
					"type": "uint256"
				},
				{
					"internalType": "uint256",
					"name": "_bankCap",
					"type": "uint256"
				}
			],
			"stateMutability": "nonpayable",
			"type": "constructor"
		},
		{
			"inputs": [
				{
					"internalType": "uint256",
					"name": "amountAvailable",
					"type": "uint256"
				}
			],
			"name": "BankIsFull",
			"type": "error"
		},
		{
			"inputs": [],
			"name": "DirectTransferAttempt",
			"type": "error"
		},
		{
			"inputs": [
				{
					"internalType": "uint256",
					"name": "requested",
					"type": "uint256"
				},
				{
					"internalType": "uint256",
					"name": "available",
					"type": "uint256"
				}
			],
			"name": "InsufficientBalance",
			"type": "error"
		},
		{
			"inputs": [],
			"name": "InvalidBankCap",
			"type": "error"
		},
		{
			"inputs": [],
			"name": "InvalidThreshold",
			"type": "error"
		},
		{
			"inputs": [],
			"name": "InvalidWithdrawAmount",
			"type": "error"
		},
		{
			"inputs": [],
			"name": "TransactionError",
			"type": "error"
		},
		{
			"inputs": [],
			"name": "WithdrawOverLimit",
			"type": "error"
		},
		{
			"anonymous": false,
			"inputs": [
				{
					"indexed": true,
					"internalType": "address",
					"name": "user",
					"type": "address"
				},
				{
					"indexed": false,
					"internalType": "uint256",
					"name": "amountDeposited",
					"type": "uint256"
				},
				{
					"indexed": false,
					"internalType": "uint256",
					"name": "newTotalAmount",
					"type": "uint256"
				}
			],
			"name": "UserDeposit",
			"type": "event"
		},
		{
			"anonymous": false,
			"inputs": [
				{
					"indexed": true,
					"internalType": "address",
					"name": "user",
					"type": "address"
				},
				{
					"indexed": false,
					"internalType": "uint256",
					"name": "amountWithdraw",
					"type": "uint256"
				},
				{
					"indexed": false,
					"internalType": "uint256",
					"name": "newTotalAmount",
					"type": "uint256"
				}
			],
			"name": "UserWithdraw",
			"type": "event"
		},
		{
			"inputs": [],
			"name": "deposit",
			"outputs": [],
			"stateMutability": "payable",
			"type": "function"
		},
		{
			"inputs": [],
			"name": "getBalance",
			"outputs": [
				{
					"internalType": "uint256",
					"name": "",
					"type": "uint256"
				}
			],
			"stateMutability": "view",
			"type": "function"
		},
		{
			"inputs": [],
			"name": "s_bankCap",
			"outputs": [
				{
					"internalType": "uint256",
					"name": "",
					"type": "uint256"
				}
			],
			"stateMutability": "view",
			"type": "function"
		},
		{
			"inputs": [],
			"name": "s_depositCount",
			"outputs": [
				{
					"internalType": "uint256",
					"name": "",
					"type": "uint256"
				}
			],
			"stateMutability": "view",
			"type": "function"
		},
		{
			"inputs": [],
			"name": "s_thresholdWithdraw",
			"outputs": [
				{
					"internalType": "uint256",
					"name": "",
					"type": "uint256"
				}
			],
			"stateMutability": "view",
			"type": "function"
		},
		{
			"inputs": [],
			"name": "s_withdrawCount",
			"outputs": [
				{
					"internalType": "uint256",
					"name": "",
					"type": "uint256"
				}
			],
			"stateMutability": "view",
			"type": "function"
		},
		{
			"inputs": [
				{
					"internalType": "uint256",
					"name": "_amount",
					"type": "uint256"
				}
			],
			"name": "withdraw",
			"outputs": [],
			"stateMutability": "nonpayable",
			"type": "function"
		},
		{
			"stateMutability": "payable",
			"type": "receive"
		}
	]
}